:020000040800F2
:1000000000300020F9360008313600083336000889
:100010003536000837360008393600080000000081
:100020000000000000000000000000003B36000857
:100030003D360008000000003F3600084136000849
:100040004937000849370008493700084937000890
:100050004937000849370008493700084937000880
:100060004937000849370008493700084937000870
:10007000493700084D36000849370008493700085D
:100080004937000849370008493700084937000850
:100090004937000849370008493700084937000840
:1000A0005D3600084937000849370008493700081D
:1000B00049370008493700080000000049370008A8
:1000C0004937000800000000000000004937000820
:1000D0000000000049370008713600084937000861
:1000E0004937000849370008000000000000000000
:1000F0000000000000000000000000000000000000
:1001000000000000000000000000000000000000EF
:100110000000000000000000813600084937000898
:1001200000000000000000000000000000000000CF
:1001300000000000000000000000000000000000BF
:10014000493700084937000800000000000000009F
:10015000000000000000000000000000000000009F
:10016000000000000000000000000000000000008F
:10017000000000000000000000000000000000007F
:080180000000000049370008EF
:1001880010B5054C237833B9044B13B10448AFF3C9
:1001980000800123237010BD14000020000000001F
:1001A800A848000808B5034B1BB103490348AFF33F
:1001B800008008BD0000000018000020A8480008C2
:1001C80081F0004102E000BF83F0004330B54FEA00
:1001D80041044FEA430594EA050F08BF90EA020F6D
:1001E8001FBF54EA000C55EA020C7FEA645C7FEA00
:1001F800655C00F0E2804FEA5454D4EB5555B8BF23
:100208006D420CDD2C4480EA020281EA030382EA93
:10021800000083EA010180EA020281EA0303362D25
:1002280088BF30BD11F0004F4FEA01314FF4801CF8
:100238004CEA113102D0404261EB410113F0004F0A
:100248004FEA03334CEA133302D0524263EB4303C1
:1002580094EA050F00F0A780A4F10104D5F1200E5F
:100268000DDB02FA0EFC22FA05F2801841F10001BA
:1002780003FA0EF2801843FA05F359410EE0A5F18E
:1002880020050EF1200E012A03FA0EFC28BF4CF0BF
:10029800020C43FA05F3C01851EBE37101F0004575
:1002A80007D54FF0000EDCF1000C7EEB00006EEB82
:1002B8000101B1F5801F1BD3B1F5001F0CD349080C
:1002C8005FEA30004FEA3C0C04F101044FEA445263
:1002D80012F5800F80F09A80BCF1004F08BF5FEAEA
:1002E800500C50F1000041EB045141EA050130BDCA
:1002F8005FEA4C0C404141EB010111F4801FA4F16D
:100308000104E9D191F0000F04BF01460020B1FAC1
:1003180081F308BF2033A3F10B03B3F120020CDAF9
:100328000C3208DD02F1140CC2F10C0201FA0CF0D7
:1003380021FA02F10CE002F11402D8BFC2F1200C3C
:1003480001FA02F120FA0CFCDCBF41EA0C019040F2
:10035800E41AA2BF01EB0451294330BD6FEA04043B
:100368001F3C1CDA0C340EDC04F11404C4F1200226
:1003780020FA04F001FA02F340EA030021FA04F338
:1003880045EA030130BDC4F10C04C4F1200220FA8F
:1003980002F001FA04F340EA0300294630BD21FACD
:1003A80004F0294630BD94F0000F83F4801306BF93
:1003B80081F480110134013D4EE77FEA645C18BF87
:1003C8007FEA655C29D094EA050F08BF90EA020F1E
:1003D80005D054EA000C04BF1946104630BD91EA16
:1003E800030F1EBF0021002030BD5FEA545C05D119
:1003F8004000494128BF41F0004130BD14F5800458
:100408003CBF01F5801130BD01F0004545F0FE41CB
:1004180041F470014FF0000030BD7FEA645C1ABF00
:10042800194610467FEA655C1CBF0B46024650EA37
:10043800013406BF52EA033591EA030F41F4002163
:1004480030BD00BF90F0000F04BF0021704730B5E9
:100458004FF4806404F132044FF000054FF00001BE
:1004680050E700BF90F0000F04BF0021704730B57F
:100478004FF4806404F1320410F0004548BF404254
:100488004FF000013EE700BF42004FEAE2014FEAA9
:1004980031014FEA02701FBF12F07F4393F07F4F84
:1004A80081F06051704792F0000F14BF93F07F4FB6
:1004B800704730B54FF4607401F0004521F00041F9
:1004C80020E700BF50EA010208BF704730B54FF07F
:1004D80000050AE050EA010208BF704730B511F084
:1004E800004502D5404261EB41014FF4806404F1BC
:1004F80032045FEA915C3FF4DCAE4FF003025FEA3E
:10050800DC0C18BF03325FEADC0C18BF033202EBC5
:10051800DC02C2F1200300FA03FC20FA02F001FA1F
:1005280003FE40EA0E0021FA02F11444C1E600BFBE
:1005380070B54FF0FF0C4CF4E06C1CEA11541DBF71
:100548001CEA135594EA0C0F95EA0C0F00F0DEF83C
:100558002C4481EA030621EA4C5123EA4C5350EA21
:10056800013518BF52EA033541F4801143F4801372
:1005780038D0A0FB02CE4FF00005E1FB02E506F003
:100588000042E0FB03E54FF00006E1FB03569CF058
:10059800000F18BF4EF0010EA4F1FF04B6F5007F5E
:1005A80064F5407404D25FEA4E0E6D4146EB0606D0
:1005B80042EAC62141EA55514FEAC52040EA5E5059
:1005C8004FEACE2EB4F1FD0C88BFBCF5E06F1ED803
:1005D800BEF1004F08BF5FEA500E50F1000041EB3A
:1005E800045170BD06F0004646EA010140EA0200E7
:1005F80081EA0301B4EB5C04C2BFD4EB0C0541EA09
:10060800045170BD41F480114FF0000E013C00F31D
:10061800AB8014F1360FDEBF002001F0004170BD41
:10062800C4F10004203C35DA0C341BDC04F114045A
:10063800C4F1200500FA05F320FA04F001FA05F2E6
:1006480040EA020001F0004221F0004110EBD370B3
:1006580021FA04F642EB06015EEA430E08BF20EADF
:10066800D37070BDC4F10C04C4F1200500FA04F382
:1006780020FA05F001FA04F240EA020001F0004114
:1006880010EBD37041F100015EEA430E08BF20EA87
:10069800D37070BDC4F1200500FA05F24EEA020ECF
:1006A80020FA04F301FA05F243EA020321FA04F0FE
:1006B80001F0004121FA04F220EA020000EBD370B5
:1006C8005EEA430E08BF20EAD37070BD94F0000FB5
:1006D8000FD101F00046400041EB010111F4801FE9
:1006E80008BF013CF7D041EA060195F0000F18BF9A
:1006F800704703F00046520043EB030313F4801FD6
:1007080008BF013DF7D043EA0603704794EA0C0F8F
:100718000CEA135518BF95EA0C0F0CD050EA4106A5
:1007280018BF52EA4306D1D181EA030101F0004122
:100738004FF0000070BD50EA410606BF104619464A
:1007480052EA430619D094EA0C0F02D150EA013656
:1007580013D195EA0C0F05D152EA03361CBF104697
:1007680019460AD181EA030101F0004141F0FE4136
:1007780041F470014FF0000070BD41F0FE4141F4BA
:10078800780170BD70B54FF0FF0C4CF4E06C1CEABA
:1007980011541DBF1CEA135594EA0C0F95EA0C0F6F
:1007A80000F0A7F8A4EB050481EA030E52EA03352A
:1007B8004FEA013100F088804FEA03334FF080554B
:1007C80045EA131343EA12634FEA022245EA111578
:1007D80045EA10654FEA00260EF000419D4208BF29
:1007E800964244F1FD0404F5407402D25B084FEAD6
:1007F8003202B61A65EB03055B084FEA32024FF482
:1008080080104FF4002CB6EB020E75EB030E22BFDE
:10081800B61A754640EA0C005B084FEA3202B6EB9E
:10082800020E75EB030E22BFB61A754640EA5C004D
:100838005B084FEA3202B6EB020E75EB030E22BFDD
:10084800B61A754640EA9C005B084FEA3202B6EBDE
:10085800020E75EB030E22BFB61A754640EADC009D
:1008680055EA060E18D04FEA051545EA16754FEAFF
:1008780006164FEAC30343EA52734FEAC2025FEA1D
:100888001C1CC0D111F4801F0BD141EA00014FF0AC
:1008980000004FF0004CB6E711F4801F04BF01437D
:1008A8000020B4F1FD0C88BFBCF5E06F3FF6AFAE99
:1008B800B5EB030C04BFB6EB020C5FEA500C50F129
:1008C800000041EB045170BD0EF0004E4EEA1131AC
:1008D80014EB5C04C2BFD4EB0C0541EA045170BDB3
:1008E80041F480114FF0000E013C90E645EA060EF7
:1008F8008DE60CEA135594EA0C0F08BF95EA0C0F25
:100908003FF43BAF94EA0C0F0AD150EA01347FF46C
:1009180034AF95EA0C0F7FF425AF104619462CE743
:1009280095EA0C0F06D152EA03353FF4FDAE1046A6
:10093800194622E750EA410618BF52EA43067FF4F7
:10094800C5AE50EA41047FF40DAF52EA43057FF487
:10095800EBAE12E74FF0FF3C06E000BF4FF0010C92
:1009680002E000BF4FF0010C4DF804CD4FEA410CF6
:100978007FEA6C5C4FEA430C18BF7FEA6C5C1BD0C3
:1009880001B050EA410C0CBF52EA430C91EA030F44
:1009980002BF90EA020F0020704710F1000F91EAA1
:1009A800030F58BF994208BF90422CBFD8176FEA6F
:1009B800E37040F0010070474FEA410C7FEA6C5C3D
:1009C80002D150EA013C07D14FEA430C7FEA6C5C44
:1009D800D6D152EA033CD3D05DF8040B704700BF70
:1009E8008446104662468C461946634600E000BFBE
:1009F80001B5FFF7B7FF002848BF10F1000F01BD90
:100A08004DF808EDFFF7F4FF0CBF012000205DF85A
:100A180008FB00BF4DF808EDFFF7EAFF34BF0120DF
:100A280000205DF808FB00BF4DF808EDFFF7E0FF78
:100A380094BF012000205DF808FB00BF4DF808EDC9
:100A4800FFF7CEFF94BF012000205DF808FB00BF30
:100A58004DF808EDFFF7C4FF34BF012000205DF812
:100A680008FB00BF4FEA410212F5001215D211D55A
:100A78006FF47873B3EB625212D94FEAC12343F093
:100A8800004343EA505311F0004F23FA02F018BF15
:100A9800404270474FF00000704750EA013005D1DE
:100AA80011F0004008BF6FF0004070474FF00000A1
:100AB800704700BF4FEA4102B2F1E04324BFB3F5EB
:100AC800001CDCF1FE5C0DD901F0004C4FEAC002BD
:100AD8004CEA5070B2F1004F40EB830008BF20F0A1
:100AE8000100704711F0804F21D113F13872BCBF5B
:100AF80001F00040704741F480114FEA5252C2F1B0
:100B08001802C2F1200C10FA0CF320FA02F018BFF8
:100B180040F001004FEAC1234FEAD32303FA0CFC4B
:100B280040EA0C0023FA02F34FEA4303CCE77FEADA
:100B3800625307D150EA01331EBF4FF0FE4040F424
:100B48004000704701F0004040F0FE4040F40000D3
:100B5800704700BF10B504460E4B18784FF47A73EF
:100B6800B3FBF0F30C4A1068B0FBF3F000F09EF80A
:100B780068B90F2C01D9012010BD002221464FF081
:100B8800FF3000F057F8054B1C60002010BD012015
:100B980010BD00BF0000002010000020040000204D
:100BA80008B5074A136843F010031360032000F0E8
:100BB8002FF80020FFF7CEFF02F07EFC002008BDD2
:100BC80000200240034A1168034B1B780B44136052
:100BD800704700BF3800002000000020014B186853
:100BE800704700BF3800002038B50446FFF7F6FF0D
:100BF8000546B4F1FF3F02D0044B1B781C44FFF7B5
:100C0800EDFF401B8442FAD838BD00BF0000002029
:100C1800074AD36823F4E0631B041B0C43F0BF634B
:100C280043F40033000200F4E0600343D3607047EC
:100C380000ED00E030B4154BDC68C4F30224C4F1C5
:100C48000703042B28BF0423251D062D8CBFE51E92
:100C58000025012404FA03F3013B1940A940AC40E4
:100C6800013C22401143002809DB0901C9B200F107
:100C7800604000F5614080F8001330BC704700F018
:100C88000F000901C9B2024B1954F6E700ED00E064
:100C980014ED00E0420900F01F00012303FA00F000
:100CA800014B43F82200704700E100E00138B0F141
:100CB800807F0AD2064B5860F021064A82F823103A
:100CC8000020986007221A6070470120704700BF13
:100CD80010E000E000ED00E00428044A13680CBFAF
:100CE80043F0040323F004031360704710E000E0AE
:100CF800704708B5FFF7FCFF08BD704710B483B014
:100D0800002401940068019051B1019914310A44FA
:100D18000192019A1360002003B05DF8044B7047FC
:100D2800019908310A440192F3E74379012B29D04C
:100D380010B40123437102220271026814688B40C7
:100D48002343136091B90268136803F03C033C2BFA
:100D580007D0012303710023437118465DF8044B43
:100D68007047536843F001035360F2E70268136861
:100D780003F47013B3F5701FEBD1536843F002030B
:100D88005360E6E702207047704710B504460368D1
:100D98001A6812F4005F03D05A6B12F4005F09D18D
:100DA80023681A6812F0005F03D05A6B12F0005FD4
:100DB80011D110BD04220271026942F001020261E0
:100DC8004FF400525A630268136823F48053136087
:100DD800FFF793FFE4E704222271226942F002023E
:100DE80022614FF000525A632268136823F080533F
:100DF80013602046FFF7C8FFDBE708B590F82130FD
:100E0800022B03D004238363012008BD0268136802
:100E180023F00E0313600268136823F001031360C4
:100E2800C16B0122036C02FA03F34B6080F82120A6
:100E3800002380F82030436B13B19847002008BD89
:100E4800002008BD38B5C36B1A6804682568016CB2
:100E580004238B40134214D015F0040F11D02368DB
:100E680013F0200F03D1236823F004032360C26B1F
:100E7800016C04238B405360C36A002B3AD0984717
:100E880038BD02238B40134219D015F0020F16D03B
:100E9800236813F0200F06D1236823F00A03236088
:100EA800012380F82130C26B016C02238B40536010
:100EB800002380F82030836AE3B1984738BD0823BF
:100EC80003FA01F1114215D015F0080F12D023686A
:100ED80023F00E032360C16B0123026C03FA02F2B4
:100EE8004A60836380F82130002380F82030036B48
:100EF80003B1984738BD00002DE9F04F83B00C6866
:100F0800002C00F0B78000264FF0010E4FF00309C7
:100F1800DFF870C14FF00F0A584F53E0F20800EBAA
:100F28008202146A06F007034FEA830B0AFA0BF3EE
:100F380024EA03040B6903FA0BF3234313624BE01F
:100F4800836802EA030BCB68A34043EA0B03836080
:100F5800436823EA050B4B68C3F30015B54045EA1F
:100F68000B0545604CE00022A2402A439A603B688A
:100F78006FEA08044A6812F4803F0CBF234048EA2D
:100F880003033B607A684B6813F4003F0CBF2240B0
:100F980048EA02027A60BA684B6813F4801F0CBFF3
:100FA800224048EA0202BA60FB684A6812F4001F4D
:100FB8000CBF234048EA0303FB6001360C6834FA8F
:100FC80006F357D00EFA06F515EA0408F5D04B6873
:100FD80023F01003022BA1D00368740009FA04F26D
:100FE800D24303EA020B4B6803F00303A34043EA2E
:100FF8000B0303604B6823F01003013B012B9FD9BF
:10100800C3681A408B6803FA04F41443C4604B683D
:1010180013F0805FD1D0DCF8183043F00103CCF82E
:101028001830DCF8183003F001030193019B26F017
:10103800030303F1804303F580339D6806F0030240
:1010480094000AFA04F225EA0205B0F1904F8AD01A
:101058000B4A90420AD002F58062904208D002F50D
:10106800806290420CBF032205227DE772467BE72F
:10107800022279E703B0BDE8F08F00BF0004014009
:1010880000040048001002400AB98162704781617B
:10109800704743695940416170470000002861D09A
:1010A80010B582B0044690F83230DBB2052B5BD025
:1010B80090F83230DBB2022B58D02E4B9A6942F0AE
:1010C80001029A619B6903F001030193019B90F867
:1010D80032300BB980F83130204602F035FA6368B7
:1010E80023F02002402A24D022681168A068034314
:1010F800E06803432069034360690343A06903432D
:10110800E0690343206A0343606A0343A06A43EA31
:10111800C043E06A43EA006317480840034313608A
:1011280094F8323023BB012384F83230002002B017
:1011380010BD21680868E268134322691343A26955
:101148001343E2691343226A1343626A1343A26A90
:1011580043EAC243E26A43EA0263074A024013438E
:101168000B60DDE7012070470120E0E70120DEE7A2
:101178000020DCE700100240113800E0A8B190F828
:101188003230DBB2052B12D090F83230DBB2012BB3
:1011980001D00120704701680B6843F001030B6020
:1011A800042380F832300020704701207047012066
:1011B8007047002800F0B4802DE9F843044690F801
:1011C8003230DBB2052B00F0AD8090F83230DBB264
:1011D800012B02D00120BDE8F8830268136843F0B0
:1011E800020313600268136843F4802313600268E3
:1011F800136843F4006313600268136843F44053B0
:1012080013600268136843F001031360042708267B
:1012180010254FF002082268136823F0F85343EAB8
:10122800056313604046FFF7DFFC23681A6812F075
:10123800804F14BFAD19AD1B7608013FEBD11A687A
:1012480022F0F85242EA05621A600220FFF7CCFC4D
:1012580023681A6812F0804F06D001351A6822F008
:10126800F85242EA05621A602268136823F4405370
:1012780043F4805313604FF00408082710264FF0FA
:1012880002092268136823F4780343EAC64313600B
:101298004846FFF7A9FC23681A6812F0804F14BF6C
:1012A800F619F61B7F08B8F10108EAD11A6822F48A
:1012B800780242EAC6421A600220FFF795FC2368CA
:1012C8001A6812F0804F06D001361A6822F47802A4
:1012D80042EAC6421A602268136823F40063136066
:1012E8002268136823F0010313602268136823F04F
:1012F80002031360E562A6624FF4802363622268EA
:10130800136823F4780343EAC64616602268136814
:1013180023F0F85343EA056515600020BDE8F8831B
:10132800012070470120BDE8F8830000002800F084
:10133800E4822DE9F04383B00446036813F0010FFB
:1013480062D0B34B5B6803F00C03042B45D0B04B61
:101358005B6803F00C03082B3AD06368B3F5803F51
:1013680000F08D80002B40F0908003F1804303F55E
:1013780004331A6822F480321A601A6822F4802230
:101388001A60A34AD36A23F00F03A1680B43D36200
:101398006368002B00F09380FFF720FC80464FF431
:1013A80000359B4F012695FAA5F33A6895FAA5F3FF
:1013B800B3FA83F303F01F0306FA03F3134223D1AE
:1013C800FFF70CFCA0EB08006428ECD903209DE291
:1013D8008F4B5B6813F4803FBFD04FF4003393FA10
:1013E800A3F38B4B19684FF4003393FAA3F3B3FAC2
:1013F80083F303F01F03012202FA03F30B4203D025
:101408006368002B00F07B82236813F0020F00F062
:101418009A807F4B5B6813F00C0F71D07C4B5B6834
:1014280003F00C03082B66D02369002B00F0C98059
:10143800012292FAA2F3B3FA83F303F1845303F57A
:1014480084139B001A60FFF7C9FB80460225704F82
:10145800012695FAA5F33A6895FAA5F3B3FA83F34A
:1014680003F01F0306FA03F3134240F09C80FFF7D2
:10147800B5FBA0EB08000228EBD9032046E2644A3A
:10148800136843F4803313607BE7B3F5A02F09D0CA
:101498005F4B1A6822F480321A601A6822F480229C
:1014A8001A606EE703F18043A3F53C331A6842F4EF
:1014B80080221A601A6842F480321A6061E7FFF7E6
:1014C8008DFB80464FF40035514F012695FAA5F360
:1014D8003A6895FAA5F3B3FA83F303F01F0306FA03
:1014E80003F3134290D0FFF779FBA0EB08006428C0
:1014F800ECD903200AE2464B5B6813F4803F93D192
:10150800022393FAA3F3424B1968022393FAA3F335
:10151800B3FA83F303F01F03012202FA03F30B4229
:1015280004D02369934201D00120EFE138480168D3
:10153800F82393FAA3F3B3FA83F26369934021F093
:10154800F80213430360236813F0080F00F08D803E
:10155800A369002B60D0012191FAA1F2B2FA82F2BC
:101568002C4B13449B001960FFF738FB804602257B
:10157800274F012695FAA5F395FAA5F395FAA5F351
:101588007A6A95FAA5F3B3FA83F303F01F0306FA10
:1015980003F3134269D1FFF721FBA0EB08000228EF
:1015A800E8D90320B2E11A480168F82393FAA3F3B3
:1015B800B3FA83F26369934021F0F802134303609E
:1015C800C1E7012393FAA3F3B3FA83F303F1845336
:1015D80003F584139B0000221A60FFF7FFFA804688
:1015E80002250B4F012695FAA5F33A6895FAA5F35B
:1015F800B3FA83F303F01F0306FA03F31342A2D0EE
:10160800FFF7ECFAA0EB08000228ECD903207DE1F3
:101618000010024020819010012292FAA2F2B2FA40
:1016280082F2BD4B13449B0000221A60FFF7D6FAE2
:1016380080460225B94F012695FAA5F395FAA5F338
:1016480095FAA5F37A6A95FAA5F3B3FA83F303F04A
:101658001F0306FA03F3134207D0FFF7BFFAA0EB04
:1016680008000228E8D9032050E1236813F0040F8A
:1016780000F0AA80A94BDB6913F0805F2BD1A74B40
:10168800DA6942F08052DA61DB6903F08053019332
:10169800019B4FF00109A24B1B6813F4807F1DD0FA
:1016A800E368012B2ED0002B32D103F1804303F5E0
:1016B80004331A6A22F001021A621A6A22F004023A
:1016C8001A62E368002B57D0FFF788FA8046022594
:1016D800924F012646E04FF00009DCE7904A136874
:1016E80043F480731360FFF779FA06468C4D2B6834
:1016F80013F4807FD4D1FFF771FA801B6428F6D9E0
:10170800032003E1854A136A43F001031362D8E713
:10171800052B09D0814B1A6A22F001021A621A6A53
:1017280022F004021A62CCE77C4B1A6A42F00402E7
:101738001A621A6A42F001021A62C2E73A6A95FA14
:10174800A5F3B3FA83F303F01F0306FA03F3134276
:1017580037D1FFF743FAA0EB080041F288339842EB
:1017680000F2CF8095FAA5F395FAA5F3002BE5D101
:1017780095FAA5F37A6AE2E7FFF730FA8046022580
:10178800664F012613E03A6A95FAA5F3B3FA83F394
:1017980003F01F0306FA03F3134212D0FFF71EFAF1
:1017A800A0EB080041F28833984200F2AC8095FA29
:1017B800A5F395FAA5F3002BE5D195FAA5F37A6A76
:1017C800E2E7B9F1000F34D1E369002B00F09D8006
:1017D800524A526802F00C02082A00F09A80022B42
:1017E8002DD04FF0807393FAA3F3B3FA83F303F188
:1017F800845303F584139B0000221A60FFF7EEF967
:1018080007464FF00074454E012594FAA4F3326858
:1018180094FAA4F3B3FA83F303F01F0305FA03F36E
:10182800134268D0FFF7DAF9C01B0228EDD903206C
:101838006CE03A4AD36923F08053D361C4E74FF090
:10184800807393FAA3F3B3FA83F303F1845303F594
:1018580084139B0000221A60FFF7C0F980464FF0FE
:1018680000752E4F012695FAA5F33A6895FAA5F367
:10187800B3FA83F303F01F0306FA03F3134207D006
:10188800FFF7ACF9A0EB08000228ECD903203DE0F3
:1018980022494A68636A206A034322F47412134394
:1018A8004B604FF0807393FAA3F3B3FA83F303F119
:1018B800845303F584139B0001221A60FFF78EF905
:1018C80007464FF00074154E012594FAA4F33268C8
:1018D80094FAA4F3B3FA83F303F01F0305FA03F3AE
:1018E800134206D1FFF77AF9C01B0228EDD903206D
:1018F8000CE000200AE0002008E0012070470120E9
:1019080004E0032002E0032000E0002003B0BDE86B
:10191800F0830120FAE700BF2081901000100240F8
:101928000070004070B586B00D461646022302933B
:1019380003230493002303934FF4807201920593C9
:101948000B4C636943F400336361636903F4003348
:101958000093009B01A94FF09040FFF7CDFA616812
:1019680021F0EE4131432943616006B070BD00BFEC
:1019780000100240144B5B6803F00C02082A21D1C6
:101988004FF4701292FAA2F2B2FA82F203F47011D2
:1019980021FA02F20D49885C0B4AD26A0F2191FAAA
:1019A800A1F1B1FA81F102F00F02CA4008498A5C3C
:1019B80013F4803F1ABF074BB3FBF2F3064B03FB4C
:1019C80000F070470348704700100240C048000804
:1019D800D048000800127A0000093D00002800F0F5
:1019E800C8802DE9F0410446644B1B6803F00703E7
:1019F8008B420DD2614A136823F007030B4313602F
:101A0800136803F00703994202D00120BDE8F08172
:101A1800236813F0020F06D0594A536823F0F003E5
:101A2800A068034353600D46236813F0010F5ED08E
:101A38006268012A2FD0022A43D0022393FAA3F323
:101A48004F4B1868022393FAA3F3B3FA83F303F016
:101A58001F03012101FA03F3034200F08C80484977
:101A68004B6823F0030313434B60FFF7B7F8804636
:101A7800434E41F28837736803F00C036268B3EB96
:101A8800820F34D0FFF7AAF8A0EB0800B842F2D9C9
:101A98000320BDE8F0814FF4003393FAA3F3384BE9
:101AA80018684FF4003393FAA3F3B3FA83F303F0FF
:101AB8001F03012101FA03F30342D0D10120BDE83D
:101AC800F0814FF0007393FAA3F32D4B18684FF091
:101AD800007393FAA3F3B3FA83F303F01F0301210E
:101AE80001FA03F30342BAD10120BDE8F081234B88
:101AF8001B6803F007039D420DD2204A136823F0A8
:101B080007032B431360136803F007039D4202D0B9
:101B18000120BDE8F081236813F0040F06D0184AAD
:101B2800536823F4E063E1680B435360236813F0C0
:101B3800080F07D0124A5368216923F4605343EA17
:101B4800C1035360FFF716FF0D4B5B68F02292FA52
:101B5800A2F2B2FA82F203F0F003D340094AD35C4E
:101B6800D840094B18600020FEF7F4FF0020BDE8BC
:101B7800F081012070470120BDE8F081002002407B
:101B880000100240784A000810000020014B186835
:101B9800704700BF10000020084B5B684FF4E062FC
:101BA80092FAA2F2B2FA82F203F4E063D340044A52
:101BB800D35C044A1068D840704700BF0010024048
:101BC800884A000810000020022380F83D3002688F
:101BD800136843F001031360012380F83D300020AF
:101BE800704770477047704770477047704710B527
:101BF800044603681A6912F0020F11D0DA6812F06D
:101C0800020F0DD06FF002021A61012303770368F7
:101C18009B6913F0030F79D0FFF7E6FF00232377C2
:101C280023681A6912F0040F12D0DA6812F0040F50
:101C38000ED06FF004021A610223237723689B6990
:101C480013F4407F68D02046FFF7CEFF00232377A8
:101C580023681A6912F0080F12D0DA6812F0080F18
:101C68000ED06FF008021A61042323772368DB691A
:101C780013F0030F57D02046FFF7B6FF0023237752
:101C880023681A6912F0100F12D0DA6812F0100FD8
:101C98000ED06FF010021A61082323772368DB69DE
:101CA80013F4407F46D02046FFF79EFF002323779A
:101CB80023681A6912F0010F03D0DA6812F0010FD5
:101CC8003FD123681A6912F0800F03D0DA6812F046
:101CD800800F3DD123681A6912F4807F03D0DA6837
:101CE80012F0800F3BD123681A6912F0400F03D01D
:101CF800DA6812F0400F39D123681A6912F0200F00
:101D080003D0DA6812F0200F37D110BDFFF76BFF50
:101D18002046FFF76AFF81E72046FFF764FF204669
:101D2800FFF763FF92E72046FFF75DFF2046FFF7C6
:101D38005CFFA3E72046FFF756FF2046FFF755FF55
:101D4800B4E76FF001021A612046FFF74BFFB8E7CE
:101D58006FF080021A61204600F0CFFBBAE76FF4FB
:101D680080721A61204600F0C9FBBCE76FF04002A0
:101D78001A612046FFF73AFFBEE76FF020021A61AA
:101D8800204600F0B9FBC0E703683C4A904221D0E6
:101D9800B0F1804F3FD0A2F59432904215D002F5B1
:101DA8009E3290423CD002F5806290424AD002F5C1
:101DB8008062904254D023F080034A691343036041
:101DC8008B68C3620B68836239E023F070034A684A
:101DD800134303E023F070034A68134323F440736A
:101DE800CA68134323F080034A69134303608B686E
:101DF800C3620B688362214B98421ED003F5A0533F
:101E080098421AD003F58063984216D003F5806390
:101E1800984214D111E023F070034A681343DDE7B8
:101E280023F44073CA68134323F080034A691343B9
:101E380003608B68C3620B6883620B6903630123C9
:101E48004361704723F44073CA68134323F0800347
:101E58004A69134303608B68C3620B688362ECE7CB
:101E680023F44073CA68134323F080034A69134379
:101E780003608B68C3620B688362DEE7002C014055
:101E8800A8B110B5044690F83D305BB1022384F840
:101E98003D30211D2068FFF777FF012384F83D308E
:101EA800002010BD80F83C3001F066FBEEE7012011
:101EB8007047A8B110B5044690F83D305BB10223D5
:101EC80084F83D30211D2068FFF75EFF012384F868
:101ED8003D30002010BD80F83C30FFF782FEEEE771
:101EE8000120704770B4036A23F001030362036A98
:101EF8004468826922F4803222F073020D682A4312
:101F080023F002038D682B431B4DA84212D005F520
:101F1800A055A8421BD005F58065A8421ED005F53E
:101F28008065A84221D0446082614A6842630362A6
:101F380070BC704723F00803CD682B4323F00403DB
:101F480024F440744D698E6935432C43EBE723F044
:101F58000803CD682B4323F00403F1E723F00803BB
:101F6800CD682B4323F00403EAE723F00803CD6888
:101F78002B4323F00403E3E7002C014070B4036A09
:101F880023F010030362036A4468826922F08072B6
:101F980022F4E6420D6842EA052223F020038D6808
:101FA80043EA0513114DA8420AD0114DA8420ED09C
:101FB800104DA8420BD005F58065A8420ED106E069
:101FC80023F08003CD6843EA051323F0400324F48B
:101FD80040644D698E69354344EA850444608261F2
:101FE8004A688263036270BC704700BF002C0140DE
:101FF800004001400044014070B4036A23F4807338
:102008000362036A4468C26922F4803222F07302D0
:102018000D682A4323F400738D6843EA0523114DA4
:10202800A8420AD0104DA8420ED0104DA8420BD09D
:1020380005F58065A8420ED106E023F40063CD685B
:1020480043EA052323F4806324F440544D698E69E0
:10205800354344EA05144460C2614A68C2630362B6
:1020680070BC7047002C0140004001400044014012
:1020780030B4036A23F480530362026A4468C36974
:1020880023F0807323F4E6430D6843EA052322F422
:1020980000528D6842EA05320D4DA8420BD005F575
:1020A800A055A84207D005F58065A84203D005F5DC
:1020B8008065A84204D124F480444D6944EA85141B
:1020C8004460C3614B680364026230BC704700BF60
:1020D800002C014010B4846824F47F440A4342EA87
:1020E8000323234383605DF8044B704790F83C302A
:1020F800012B00F0C08070B50446012380F83C3005
:10210800022380F83D30026890685C4B034093607E
:102118000B68402B00F0858021D9702B57D036D81A
:10212800502B64D0602B4BD123684D68CE68186A59
:1021380020F01000186299691A6A21F4704141EA86
:10214800063122F0A00242EA051299611A62226859
:10215800936823F0700343F06703936030E0102B1B
:1021680079D00BD9202B7ED0302B29D122689368C7
:1021780023F0700343F03703936021E003BB226828
:10218800936823F0700343F00703936018E0B3F5F6
:10219800805F0ED0B3F5005F12D1CB684A688968BA
:1021A8002068FFF797FF2268936843F480439360A1
:1021B80006E02268936823F4803323F007039360D2
:1021C800012384F83D30002084F83C0070BDCB68C2
:1021D8004A6889682068FFF77DFF2268936823F4BE
:1021E800803323F0770343F077039360E8E72368AD
:1021F8004868CE68196A1D6A25F001051D629A694A
:1022080022F0F00242EA061221F00A0101439A6123
:1022180019622268936823F0700343F057039360B0
:10222800CEE723684868CE68196A1D6A25F001055B
:102238001D629A6922F0F00242EA061221F00A01B0
:1022480001439A6119622268936823F0700343F08E
:1022580047039360B4E72268936823F0700343F060
:1022680017039360ACE72268936823F0700343F088
:1022780027039360A4E70220704700BF8800FEFF91
:1022880010B4036A01248C4023EA04030362036A3E
:102298008A401A4302625DF8044B704710B5044641
:1022A80001220068FFF7ECFF23680D4A93420BD028
:1022B80002F5A052934207D002F58062934203D000
:1022C80002F58062934203D15A6C42F400425A6488
:1022D8002268136843F001031360002010BD00BF9B
:1022E800002C014030B4036A23F480330362026A8D
:1022F8004468436D23F4803323F070030D682B4347
:1023080022F400328D6842EA05420D4DA8420BD0F6
:1023180005F5A055A84207D005F58065A84203D069
:1023280005F58065A84204D124F480344D6944EA57
:102338000524446043654B688365026230BC70477E
:10234800002C014030B4036A23F480130362026A4C
:102358004468436D23F0807323F4E0430D6843EA37
:10236800052322F400128D6842EA05520D4DA84259
:102378000BD005F5A055A84207D005F58065A84201
:1023880003D005F58065A84204D124F480244D6962
:1023980044EA8524446043654B68C365026230BCE7
:1023A800704700BF002C014090F83C30012B34D01E
:1023B80010B50446012380F83C30022380F83D30F4
:1023C800142A0FD8DFE802F00B0E0E0E150E0E0EB3
:1023D800190E0E0E1D0E0E0E210E0E0E2500006893
:1023E800FFF780FD012384F83D30002084F83C008D
:1023F80010BD0068FFF7C2FDF4E70068FFF7FCFDB9
:10240800F0E70068FFF734FEECE70068FFF76AFFC3
:10241800E8E70068FFF796FFE4E70220704700004E
:1024280090F83C30012B1FD030B4012380F83C30A9
:1024380004686368A2680D4DAC4210D023F07003A5
:102448000D682B4322F0800289680A4363600368A1
:102458009A60002380F83C30184630BC704723F45B
:1024680070034D682B43E9E702207047002C0140B8
:1024780090F83C30012B3BD010B4012380F83C305D
:10248800CB6823F440738A68134323F480634A6853
:10249800134323F400630A68134323F480530A693F
:1024A800134323F400534A6913438A6A23F44043CD
:1024B800134323F470238A6943EA024302680D4CEC
:1024C800A24207D05364002380F83C3018465DF8D8
:1024D800044B704723F470034C6A43EA045323F017
:1024E8008073CC69234323F00073096A0B43E9E73F
:1024F80002207047002C01407047704770470268FF
:10250800136823F4907313600268936823F001033F
:102518009360202380F86A3070477047704770478F
:1025280008B5406A0023A0F85A30A0F85230FFF7E7
:10253800F6FF08BD38B5044601680868A368226933
:10254800134362691343E2691343584A0240134331
:102558000B602268536823F44053E1680B435360CF
:1025680021688A68A369206A034322F4306213430E
:102578008B6025684E4B9D4214D04E4B9D426ED0C9
:1025880003F580639D426AD0E369B3F5004F5ED1DD
:102598000120002323F00F022168C3F342031343F1
:1025A800CB6038BD03F558431B6B03F00303032BC3
:1025B8004FD8DFE803F002303F1FE369B3F5004F5F
:1025C80051D1FFF7E9FA6268530803EB4003B3FB04
:1025D800F2F39BB20020DDE76268530803F5740349
:1025E80003F51053B3FBF2F39BB20020D2E70120AE
:1025F8000023CFE7E369B3F5004FEDD062685308D5
:1026080003F5F40303F59053B3FBF2F39BB2284AA6
:10261800D360002038BDE369B3F5004F2ED1FFF732
:10262800A9F96268530803EB4003B3FBF2F39BB2CA
:102638000020AFE7E369B3F5004F2BD16268530878
:1026480003F58033B3FBF2F39BB20020A2E701202D
:1026580038BDE369B3F5004FC9D0012038BDE3693F
:10266800B3F5004FADD0FFF797FA636800EB53005E
:10267800B0FBF3F080B2E860002038BDFFF77AF9CC
:10268800636800EB5300B0FBF3F080B2084BD860EE
:10269800002038BD6268530803F50043B3FBF2F32A
:1026A8009BB2034AD360002038BD00BFF369FFEF37
:1026B8000038014000440040436A13F0010F06D07F
:1026C8000268536823F40033816A0B435360436AFA
:1026D80013F0020F06D00268536823F48033C16AEE
:1026E8000B435360436A13F0040F06D00268536823
:1026F80023F48023016B0B435360436A13F0080FE4
:1027080006D00268536823F40043416B0B435360BF
:10271800436A13F0100F06D00268936823F48053BD
:10272800816B0B439360436A13F0200F06D0026855
:10273800936823F40053C16B0B439360436A13F00F
:10274800400F0AD00268536823F48013016C0B43CE
:102758005360036CB3F5801F0BD0436A13F0800FEE
:1027680006D00268536823F40023816C0B4353603E
:1027780070470268536823F4C003416C0B435360ED
:10278800EBE72DE9F04107460E4615469846069CAC
:102798003A68D36936EA03030CBF01230023AB422E
:1027A8001ED1B4F1FF3FF4D02CB1FEF717FAA0EB1D
:1027B80008008442ECD23A68136823F4D07313609B
:1027C8003A68936823F001039360202387F86930FF
:1027D80087F86A30002387F868300320BDE8F08165
:1027E8000020BDE8F08130B583B004460023C366FD
:1027F800FEF7F4F9054623681B6813F0080F0ED19D
:1028080023681B6813F0040F17D1202384F869305C
:1028180084F86A30002084F8680003B030BD6FF097
:102828007E430093034600224FF400112046FFF731
:10283800A8FF0028E4D00320EFE76FF07E43009361
:102848002B4600224FF480012046FFF79AFF00280C
:10285800DBD00320E1E778B310B5044690F869307F
:102868000BB3242384F869302268136823F001032A
:1028780013602046FFF75EFE01281FD0636ABBB9CC
:102888002268536823F4904353602268936823F0C6
:102898002A0393602268136843F0010313602046FB
:1028A800FFF7A1FF10BD80F8683000F095FED8E76B
:1028B8002046FFF701FFE3E70120704710BD90F8BD
:1028C8006930DBB2212B01D002207047B0F85230BA
:1028D8009BB28BB18368B3F5805F19D00268C36C73
:1028E800591CC1641B781385B0F85230013B9BB268
:1028F800A0F85230002070470268136823F0800364
:1029080013600268136843F04003136000207047A7
:102918000369002BE2D10268C36C1B88C3F3080368
:102928001385C36C0233C364DEE708B501680B681E
:1029380023F040030B60202380F86930FFF7EDFD9A
:10294800002008BD90F86A30DBB2222B06D002685E
:10295800936943F0080393610220704710B5B0F8FB
:102968005C1003689B8C9BB28268B2F5805F0DD0C7
:10297800426D541C44650B401370B0F85A30013B4B
:102988009BB2A0F85A305BB1002010BD0269002A42
:10299800EED1426D0B401380436D02334365ECE783
:1029A8000268136823F4907313600268936823F035
:1029B80001039360202380F86A30FFF7AFFD002001
:1029C80010BD000038B504460268D369116813F0D9
:1029D8000F0F48D113F0200F02D011F0200F13D1A0
:1029E800906813F4801F02D010F4800F27D113F0E1
:1029F800800F02D011F0800F2DD113F0400F02D0BC
:102A080011F0400F2BD138BDFFF79CFF38BD13F0F4
:102A1800040F4FD0002D4DD045E02046FFF792FF20
:102A28005EE02046FFF77BFD38BD2046FFF777FDC7
:102A380038BD2046FFF773FD0023E36638BD4FF429
:102A480080131362202384F8693084F86A302046A2
:102A580000F06CF838BD2046FFF731FF38BD20463E
:102A6800FFF763FF38BD906810F0010502D111F43B
:102A7800907FB6D013F0010F07D011F4807F04D0F7
:102A880001201062E26E0243E26613F0020FBED02C
:102A980085B1226802201062E26E42F00402E2660A
:102AA80013F0040F06D0226804201062E26E42F090
:102AB8000202E26613F0080F09D011F0200F00D1CE
:102AC8002DB1226808201062E26E0243E266E26ECF
:102AD800002A98D013F0200F02D011F0200F9CD1BB
:102AE800E36E13F0080F04D123689B6813F0400FBE
:102AF8009FD02046FFF703FD23689A6812F0400F25
:102B080093D09A6822F040029A60636E002B88D0B6
:102B1800054A5A63606EFEF770F900283FF473AFF8
:102B2800606E436B984738BD292500087047000040
:102B3800054B1870054B19700022054B1A600122CD
:102B4800044B1A60704700BF40000020600200205C
:102B5800680200206C0200200023024A1360024A27
:102B6800136070473C000020640200200022044BE0
:102B78001A600123034A1360034A1360704700BFB9
:102B8800700200207C0200203C00002008B5554B54
:102B98001B6840F24F2293426BD0B3F5147F17D3D2
:102BA80040F22242934277D035D940F2E242934232
:102BB80000F0818040F2D662934200F0868040F2B5
:102BC800B242934240F088800022474B1A6008BD09
:102BD800E02B3BD008D8012B2AD0912B03D100221F
:102BE800414B1A6008BD08BDB3F5B87F3DD040F22F
:102BF800BF1293420ED13D4B1B7803EB83033C4A33
:102C080013449A783B4B1A70FF223B4B1A60FFF72C
:102C1800ADFF08BD08BD40F2433293422DD040F2CB
:102C2800D332934203D100222F4B1A6008BD08BD4E
:102C38002E4B1B7803EB83032D4AD25C2D4B1A7065
:102C4800AA222D4B1A60FFF791FF08BD274B1B786E
:102C580003EB8303264A13445A78264B1A70FF2243
:102C6800254B1A60FFF782FF08BD00221E4B1A6031
:102C780008BD00221C4B1A6008BD1C4B1B7803EBD7
:102C880083031B4A1344DA781A4B1A70FF221A4B33
:102C98001A60FFF76BFF08BD144B1B7803EB830327
:102CA800134A13441A79134B1A70FF22124B1A60F5
:102CB800FFF75CFF08BD114B1B68022B0CD10023EA
:102CC8000E4A1360074A136008BD0C4B1B68012BA2
:102CD80003D00022034B1A6008BD0222074B1A607A
:102CE800F7E700BF680200207C0200206002002095
:102CF800484A000878020020740200206C02002074
:102D080008B52C4B1B6840F29522934244D015D845
:102D1800DD2B2ED040F2B91293422ED0012B48D190
:102D2800254B1B7803EB8303244AD25C244B1A708F
:102D3800AA22244B1A60FFF719FF08BD40F24D4242
:102D480093422DD040F27F4293422DD040F271320F
:102D580093422ED1184B1B7803EB8303174A134475
:102D68009A78174B1A70FF22164B1A60FFF7FEFE6F
:102D780008BD0022144B1A6008BD0F4B1B7803EBEB
:102D880083030E4A13445A780D4B1A70FF220D4BD9
:102D98001A60FFF7EBFE08BD00220B4B1A6008BD56
:102DA8000022094B1A6008BD0023084A1360014A33
:102DB800136008BD6802002060020020484A00082D
:102DC80078020020740200207C0200206C0200209F
:102DD80008B5204B1B6840F20922934227D00AD835
:102DE800012B16D040F20512934203D100221A4B50
:102DF8001A6008BD08BD40F20D32934226D0B3F5E3
:102E08004C7F05D10023154A1360124A136008BD90
:102E180008BD134B1B7803EB8303124AD25C124B99
:102E28001A70AA22114B1A60FFF7A0FE08BD0C4BBE
:102E38001B7803EB83030B4A13445A780A4B1A7026
:102E4800FF220A4B1A60FFF791FE08BD0022024BD1
:102E58001A6008BD680200207C0200206C02002075
:102E680060020020484A000878020020740200200E
:102E780008B5114B1B68B3F57A7F0CD040F20B42B2
:102E880093420CD0012B00D008BDFF220B4B1A60D7
:102E9800FFF76CFE08BD0022094B1A6008BD094BFC
:102EA800FF221A705A709A70DA701A710023064A53
:102EB8001360014A1360E7E76802002074020020EB
:102EC8007C020020080000206C020020164B1B68C2
:102ED80063B1164B1B68164A1268934202DB134B08
:102EE8001A6070470A33114A136070470F4B1B680A
:102EF800002B0EDD0F4A12783AB90F3B0B4A1360CC
:102F08000A4B1B68002B04DD70470A3B074A136015
:102F1800F6E7094B1B68002BF6D00022034B1A601A
:102F28000122064B1A6070477C02002070020020C4
:102F380074020020400000203C00002064020020B1
:102F48002DE9F84F2DED028B2D4DDFF8BCA005F5CE
:102F5800B47B00262B4F4FF0000904E00AF13C0A2D
:102F68004546C3453BD005F1280854461EA3D3E97E
:102F78000023F5E80201FDF705FCFDF79BFDFDF7D1
:102F880083FA1BA3D3E90023FDF7D2FA41EC180B0F
:102F980041EC100B00F0FCFB32463B4651EC100BA9
:102FA800FDF7C6FAFDF75EFD2080C4F80490B0EE88
:102FB800480AF0EE680A00F02FFC0FA3D3E90023BB
:102FC80051EC100BFDF7B4FA32463B46FDF7B0FA68
:102FD800FDF748FDA0600C344545C7D1BEE7BDEC00
:102FE800028BBDE8F88F00BF00000000006AD840DF
:102FF8004AD8124DFB2119400000000000C0624071
:10300800E04800080000E04044000020F8B5274BE5
:10301800D3F800E000F10C01254D4830002451F8A8
:1030280008CC31F90C2CD3176646F71702FB07F6C4
:103038000CFB0363A2FB0C671F44B30B43EA8743F3
:1030480051F8042C9B1A41F804CC41F8083C15F8B7
:10305800012B0EFB02F2121203FB02F304EB2324F2
:103068000C318142DBD1134DC4F30B03002211460E
:103078002846FDF743FE00212846FDF756FE002CA2
:1030880003DB0D4B1B68002B02DD0B4B1C60F8BDEE
:103098000A4B1B68002BF8D0094B1B68002BF4D196
:1030A800084A1360054A1360EFE700BF700200206A
:1030B80008000020B4020020300000206402002034
:1030C8007C0200203C00002008B51A4B1B6833B96D
:1030D800194A136801331360192B0AD008BD174B1E
:1030E8001878C0EB0010164B03EB8000FFF78EFF3B
:1030F800EEE7144B1B684BB1134B1B78032B05D819
:10310800DFE803F0020E1114FFF740FD00220A4B1E
:103118001A600E4A136801331360FFF7D7FEDDE724
:10312800FFF7EEFDF2E7FFF753FEEFE7FFF7A0FE2C
:10313800ECE700BF3C0000203400002078020020AB
:10314800440000206C02002040000020680200209B
:1031580082B00F4B009300230193019B132B15DCC6
:103168000C49019ADDED017A9DED007AF8EEE77AD7
:1031780067EE877AFCEEE77A17EE903A21F812307C
:10318800019B01330193019B132BEADD02B07047C9
:1031980000004C43BC03002008B5FFF7DDFCFFF737
:1031A800CFFE08BD00B591B00223069301220A9212
:1031B80010220B920D9300230E934FF430130F93AC
:1031C80006A8FEF7B3F840BB0F2301930221029132
:1031D800002303934FF480620492059301A8FEF73D
:1031E800FDFBD8B94FF0E0424FF080610020FEF7B8
:1031F80099FBFEF7CBFC0A4BA3FB00308009FDF7D7
:1032080055FD0420FDF768FD002211464FF0FF3000
:10321800FDF710FD11B05DF804FBFEE7FEE700BF07
:10322800D34D62102DE9F0419EB0FDF7B9FCFFF7D0
:10323800B9FF974D6B6943F480036B616B6903F4C5
:1032480080030293029B6B6943F400336B616B69E3
:1032580003F400330393039B6B6943F480236B618E
:103268006B6903F480230493049B8A4E002208218F
:103278003046FDF709FF4FF00208CDF84C800327D0
:1032880014970024159413A98348FDF735FE40F6DA
:10329800236313931497159413A94FF09040FDF7E7
:1032A8002BFEF32313931497159413A93046FDF7B7
:1032B80023FE4FF480731393CDF850801594169421
:1032C800179413A94FF09040FDF716FE4FF4805362
:1032D80013931494159413A94FF09040FDF70CFE26
:1032E80008231393012314931594169413A93046B5
:1032F800FDF702FE6B6943F001036B616B6903F034
:1033080001030193019B224621460D20FDF792FC03
:103318000D20FDF7BFFC6148614B036060234360EB
:103328000C23C36004614FF4802343628462C46247
:10333800FDF7B4FE002840F0A1805848FDF739FF9A
:10334800002840F09C805748574B03604FF41643C1
:10335800436000238360C36003610C224261836180
:10336800C36103624362FFF776FA002840F0888061
:103378004E484F4B036000234360836040F61F02B2
:10338800C2600361436180238361FEF779FD0028F1
:1033980077D11EA94FF4805341F8583D4348FEF7B2
:1033A800A5FE00286ED14148FEF783FD00286AD1AA
:1033B800202305930023079305A93C48FFF730F81D
:1033C800002861D130230C9301230D9300230E9321
:1033D8000F9310934FF480721192129304220CA948
:1033E8003248FEF7E1FF00284FD1002313931493CE
:1033F8001593169317934FF40052189219931D932F
:1034080013A92A48FFF734F800283FD1274C204653
:1034180000F0C8F8002211461820FDF70BFC182010
:10342800FDF738FC002211462620FDF703FC262074
:10343800FDF730FCFFF78CFE1E4B1A68136843F04B
:1034480001031360FFF7A8FE1448FDF797FE042157
:103458002046FEF723FF2046FEF7B6FB0621002094
:10346800FFF766FB4FF496760A4D08243046FDF7C1
:10347800BBFB21462846FDF70CFEF7E7FEE7FEE713
:10348800FEE7FEE7FEE7FEE7FEE7FEE7FEE700BF32
:103498000010024000040048001400488002002088
:1034A8003C0001404C03002000440040C8020020BA
:1034B80000400140B402002000B583B0214B9A6956
:1034C80042F001029A619A6902F001020092009AA0
:1034D800DA6942F08052DA61DB6903F080530193C4
:1034E800019B0320FDF794FB002211466FF00B00AF
:1034F800FDF7A0FB002211466FF00A00FDF79AFBCA
:10350800002211466FF00900FDF794FB00221146D6
:103518006FF00400FDF78EFB002211466FF00300E8
:10352800FDF788FB002211466FF00100FDF782FBD2
:10353800002211464FF0FF30FDF77CFB03B05DF829
:1035480004FB00BF0010024002680A4B9A4200D0F8
:10355800704700B587B0C02301930323029300236B
:10356800039301A94FF09040FDF7C6FC07B05DF842
:1035780004FB00BF3C0001400268094B9A4200D09E
:10358800704782B003F550439A6942F480329A61D9
:103598009B6903F480330193019B02B0F0E700BFFD
:1035A8000040014002680B4B9A4200D0704700B5BA
:1035B80087B0082301930223029300230393049303
:1035C8000923059301A94FF09040FDF795FC07B03A
:1035D8005DF804FB004001400268124B9A4200D09B
:1035E800704700B587B003F5E633DA6942F4003274
:1035F800DA61DB6903F400330093009B48F20403AB
:1036080001930223029300230393032304930723C4
:10361800059301A94FF09040FDF76EFC07B05DF8E7
:1036280004FB00BF004400407047FEE7FEE7FEE7EA
:10363800FEE770477047704708B5FDF7C3FAFDF716
:1036480058FB08BD08B50248FDF7FCFB08BD00BFE4
:103658000803002008B5FFF737FD0248FEF7C7FA50
:1036680008BD00BFC802002008B50248FFF7AAF944
:1036780008BD00BF4C03002008B50248FDF785FBD4
:1036880008BD00BFB40200201549D1F8883043F4C2
:103698007003C1F88830134B1A6842F001021A60AF
:1036A8005868114A02405A601A6822F0847222F45B
:1036B80080321A601A6822F480221A605A6822F44A
:1036C800FE025A60DA6A22F00F02DA62186B074AC1
:1036D80002401A6300229A604FF000638B607047C3
:1036E80000ED00E0001002400CC07FF8CCFC00FFA9
:1036F800DFF834D0002103E00C4B5B584350043111
:103708000B480C4B42189A42F6D30B4A02E00023AE
:1037180042F8043B094B9A42F9D3FFF7B5FF00F092
:1037280011F8FFF77FFDFEE700300020704C00081D
:10373800000000201400002014000020E4030020F2
:10374800FEE7000070B50D4E0D4CA41BA41000251B
:10375800A54209D10B4E0C4C01F0A2F8A41BA410F1
:103768000025A54205D170BD56F82530984701358A
:10377800EEE756F8253098470135F2E7684C00081F
:10378800684C0008684C00086C4C000800000000F9
:103798001FB551EC100B1E4A21F00043934206DC82
:1037A8009FED191B00F074FA51EC100B07E0194A51
:1037B800934209DD10EE102A0B46FCF705FD41EC9B
:1037C800100B05B05DF804FB684600F06DF800F0DA
:1037D800030001289DED021B9DED000B07D0022878
:1037E8000ED00028DED0012000F08AFEDCE700F0D1
:1037F80087FE53EC102B10EE100A03F10041DEE7B0
:1038080000F046FAF5E700BF0000000000000000E5
:10381800FB21E93FFFFFEF7F1FB551EC100B204A5A
:1038280021F00043934207DC9FED1B1B002000F0B2
:1038380067FE51EC100B07E01A4A934209DD10EEBF
:10384800102A0B46FCF7C0FC41EC100B05B05DF8E4
:1038580004FB684600F028F800F0030001289DEDFD
:10386800021B9DED000B04D0022805D070B9012081
:10387800DDE700F00DFADCE7012000F041FE53EC33
:10388800102B10EE100A03F10041DDE700F000FAFA
:10389800F5E700BFAFF30080000000000000000063
:1038A800FB21E93FFFFFEF7F2DE9F04F57EC106B4D
:1038B800C34B8DB027F0004898450446049707DCB1
:1038C8000022002384ED000BC0E90223002527E035
:1038D800BC4B984575DC049BBB4D002B10EE100AC1
:1038E800A9A3D3E90023394636DDFCF76DFCA845CA
:1038F80006460F4618D0A6A3D3E90023FCF764FCBC
:1039080002460B46C4E9002330463946FCF75CFC06
:103918009FA3D3E90023FCF757FCC4E90201012562
:1039280028460DB0BDE8F08F9BA3D3E90023FCF730
:103938004BFC9BA3D3E9002306460F46FCF744FC47
:1039480002460B46C4E9002330463946FCF73CFCE6
:1039580093A3D3E90023DEE7FCF738FCA845064625
:103968000F4616D08AA3D3E90023FCF72FFC0246A2
:103978000B46C4E9002330463946FCF725FC84A3EE
:10398800D3E90023FCF722FC4FF0FF35C4E902011C
:10399800C6E781A3D3E90023FCF718FC80A3D3E989
:1039A800002306460F46FCF711FC02460B46C4E905
:1039B800002330463946FCF707FC79A3D3E90023F6
:1039C800E0E7824B984500F3D08000F053FE57ECB7
:1039D800106B10EE100A74A3D3E900233946FCF7E4
:1039E800A7FD00227A4BFCF7F1FBFDF73BF80546F3
:1039F800FCF738FD64A3D3E90023CDE90201FCF705
:103A080097FD02460B4630463946FCF7DDFB60A3BE
:103A1800D3E9002382468B46DDE90201FCF788FDE5
:103A28001F2D06460F462ADC6A1E6A4B53F82230C1
:103A3800984524D032463B4650465946FCF7C4FBCD
:103A4800C4E90001D4E90089504642464B4659462C
:103A5800FCF7BAFB3B463246FCF7B6FB049B002B4F
:103A6800C4E90201BFF65CAF09F100436360C4F822
:103A78000080A06001F10043E3606D4250E73246E8
:103A88003B4650465946FCF79FFB4FEA2852C1F384
:103A98000A53D31A102BC4E900010592D2DD3EA3C4
:103AA800D3E90023DDE90201FCF742FD06460F4693
:103AB80002460B4650465946FCF786FB02460B4623
:103AC8008046894650465946FCF77EFB32463B46BF
:103AD800FCF77AFB32A3D3E9002306460F46DDE95B
:103AE8000201FCF725FD32463B46FCF76DFB02461A
:103AF8000B4606460F4640464946FCF765FB059AC5
:103B0800C1F30A53D31A312BC4E900012ADD28A3D3
:103B1800D3E90023DDE90201FCF70AFD06460F465A
:103B280002460B4640464946FCF74EFB02460B460A
:103B380082468B4640464946FCF746FB32463B46A2
:103B4800FCF742FB1CA3D3E9002306460F46DDE938
:103B58000201FCF7EDFC32463B46FCF735FB064616
:103B68000F4667E7C246CB466CE71B4B984535DDE9
:103B780010EE102A3B4630463946FCF725FBC4E9CF
:103B88000201C4E90001A1E600004054FB21F93F0D
:103B98003163621A61B4D03D0000601A61B4D03D4F
:103BA8007370032E8A19A33B83C8C96D305FE43F45
:103BB8000000002E8A19A33BC14920259A837B392E
:103BC800FB21E93F7BD90240FB21F93FFB21394129
:103BD8000000E03F904A0008FFFFEF7F4FEA2855BA
:103BE800A5F21645A8EB055130460F46FCF73AFFFB
:103BF800FCF738FC02460B4630463946CDE9062329
:103C0800FCF7E2FA00221F4BFCF792FC0F4606462F
:103C1800FCF728FFFCF726FC02460B4630463946DF
:103C2800CDE90823FCF7D0FA0022164BFCF780FCFC
:103C3800CDE90A010DF130094FF0030800260027ED
:103C480032463B4679E9020108F1FF3AFCF7D8FE13
:103C5800B0B90D4B0193022300932A4643462146EF
:103C680006A800F0FDF8049B002B0546BFF658AEE9
:103C7800636803F100436360E36803F10043FBE614
:103C8800D046DDE700007041104B0008000000003E
:103C98002DE9F04F59EC108B29F0004785B0B7F1AA
:103CA800795F8DED001B07DA10EE100A4946FCF724
:103CB800D9FE002800F0AA8042464B4640464946B5
:103CC800FCF736FC59A3D3E9002304460D46FCF75C
:103CD8002FFC58A3D3E90023FCF778FA22462B4699
:103CE800FCF726FC55A3D3E90023FCF76DFA22461E
:103CF8002B46FCF71DFC53A3D3E90023FCF766FA17
:103D080022462B46FCF714FC50A3D3E90023FCF70A
:103D18005BFA22462B46FCF70BFC4EA3D3E90023A3
:103D2800FCF754FA2B462246FCF702FC3A4B9F421A
:103D380082468B462CDC0022384B20462946FCF76D
:103D4800F7FB524606460F465B4620462946FCF7D7
:103D5800EFFBDDE9002304460D4640464946FCF7E3
:103D6800E7FB02460B4620462946FCF72DFA024699
:103D78000B4630463946FCF727FA0B4628490246D7
:103D88000020FCF721FA41EC100B05B0BDE8F08FDC
:103D9800244B23499F42D7BFA7F50013224F002287
:103DA8001646D4BF1F46002632463B460020FCF785
:103DB8000BFA0022CDE90201184B20462946FCF7F0
:103DC800B7FB32463B46FCF7FFF9524606460F461C
:103DD8005B4620462946FCF7ABFBDDE90023044699
:103DE8000D4640464946FCF7A3FB02460B462046D3
:103DF8002946FCF7E9F902460B4630463946FCF7F6
:103E0800E3F902460B46DDE90201BAE7002004495E
:103E1800B9E700BFAFF300803233D33F0000E03F83
:103E28000000F03F0000E93F0000D23FD43888BED0
:103E3800E9FAA8BDC4B1B4BD9EEE213EAD529C8046
:103E48004F7E923E9015CB19A001FA3E7751C116CC
:103E58006CC1563F4C5555555555A53F00000000BF
:103E68002DE9F04F2DED028BADF5197DD41E06938B
:103E78000291C34BA499099053F821300093069BF3
:103E8800013B0493182394FBF3F46FF0170324EA1F
:103E9800E47404FB033303EB020A009B049A9FEDCE
:103EA800B48B03EB0208A59BA71A20AE03EB870986
:103EB8000025454513DD9FEDAE8B0DF5E07B002613
:103EC800009B9E4232DC099B0393069B9D1920AB05
:103ED80003EBC503089359EC188B00271FE0EF424A
:103EE80007D459F82500FCF7BDFAE6E802010135C8
:103EF800DFE751EC180BF8E70899039D71E90223F5
:103F08000891F5E802010395FCF712FB02460B46FF
:103F180040464946FCF75AF9013780468946049BD2
:103F28009F42E9DDEBE802890136C9E7009B009F63
:103F38000CAA02EB83030B93A59B03EB84030A9360
:103F480098AB07F1005B03EBC7030BF1FF3B53E9A9
:103F580028894FEACB030893089A98AB1344A3F136
:103F6800980B0026BB1B002B77DC49EC108B5046C6
:103F780000F00EFC55EC104B00224FF07F5310EE72
:103F8800100A2946FCF7D4FA41EC100B00F07CFB30
:103F9800002251EC100B7B4BFCF7CAFA02460B4689
:103FA80020462946FCF710F90D460446FCF75AFD51
:103FB8000390FCF757FA02460B4620462946FCF7C1
:103FC80003F9BAF1000F804689466BDD7A1E0CAB07
:103FD800CAF1180153F82200039C40FA01F31C446B
:103FE8008B40C01A0CAB039443F82200CAF11703A4
:103FF80040FA03FBBBF1000F62DD039B0022013393
:10400800039314466FF07F41974200F38980BAF119
:10401800000F07DDBAF1010F00F09680BAF1020F28
:1040280000F09C80BBF1020F4AD142464B4600206B
:104038005549FCF7C9F880468946002C40D05046BF
:104048009FED4D0B00F0A4FB4046494653EC102B66
:10405800FCF7BAF88046894632E000224B4B4046CE
:104068004946FCF765FAFCF7FDFCFCF7FBF9002272
:10407800474B04460D46FCF75BFA02460B464046A2
:104088004946FCF7A1F8FCF7EDFC0CAB294643F8D0
:1040980026007BE902232046FCF798F80136804683
:1040A80089465FE706D17B1E0CAA52F823004FEA27
:1040B800E05B9FE70022374BFCF7C0FC68BB8346F8
:1040C8000022002340464946FCF79AFC002800F0ED
:1040D800C1807C1E2346002200998B425CDA002AAC
:1040E80040F08B8001246FF0030202FB04F30B996C
:1040F800CB58002B56D0089B98AA1344A3F1900BD9
:10410800069BDD1920AB03EBC505E3197E1C039361
:10411800039B9E4248DD1F4612E74FF0020B6CE7F7
:104128000CAB53F822304CB92BB10CA8C3F18073F7
:1041380040F82230012301321C4665E70CA8CB1A4F
:1041480040F822302346F6E77A1E0CAB53F82230AB
:10415800C3F316030CA941F8223063E77A1E0CABAF
:1041680053F82230C3F31503F4E700BFAFF3008020
:104178000000000000000000000000000000F03F08
:10418800584C0008000020400000F03F0000703E3E
:10419800000070410000E03F0CA951F82310013BDA
:1041A8000A4399E70134A0E70A9B53F82600FCF775
:1041B80059F9E5E80201099B08951C4600274FF0CC
:1041C80000084FF00009049B9F4203DDEBE80289D9
:1041D80001369DE7089971E902230891F4E8020184
:1041E800FCF7A6F902460B4640464946FBF7EEFFA8
:1041F800013780468946E6E7013C0CABAAF1180A6C
:1042080053F82430002BF7D050469FEDB50B00F043
:10421800BFFAE50098AB03EB050957EC106BA9F161
:104228009809A046B8F1000F4DDA9FEDAF8B0DF558
:10423800907A002304935746049BB4EB030976D481
:10424800AB4B1E4670AB03EBC9098DED068B4FF0E7
:1042580000085EE0CAF1000049EC108B00F098FA03
:1042680055EC104B0022A34B10EE100A2946FCF720
:10427800E5FBF8B10022A04B20462946FCF758F987
:10428800FCF7F0FB0646FCF7EDF80022994BFCF72B
:104298004FF90B46024629462046FBF795FFFCF7E7
:1042A800E1FB7C1C0CAB0AF1180A43F8270043F821
:1042B8002460A9E720462946FCF7D4FB0CAB3C4612
:1042C80043F82700A0E70CAB53F82800FCF7CAF81E
:1042D80032463B46FCF72CF9002269E90201864B7D
:1042E80030463946FCF724F908F1FF3806460F46F0
:1042F80098E7F9E80223F6E80201FCF719F9024603
:104308000B46DDE90601FBF761FFCDE9060108F17F
:104318000108009B984502DC049B9845E9DD049B55
:104328009DED067B0133AAEC027B049384E7A49BF2
:10433800032B5DD8DFE803F04B26260298AB1D441B
:10434800A5F59C752E46A246BAF1000F6EDC2E46E6
:10435800A246BAF1010F00F38A8000200021012C47
:1043680000F3A680BBF1000F40F0A880DDE94823E8
:10437800029CC4E90023DDE94A23C4E90401C4E935
:10438800022335E0083548AB1D44264600200021AD
:10439800002E3CDABBF1000F3FD0024601F100438A
:1043A800029DC5E9002302460B46DDE94801FBF7FB
:1043B8000BFF4AAE0125AC4232DABBF1000F02D046
:1043C80001F100431946029BC3E9020110E098ABD2
:1043D8001D44A5F59C7500200021002C11DABBF1C5
:1043E800000F02D001F100431946029BC3E9000106
:1043F800039B03F007000DF5197DBDEC028BBDE8AA
:10440800F08F75E90223FBF7E1FE013CE5E775E96A
:104418000223FBF7DBFE013EBAE702460B46BFE785
:10442800F6E80223FBF7D2FE0135C4E716ED027B5E
:1044380056E9048953EC172B404649468DED007B1D
:10444800FBF7C4FECDE9040102460B464046494647
:10445800FBF7BAFEDDE90023FBF7B8FE9DED047B10
:1044680066E902010AF1FF3A06ED027B6CE716EDF8
:10447800027B56E9048953EC172B404649468DEDDB
:10448800007BFBF7A3FECDE9040102460B4640463C
:104498004946FBF799FEDDE90023FBF797FE9DED02
:1044A800047B66E902010AF1FF3A06ED027B50E758
:1044B80075E90223FBF78AFE013C50E7029A3B6844
:1044C80013607B68106103F100435360BB6893601D
:1044D800FB6803F10043D36001F10043536187E7B0
:1044E800000000000000F03F000000000000000095
:1044F800184C0008000070410000703E00000000E9
:104508002DE9F04F55EC104B85B025F00043B3F181
:10451800795F8DED001B029006DA10EE100A29462D
:10452800FCF7A0FA002851D022462B4620462946FF
:10453800FBF7FEFF82468B4602460B46204629467D
:10454800FBF7F6FF41A3D3E900238046894650468E
:104558005946FBF7EDFF3FA3D3E90023FBF734FEF1
:1045680052465B46FBF7E4FF3CA3D3E90023FBF785
:104578002DFE52465B46FBF7DBFF3AA3D3E9002347
:10458800FBF722FE52465B46FBF7D2FF37A3D3E97F
:104598000023FBF71BFE029B06460F46DBB90246CB
:1045A8000B4650465946FBF7C3FF25A3D3E9002322
:1045B800FBF70AFE42464B46FBF7BAFF02460B469C
:1045C80020462946FBF702FE04460D4645EC104BF3
:1045D80005B0BDE8F08F00221B4BDDE90001FBF7B9
:1045E800A7FF3246CDE902013B4640464946FBF764
:1045F8009FFF02460B46DDE90201FBF7E5FD524647
:104608005B46FBF795FFDDE90023FBF7DDFD0CA317
:10461800D3E9002306460F4640464946FBF788FF84
:1046280002460B4630463946FBF7D0FD02460B469C
:1046380020462946FBF7C8FDC6E700BFAFF3008058
:10464800495555555555C53F0000E03F7CD5CF5AD3
:104658003AD9E53DEB9C2B8AE6E55A3E7DFEB157FB
:10466800E31DC73ED561C119A0012A3FA6F8101164
:104678001111813F53EC102B23F0004343EC102B16
:10468800704700000000000051EC100B2DE9F041CC
:10469800C1F30A57A7F2FF36132E10EE108A0C4604
:1046A80010EE105A35DC002E17DA35A3D3E90023B3
:1046B800FBF78CFD00220023FCF7CAF950B1002C4F
:1046C8005ADA24F0004353EA08032F4B4FF0000551
:1046D80018BF1C462146284625E02C4F374101EAE1
:1046E800070303431FD026A3D3E90023FBF76EFD7E
:1046F80000220023FCF7ACF90028EBD0002CBEBF49
:104708004FF4801343FA06F6A41924EA0704002597
:10471800E0E7332E0BDDB6F5806F04D110EE102ADA
:104728000B46FBF753FD41EC100BBDE8F081A7F2F7
:1047380013474FF0FF3323FA07F73842F3D010A39B
:10474800D3E90023FBF742FD00220023FCF780F9A0
:104758000028BFD0002C02DA142E03D1013425EA38
:104768000705B7E70123C6F1340603FA06F6354410
:10477800A84588BFE418F2E700252C46AAE700BF41
:104788009C7500883CE4377E0000F0BFFFFF0F00F7
:1047980070B555EC104BC5F30A5206462B46B2B914
:1047A80025F0004323433CD00022334B294610EE2A
:1047B800100AFBF7BDFE314A964204460D460B46E9
:1047C80013DA29A3D3E90023FBF7B2FE0AE040F28B
:1047D800FF718A420CD110EE102A2B46204629463A
:1047E800FBF7F4FC04460D461BE0C1F30A52363AC7
:1047F800324440F2FE718A420BDD45EC114B9FEDCD
:104808001C0B00F03FF81AA3D3E9002351EC100B5E
:10481800DAE7002A08DD23F0FF4323F4E00343EA44
:10482800025545EC104B70BD12F1350F0DDA4CF204
:1048380050339E4245EC114BE1DC9FED0B0B00F031
:1048480021F809A3D3E90023E0E723F0FF43363238
:1048580023F4E00343EA0255204629460022084B88
:10486800B2E700BFAFF3008059F3F8C21F6EA5018D
:104878009C7500883CE4377E00005043B03CFFFF45
:104888000000903C53EC102B11EE900A23F00041ED
:1048980000F0004041EA000343EC102B7047000091
:1048A800F8B500BFF8BC08BC9E467047F8B500BF15
:0848B800F8BC08BC9E467047E5
:1048C00002030405060708090A0B0C0D0E0F101051
:1048D0000102030405060708090A0B0C0D0E0F1050
:1048E000622D3E0500807B400000000000808B4070
:1048F0000000000000A094400000000000809B40E9
:10490000000000000030A140C5E5780522DE7E40B1
:10491000AE47E17A14DE8E40C3F5285C8F269740BF
:104920000000000000DE9E40CDCCCCCCCC4AA340A1
:10493000C9569753025A804000000000005A904028
:104940001B2FDD240687984000000000005AA0407D
:10495000000000008070A4404485EAE6A25A82402C
:10496000713D0AD7A35A9240295C8FC2F5879B40BC
:10497000713D0AD7A35AA240CDCCCCCC4CF1A64075
:104980002FFCE07C0A9A844000000000009A9440CA
:104990000000000000E79E4000000000009AA440D4
:1049A0000000000080C0A940D74CBED9A6D38540E6
:1049B000D9CEF753E3D39540F6285C8FC25EA04072
:1049C00048E17A14AED3A5409A9999999948AB4099
:1049D00069FCC22BE91F874052B81E85EB1F974028
:1049E0003D0AD7A3F057A14052B81E85EB1FA74040
:1049F00066666666E6E7AC4015527E52ED7F8840FB
:104A000052B81E85EB7F98403D0AD7A3F05FA240C5
:104A100052B81E85EB7FA84066666666E69FAE408C
:104A2000A5F5B70400808B400000000000809B408B
:104A30000000000000A0A440000000000080AB4087
:104A4000000000000030B140000000000008070630
:104A50000503000603060300020505080001020322
:104A60000508010508010004000004080000080012
:104A70000200000000000000000000000000000034
:104A800001020304060708090000000001020304F4
:104A9000FB21F93FFB2109407CD91240FB21194041
:104AA0007A6A1F407CD92240BBFD2540FB2129406A
:104AB0003A462C407A6A2F405C4731407CD93240DC
:104AC0009C6B3440BBFD3540DB8F3740FB213940C8
:104AD0001BB43A403A463C405AD83D407A6A3F407F
:104AE0004C7E40405C4741406C1042407CD9424083
:104AF0008CA243409C6B4440AC344540BBFD4540D8
:104B0000CBC64640DB8F4740EB584840FB2149402D
:104B100083F9A200444E6E00FC291500D1572700EE
:104B2000DD34F50062DBC0003C9995004190430004
:104B30006351FE00BBDEAB00B761C5003A6E2400D6
:104B4000D24D42004906E00009EA2E001C92D10035
:104B5000EB1DFE0029B11C00E83EA700F5358200E0
:104B600044BB2E009CE98400B4267000417E5F00A7
:104B7000D6913900538339009CF439008B5F84004F
:104B800028F9BD00F81F3B00DEFF97000F980500D5
:104B9000112FEF000A5A8B006D1F6D00CF7E36007B
:104BA00009CB2700464FB7009E663F002DEA5F0005
:104BB000BA277500E5EBC7003D7BF100F739070028
:104BC00092528A00FB6BEA001FB15F00085D8D0006
:104BD000300356007BFC4600F0AB6B0020BCCF00DE
:104BE00036F49A00E3A91D005E619100081BE600FF
:104BF00085996500A0145F008D40680080D8FF0093
:104C000027734D0006063100CA561500C9A8730067
:104C10007BE260006B8CC00000000040FB21F93F8C
:104C2000000000002D44743E000000809846F83CCF
:104C30000000006051CC783B00000080831BF039FD
:104C40000000004020257A38000000802282E336F0
:104C5000000000001DF369350200000003000000A1
:084C6000040000000600000042
:044C6800AD01000892
:044C6C0089010008B2
:104C70000100000010000000FFFFFFFFFF00000028
:044C800000127A00A4
:04000005080036F9C0
:00000001FF
