:020000040800F2
:10000000003000203D26000845250008472500084F
:10001000492500084B2500084D2500080000000078
:100020000000000000000000000000004F25000854
:100030005125000800000000532500085525000840
:100040008D2600088D2600088D2600088D260008C4
:100050008D2600088D2600088D2600088D260008B4
:100060008D2600088D2600088D2600088D260008A4
:100070008D260008652500088D2600088D260008BD
:100080008D2600088D2600088D2600088D26000884
:100090008D2600088D2600088D2600088D26000874
:1000A000B12500088D2600088D2600088D26000841
:1000B0008D2600088D260008000000008D2600080F
:1000C0008D26000800000000000000008D260008BA
:1000D000000000008D260008BD2500088D260008C0
:1000E0008D2600088D26000800000000000000009A
:1000F0000000000000000000000000000000000000
:1001000000000000000000000000000000000000EF
:100110000000000000000000C92500088D2600082E
:1001200000000000000000000000000000000000CF
:1001300000000000000000000000000000000000BF
:100140008D2600088D260008000000000000000039
:10015000000000000000000000000000000000009F
:10016000000000000000000000000000000000008F
:10017000000000000000000000000000000000007F
:08018000000000008D260008BC
:1001880010B5054C237833B9044B13B10448AFF3C9
:1001980000800123237010BD0C0000200000000027
:1001A800D826000808B5034B1BB103490348AFF331
:1001B800008008BD0000000010000020D8260008BC
:1001C80038B50E4A0E4B054618784FF47A73B3FBD0
:1001D800F0F31068B0FBF3F000F0A0F8044658B94B
:1001E8000F2D09D8024629464FF0FF3000F056F887
:1001F800044B20461D6038BD012038BD0800002092
:100208000000002004000020074A08B5136843F0E6
:1002180010031360032000F02FF80020FFF7D0FF31
:1002280002F096F8002008BD00200240034A044B63
:1002380011681B780B441360704700BF280000202A
:1002480000000020014B1868704700BF28000020FC
:1002580038B50446FFF7F6FF631C1CBF054B1B7837
:10026800054618BFE418FFF7EDFF401B8442FAD893
:1002780038BD00BF00000020074AD36823F4E063BC
:100288001B041B0C43F0BF63000243F4003300F46B
:10029800E0600343D360704700ED00E0174B30B5D2
:1002A800DC68C4F30224C4F10703251D042B28BF0E
:1002B8000423062D4FF0010505FA03F303F1FF337C
:1002C8008CBF033C00241940A14005FA04F4013C0A
:1002D8002240002842EA01024FEA0212AFBF00F1B1
:1002E800604000F00F00064BD2B2A5BF00F5614098
:1002F800D2B21A5480F8002330BD00BF00ED00E0F0
:1003080014ED00E04209012300F01F0003FA00F099
:10031800014B43F82200704700E100E00138B0F1DA
:10032800807F0AD2064B074A5860F02182F82310D2
:100338000020072298601A6070470120704700BFAC
:1003480010E000E000ED00E0044B1A6804280CBF40
:1003580042F0040222F004021A60704710E000E044
:10036800704708B5FFF7FCFF08BD10B5044668B133
:10037800037903F0FF0213B9427102F02FF8022348
:100388002371002001232061237110BD012010BDBD
:10039800704770477047704710B5446A236943F047
:1003A800040323612046FFF7F5FF0123237110BDE5
:1003B800406AFFF7EEBF10B5446A2046FFF7E8FF32
:1003C8000123237110BD0000F8B5054640790128C6
:1003D8000E464FF002001146069A4CD001246C716B
:1003E80028712C68E6B9A868234F8762234FC76233
:1003F800234F07632768042A47F48057276009D0EA
:10040800082A0AD0002A34D104F10802276847F4E0
:1004180000571AE004F10C02F8E704F11002F5E7BE
:10042800E868184F8762184FC762184F0763276834
:10043800042A47F08057276013D0082A14D0B2B98D
:1004480004F11402276847F00057276000F0CCF841
:100458002B6801211A68B1400020114368711960A6
:10046800F8BD04F11802EDE704F11C02EAE70022E6
:10047800E8E73246CAE7F8BDBF030008B903000839
:10048800A1030008F704000809050008150500087D
:100498004379012B70B54FF002031BD00568037137
:1004A800114B2C689D420B6816D1AAB924F47F64BD
:1004B800496824F00E040B43934023432B602B68B8
:1004C800C02101FA02F223EA020201232A60037121
:1004D80000234371184670BD40F6FE76964024EA24
:1004E80006048968E7E700BF00740040704710B54C
:1004F800446A2046FFF7FAFF0123237110BD7047B5
:1005080008B5406AFFF7FBFF08BD704710B5446A9D
:10051800236943F0040323612046FFF7F6FF012314
:10052800237110BD704703681A68910410B504461A
:1005380011D55A6B92040ED504220271026942F059
:10054800010202614FF400525A631A6822F4805281
:100558001A60FFF720FF23681A68910012D55A6BBA
:1005680092000FD504222271226942F00202226110
:100578004FF000525A631A6822F080521A602046DF
:10058800FFF7D0FF10BD000010B530B38468436892
:1005980001682343C4680A68234304692343446900
:1005A800234384692343C46922F47F5222F0300232
:1005B800234313430B600A4B14220B44B3FBF2F39F
:1005C8009B000364074BC36301220023836380F805
:1005D800212080F82030184610BD012010BD00BF32
:1005E800F8FFFDBF00000240F0B590F82040012C54
:1005F80035D090F821500124A54280F820404FF0D2
:1006080000064FF0020428D180F821400468866370
:100618002668076C26F001062660C66BBD4075602B
:10062800636043680568102BC36A0BBFA260A160B2
:10063800E160E2604BB1236843F00E0323602B684E
:1006480043F001032B600020F0BD236843F00A0348
:100658002360236823F00403F0E780F82060022079
:10066800F0BD90F82120022A10B503D0042282633D
:10067800012010BD0268C46B1168436B21F00E01A4
:100688001160116821F001011160026C012101FA69
:1006980002F26260002480F8211080F8204013B133
:1006A8009847204610BD184610BDC16B026C036800
:1006B80070B40E681D680424944026420ED015F0CC
:1006C800040F0BD01A6892065EBF1A6822F0040263
:1006D8001A60C36A4C6073B370BC18470224944014
:1006E800264212D015F0020F0FD01A68950606D4CC
:1006F8001A6822F00A021A60012380F821300023C8
:100708004C6080F82030836AE5E70824944034423E
:1007180011D02C070FD51C6824F00E041C6001238F
:1007280003FA02F24A60836380F82130002380F8DC
:100738002030036BCFE770BC704700002DE9F04F05
:1007480085B00B68DFF86481564A01934FF00F09B2
:100758000023019CDC4002D105B0BDE8F08F0124E4
:1007680004FA03FA019C14EA0A0500F093804C6825
:1007780024F0100BBBF1020F11D1DF0800EB870743
:1007880003F0070E3E6A4FEA8E0E09FA0EFC26EABF
:100798000C0C0E6906FA0EF646EA0C063E624FEAA3
:1007A800430C0327066807FA0CF7FF4304F0030E0F
:1007B8003E400EFA0CFE0BF1FF3B4EEA0606BBF17B
:1007C800010F066011D8866806EA070BCE6806FA9C
:1007D8000CFE4EEA0B068660466826EA0A0AC4F34F
:1007E80000169E4046EA0A064660C66837408E688C
:1007F80006FA0CF63743E600C7604BD5D8F8186000
:1008080046F00106C8F81860D8F8186023F0030706
:1008180007F1804706F0010607F58037039603F0D5
:10082800030E039EBE684FEA8E0E09FA0EFCB0F165
:10083800904F26EA0C0C2FD01B4EB0422ED006F556
:100848008066B0422CD006F58066B04214BF0526FB
:10085800032606FA0EF646EA0C06BE601668EF4353
:1008680014F4803F0CBF3E402E431660566814F4C3
:10087800003F0CBF3E402E435660966814F4801F1C
:100888000CBF3E402E439660D668A40254BF3E403B
:100898002E43D66001335CE70026DAE70126D8E765
:1008A8000226D6E700040140000400480010024078
:1008B8000AB181617047816270474369594041615B
:1008C800704700002DE9F74F0446002866D090F8DD
:1008D8003230052B62D090F83230022B5ED0314B8B
:1008E8009A6942F001029A619B6903F0010301933E
:1008F800019B90F8323003F0FF020BB980F83120E9
:10090800204601F0B3FD63682168D4F810A0D4F83C
:100918001890A76AE66A244D23F02002402A04F1C1
:100928001C08E26898E800511ED1134343EA0A0301
:1009380043EA090343EA080343EA0C03086843EA65
:100948000E0343EAC74343EA066300EA05061E436B
:100958000E6094F8323003F0FF000BBB012384F8DB
:10096800323003B0BDE8F08FA068D1F800B003437F
:100978001A43636942EA0A021A4342EA090242EA4E
:10098800080242EA0C0343EA0E0343EAC74343EA78
:1009980006630BEA050003430B60DAE70120E0E792
:1009A8000020DEE700100240113800E02DE9F04198
:1009B8000446002800F09D8090F83230052B00F0A6
:1009C800988090F83230012B40F0938003681A68C1
:1009D80042F002021A601A6842F480221A601A6809
:1009E80042F400621A601A6842F440521A601A68A7
:1009F80042F001021A6004270826102522681368AD
:100A080023F0F85343EA056313600220FFF720FC44
:100A1800226813685B004CBFAD19AD1B013F4FEA5C
:100A28005606EBD1136823F0F85343EA05631360C5
:100A38000220FFF70DFC23681A68500006D51A68D3
:100A4800013522F0F85242EA05621A601A6822F467
:100A5800405242F480521A604FF0040808271026CA
:100A68002268136823F4780343EAC643136002201C
:100A7800FFF7EEFB2268136859004CBFF619F61B06
:100A8800B8F101084FEA5707EAD1136823F478034D
:100A980043EAC64313600220FFF7DAFB23681A68AB
:100AA800520006D51A68013622F4780242EAC64294
:100AB8001A601A6822F400621A601A6822F00102A9
:100AC8001A601A6822F002021A604FF480226262E9
:100AD8001A68A66222F4780242EAC646E5621E60F7
:100AE8001A6822F0F85242EA05651D600020BDE848
:100AF800F0810120BDE8F0812DE9F347054618B9DA
:100B0800012002B0BDE8F0870368DA0711D42B682A
:100B18009B0700F185802B681C0700F1F6802B6885
:100B2800580700F13F81EA69002A40F0D681002089
:100B3800E7E7BA4C636803F00C03042B07D063683B
:100B480003F00C03082B16D16368DF0313D54FF4A9
:100B5800003393FAA3F2216893FAA3F3B3FA83F369
:100B680003F01F03012202FA03F30B42CFD06B6894
:100B7800002BCCD1C4E76A68B2F5803F25D1236841
:100B880043F480332360E36AA96823F00F030B431F
:100B9800E36252B3FFF756FB4FF400368046012755
:100BA80096FAA6F3226896FAA6F3B3FA83F303F04B
:100BB8001F0307FA03F31342A9D1FFF743FBA0EB86
:100BC80008006428ECD903209BE7236832B923F492
:100BD80080332360236823F48023D3E7B2F5A02F62
:100BE800F5D143F480232360C9E7FFF72BFB4FF4CB
:100BF80000368046012796FAA6F3226896FAA6F3ED
:100C0800B3FA83F303F01F0307FA03F313423FF425
:100C18007EAFFFF717FBA0EB08006428EBD9D2E7FB
:100C28007E4C636813F00C0F07D0636803F00C0365
:100C3800082B22D16368DE031FD4022393FAA3F2A0
:100C4800216893FAA3F3B3FA83F303F01F03012295
:100C580002FA03F30B4203D02B6993427FF450AF9F
:100C68002168F82393FAA3F3B3FA83F26B699340EC
:100C780021F0F802134323604DE72A6901260AB3DD
:100C880096FAA6F3B3FA83F303F1845303F58413B6
:100C98009B0002271E60FFF7D5FA804697FAA7F354
:100CA800226897FAA7F3B3FA83F303F01F0306FA4F
:100CB80003F31342D4D1FFF7C5FAA0EB08000228CA
:100CC800ECD980E796FAA6F3B3FA83F303F18453D9
:100CD80003F584139B0002271A60FFF7B3FA8046D6
:100CE80097FAA7F3226897FAA7F3B3FA83F303F006
:100CF8001F0306FA03F313423FF40DAFFFF7A2FAFE
:100D0800A0EB08000228EBD95DE7AA69434E4449E5
:100D180001241AB394FAA4F3B3FA83F30B449B00A7
:100D280002271C60FFF78EFA804697FAA7F397FA16
:100D3800A7F397FAA7F3726A97FAA7F3B3FA83F3BC
:100D480003F01F0304FA03F313427FF4E8AEFFF73E
:100D580079FAA0EB08000228E7D934E794FAA4F35B
:100D6800B3FA83F30B449B0002271A60FFF76AFA71
:100D7800804697FAA7F397FAA7F397FAA7F3726A48
:100D880097FAA7F3B3FA83F303F01F0304FA03F304
:100D980013423FF4C4AEFFF755FAA0EB080002284F
:100DA800E7D910E71D4CE369D90034D4E36943F06F
:100DB8008053E361E36903F080530193019B0126AB
:100DC800184F3B68DA052FD5EB68012B3DD1236A14
:100DD80043F001032362FFF735FA02278246B9463A
:100DE8004FF0010897FAA7F397FAA7F3002B6CD0F6
:100DF800226A99FAA9F3B3FA83F303F01F0308FAF6
:100E080003F3134258D0002E3FF48DAEE36923F06C
:100E18008053E36187E60026D2E700BF0010024056
:100E280020819010007000403B6843F480733B6061
:100E3800FFF708FA80463B68DB05C5D4FFF702FADE
:100E4800A0EB08006428F6D9BDE63BBB236A23F073
:100E580001032362236A23F004032362FFF7F2F9F4
:100E680002278246B9464FF0010897FAA7F397FA86
:100E7800A7F373B3226A99FAA9F3B3FA83F303F0D9
:100E88001F0308FA03F31342BDD0FFF7DBF941F261
:100E98008833A0EB0A009842E7D994E6052B236A29
:100EA80003D143F00403236291E723F00103236293
:100EB800236A23F004038DE7FFF7C4F941F288336E
:100EC800A0EB0A0098428DD97DE697FAA7F3626AEB
:100ED8008FE797FAA7F3626ACDE7414C636803F09E
:100EE8000C03082B3FF40CAE022A4FF0807352D14A
:100EF80093FAA3F3B3FA83F303F1845303F584134A
:100F08009B0000221A60FFF79DF94FF0007780469A
:100F1800012697FAA7F3226897FAA7F3B3FA83F39F
:100F280003F01F0306FA03F313422DD162686B6ABC
:100F3800296A22F474120B43134363604FF08073E1
:100F480093FAA3F3B3FA83F303F1845303F58413F9
:100F58009B004FF000751E60FFF774F901260746E5
:100F680095FAA5F3226895FAA5F3B3FA83F303F08B
:100F78001F0306FA03F313427FF4D9ADFFF762F9B2
:100F8800C01B0228ECD91EE6FFF75CF9A0EB0800AD
:100F98000228BED917E693FAA3F3B3FA83F303F151
:100FA800845303F584139B0000221A60FFF74AF963
:100FB8004FF000750746012695FAA5F3226895FAC1
:100FC800A5F3B3FA83F303F01F0306FA03F31342FE
:100FD8003FF4ADADFFF736F9C01B0228ECD9F2E5B6
:100FE8000010024070B586B00223029303230493D5
:100FF8000F4C164600234FF4807203930192059319
:10100800636943F400336361636903F400330D4695
:10101800009301A94FF09040009BFFF78FFB616898
:1010280021F0EE4131432943616006B070BD00BF35
:101038000010024010B5134C616801F00C03082B36
:101048001ED14FF4701393FAA3F301F47012B3FA9C
:1010580083F322FA03F30C4AD05CE36A0F2292FA74
:10106800A2F2B2FA82F203F00F03D340074AD25C2D
:10107800CB034ABF064B074BB3FBF2F3584310BDF3
:10108800034810BD00100240F026000800270008A1
:1010980000127A0000093D002DE9F0410D46044692
:1010A80010B90120BDE8F0814C4A136803F007032A
:1010B8008B422ED32268910736D4D2073CD4474AB4
:1010C800136803F007039D4275D32268444D12F05C
:1010D800040F7CD1130706D56B68226923F460538B
:1010E80043EAC2036B60FFF7A5FF6B68F02292FA30
:1010F800A2F2B2FA82F203F0F003D340394AD35C89
:10110800D840394B18600020FFF75AF80020BDE896
:10111800F081136823F007030B431360136803F08F
:1011280007039942BDD1C5E72D49A0684B6823F054
:10113800F00303434B60C0E76268294E012A27D1B8
:101148004FF4003393FAA3F1316893FAA3F3B3FA97
:1011580083F303F01F0302FA03F30B42A1D0736871
:1011680023F003031A437260FFF76CF841F28838E2
:1011780007467368626803F00C03B3EB820F9ED0D6
:10118800FFF760F8C01B4045F3D90320BDE8F081A4
:10119800022A0CBF4FF00073022393FAA3F13068C0
:1011A80093FAA3F3B3FA83F303F01F03012101FABF
:1011B80003F30342D2E7136823F007032B431360BA
:1011C800136803F007039D427FF46BAF7DE76B68FC
:1011D800E16823F4E0630B436B607BE70020024087
:1011E800001002402F27000808000020014B186853
:1011F800704700BF08000020084B4FF4E0625B68AE
:1012080092FAA2F2B2FA82F203F4E063D340044AFB
:10121800D35C044A1068D840704700BF00100240F1
:101228003F27000808000020084B4FF460525B6815
:1012380092FAA2F2B2FA82F203F46053D340044A5B
:10124800D35C044A1068D840704700BF00100240C1
:101258003F270008080000200268022380F83D307C
:10126800136843F001031360012380F83D30002028
:1012780070477047704770477047704770470368FA
:101288001A69910710B504460FD5DA6892070CD58C
:101298006FF002021A619B6901229907027700F038
:1012A8008580FFF7E9FF0023237723681A6952072F
:1012B80010D5DA6850070DD56FF004021A619B69E2
:1012C800022213F4407F2277204675D0FFF7D4FF1F
:1012D8000023237723681A6911070FD5DA681207E4
:1012E8000CD56FF008021A61DB6904229B0722778C
:1012F800204667D0FFF7C0FF0023237723681A69C9
:10130800D00610D5DA68D1060DD56FF010021A6133
:10131800DB69082213F4407F2277204658D0FFF774
:10132800ABFF0023237723681A69D20708D5DA6848
:10133800D00705D56FF001021A612046FFF79AFF22
:1013480023681A69110608D5DA68120605D56FF000
:1013580080021A61204600F096FB23681A69D005BE
:1013680008D5DA68110605D56FF480721A6120462F
:1013780000F08AFB23681A69520608D5DA68500615
:1013880005D56FF040021A612046FFF777FF236802
:101398001A69910622D5DA6892061FD56FF02002E5
:1013A80020461A61BDE8104000F06CBBFFF763FFF0
:1013B8002046FFF762FF76E7FFF75DFF2046FFF75D
:1013C8005CFF85E7FFF757FF2046FFF756FF93E7D7
:1013D800FFF751FF2046FFF750FFA2E710BD0000BE
:1013E800214A0368904210B505D0B0F1804F02D071
:1013F8001E4CA0420CD14C6823F07003904243EA83
:10140800040310D0B0F1804F0DD0184A90420AD092
:10141800174A904207D002F58062904203D002F545
:101428008062904203D1CA6823F4407313434A6927
:1014380023F08003134303608B68C3620B688362E5
:10144800094B98420BD003F5A053984207D003F5F7
:101458008063984203D003F58063984201D10B69F9
:1014680003630123436110BD002C014000040040C8
:101478000040014010B50446A0B190F83D3003F09B
:10148800FF021BB980F83C2001F006F8022384F81B
:101498003D302068211DFFF7A3FF012384F83D306C
:1014A800002010BD012010BD10B50446A0B190F871
:1014B8003D3003F0FF021BB980F83C20FFF7D9FE4E
:1014C800022384F83D302068211DFFF789FF01239E
:1014D80084F83D30002010BD012010BD036A23F0C0
:1014E80001030362036A70B5446882690D6822F4D7
:1014F800803222F073022A438D6823F002032B43C3
:10150800174DA8420BD005F5A055A84207D005F500
:101518008065A84203D005F58065A8421AD1CD6838
:1015280023F008032B430E4DA84223F004030BD0ED
:1015380005F5A055A84207D005F58065A84203D057
:1015480005F58065A84205D124F440758E694C697B
:1015580034432C43446082614A684263036270BD2D
:10156800002C0140036A23F010030362036A4268F7
:1015780070B584690D6824F0807424F4E64444EA64
:1015880005248D6823F0200343EA0513104DA84273
:101598000ED1CD6823F0800343EA051323F04003FE
:1015A8004D698E6922F44062354342EA850209E0BA
:1015B800084DA842F4D0084DA842F1D005F5806541
:1015C800A842EDD042604A6884618263036270BDBC
:1015D800002C01400040014000440140036A23F40C
:1015E80080730362036A426870B5C4690D6824F4A5
:1015F800803424F073042C438D6823F4007343EA89
:101608000523114DA8420ED1CD6823F4006343EAA7
:10161800052323F480634D698E6922F440523543D3
:1016280042EA051209E0094DA842F4D0084DA84243
:10163800F1D005F58065A842EDD042604A68C461E2
:10164800C263036270BD00BF002C0140004001402E
:1016580000440140036A23F480530362026A30B5F0
:101668004468C3690D6823F0807323F4E64343EAB2
:1016780005238D6822F4005242EA05320C4DA84237
:101688000BD005F5A055A84207D005F58065A842FE
:1016980003D005F58065A84204D14D6924F480443F
:1016A80044EA85144460C3614B680364026230BD38
:1016B800002C014010B584680A4324F47F4442EAB0
:1016C80003232343836010BD90F83C30012B70B591
:1016D80004464FF002001AD084F83D002068012328
:1016E80084F83C308268524B134083600B68402B6F
:1016F80075D018D8102B00F08F8009D8002B00F077
:1017080085800123002084F83D3084F83C0070BDBA
:10171800202B00F08780302BF3D1836823F07003EF
:1017280043F0370333E0702B33D01BD8502B3FD016
:10173800602BE6D14D68CE68016A21F01001016284
:101748008269036A22F4704223F0A00343EA051376
:1017580042EA063282610362836823F0700343F031
:10176800670314E0B3F5805F0CD0B3F5005FC8D110
:10177800CB684A688968FFF79DFF2268936843F43D
:10178800804313E0836823F4803323F007038360E6
:10179800B7E7CB684A688968FFF78CFF22689368C7
:1017A80023F4803323F0770343F077039360A8E7AB
:1017B8004A68CE68016A056A25F0010505628369F1
:1017C80021F00A0123F0F00343EA06130A43836178
:1017D8000262836823F0700343F05703D7E74A682F
:1017E800CE68016A056A25F001050562836921F062
:1017F8000A0123F0F00343EA06130A4383610262F5
:10180800836823F0700343F04703C0E7836823F03D
:10181800700343F00703BAE7836823F0700343F0CB
:101828001703B4E7836823F0700343F02703AEE798
:101838008800FEFF036A10B501248C4023EA0403E4
:101848000362036A8A401A43026210BD10B5044657
:1018580001220068FFF7EEFF23680C4A93420BD081
:1018680002F5A052934207D002F58062934203D05A
:1018780002F58062934203D15A6C42F400425A64E2
:101888001A6842F001021A60002010BD002C0140C5
:10189800FFF7DCBF036A23F480330362026A30B5C2
:1018A8004468436D0D6823F4803323F070032B43A1
:1018B8008D6822F4003242EA05420D4DA8420BD051
:1018C80005F5A055A84207D005F58065A84203D0C4
:1018D80005F58065A84204D14D6924F4803444EAB2
:1018E8000524446043654B688365026230BD00BFD0
:1018F800002C0140036A23F480130362026A30B5A6
:101908004468436D0D6823F0807323F4E04343EA91
:1019180005238D6822F4001242EA05520C4DA842B4
:101928000BD005F5A055A84207D005F58065A8425B
:1019380003D005F58065A84204D14D6924F48024BC
:1019480044EA8524446043654B68C365026230BD40
:10195800002C014090F83C30012B10B504464FF0A4
:10196800020010D00123082A84F83C3084F83D0096
:101978001CD009D892B1042A14D00123002084F87D
:101988003D3084F83C0010BD102A13D0142A15D01D
:101998000C2AF2D12068FFF75DFEEEE72068FFF71A
:1019A8009DFDEAE72068FFF7DDFDE6E72068FFF721
:1019B80015FEE2E72068FFF76DFFDEE72068FFF716
:1019C80099FFDAE790F83C30012B30B518D002685F
:1019D8000C4D53689468AA4202BF4D6823F4700303
:1019E8002B430D68896823F070032B4324F080048F
:1019F800536021430023916080F83C30184630BD85
:101A0800022030BD002C014090F83C30012B10B56D
:101A180034D0CB688A681A4C23F4407313434A685D
:101A280023F4806313430A6823F4006313430A69A9
:101A380023F4805313434A6923F4005313438A6AF7
:101A480023F4404313438A6923F4702343EA02438F
:101A58000268A2420CD14C6A23F4700343EA04538F
:101A6800CC69096A23F08073234323F000730B4386
:101A78005364002380F83C30184610BD022010BD86
:101A8800002C014070477047704703681A6822F4B9
:101A980090721A609A6822F001029A60202380F8F6
:101AA8006A30704770477047704708B5406A00232E
:101AB800A0F85A30A0F85230FFF7F6FF08BD000032
:101AC80038B5044605682169A368C26928680B43CC
:101AD80061690B434949134301400B432B606B6811
:101AE800E168206A23F440530B436B60A968A3693B
:101AF80021F4306103430B43AB60414B9D4212D14B
:101B080003F558433F491B6B03F00303B2F5004F3D
:101B1800CB5C3BD1082B36D8DFE803F00F21243506
:101B28002D3535353000384B9D4203D003F58063A1
:101B38009D425ED1B2F5004F31D1FFF75DFB616880
:101B48004A0802EB4003B3FBF1F39BB2002023F0F9
:101B58000F022168C3F342031343CB6038BDFFF77C
:101B680063FBECE76068430803F5740303F510535F
:101B7800B3FBF0F3E9E7FFF75DFAE0E760684308D5
:101B880003F58033F4E701200023E0E7082B33D87E
:101B9800DFE803F005101B32273232322A00FFF744
:101BA8002BFB636800EB5300B0FBF3F080B2E860F6
:101BB800002038BDFFF738FB636800EB5300B0FB2B
:101BC800F3F00F4B80B2D860F2E76268530803F570
:101BD800F40303F59053B3FBF2F3094A9BB2D360C5
:101BE800E6E7FFF727FAE7E76268530803F50043DB
:101BF800F1E7B2F5004FC6D0012038BDF369FFEF19
:101C0800003801401027000800440040436ADA0702
:101C180010B506D50168846A4A6822F40032224366
:101C28004A609C0706D50168C46A4A6822F4803273
:101C380022434A60590706D50168046B4A6822F4B2
:101C4800802222434A601A0706D50168446B4A6815
:101C580022F4004222434A60DC0606D50168846B00
:101C68008A6822F4805222438A60990606D5016860
:101C7800C46B8A6822F4005222438A605A060FD540
:101C88000168046C4A6822F480122243B4F5801F6C
:101C98004A6005D14A68446C22F4C00222434A6073
:101CA8001B0606D50268816C536823F400230B4396
:101CB800536010BD2DE9F041069D04460F461646B7
:101CC80098462168CA6937EA02030CBF012200223C
:101CD800B24202D00020BDE8F0816B1CF2D09DB961
:101CE80023681A6822F4D0721A609A6822F00102F6
:101CF8009A60202384F8693084F86A30002384F8D5
:101D080068300320BDE8F081FEF79CFAA0EB0800DC
:101D18008542D6D2E4E773B504460026C666FEF7C8
:101D280091FA23681B681A07054617D423681B68AD
:101D38005B070AD56FF07E43009300222B464FF4D1
:101D480080012046FFF7B6FFA0B92023002084F8C1
:101D5800693084F8680084F86A300CE06FF07E43DC
:101D68000093324603464FF400112046FFF7A2FFC6
:101D78000028DBD0032002B070BD10B5044660B364
:101D880090F8693003F0FF021BB980F8682000F072
:101D9800AFFB2268242384F86930136823F0010319
:101DA80013602046FFF78CFE012816D0636A13B132
:101DB8002046FFF72BFF23685A6822F490425A60A6
:101DC8009A6822F02A029A601A6842F001022046B4
:101DD8001A60BDE81040FFF79EBF012010BD90F8C3
:101DE8006930212B27D1B0F8523002689BB24BB929
:101DF800116821F080011160116841F04001116003
:101E0800002070478368B3F5805FC36C0ED1016909
:101E180061B933F8021BC1F308011185C364B0F836
:101E28005230013B9BB2A0F85230E9E7591CC1641B
:101E38001B781385F3E702207047016808B50B6823
:101E480023F040030B60202380F86930FFF72AFE57
:101E5800002008BD90F86A30222B10B5036829D1FC
:101E6800998C8368B0F85C20B3F5805F02EA0102C0
:101E7800436D1BD10169C9B923F8022B4365B0F83A
:101E88005A40013CA4B2A0F85A406CB903681A68D9
:101E980022F490721A609A6822F001029A60202354
:101EA80080F86A30FFF7FFFD002010BD591C41651E
:101EB8001A70E4E79A6942F008029A61022010BD9C
:101EC8000268D369116870B513F00F05044607D18D
:101ED8009E0605D58E0603D5BDE87040FFF7BABF4C
:101EE8009068002D5CD010F0010502D111F4907FAC
:101EF80056D0D80707D5CE0505D501201062E06E6B
:101F080040F00100E066980706D52DB10220106266
:101F1800E06E40F00400E0665E0706D52DB10420AF
:101F28001062E06E40F00200E066180707D58E06E2
:101F380000D425B108201062E26E0243E266E26E28
:101F4800002A50D0980604D58A0602D52046FFF705
:101F580081FFE36E1B07204604D423689D6815F0B3
:101F6800400519D0FFF791FD23689A6856060FD5EA
:101F78009A68606E22F040029A6048B11A4B436337
:101F8800FEF76FFB78B3606EBDE87040436B18478F
:101F98002046FFF789FD70BDFFF786FDE56670BD39
:101FA800DD020ED546020CD54FF4801313622023B0
:101FB80084F86930204684F86A30BDE8704000F043
:101FC80015B81D0606D5080604D52046BDE870409C
:101FD800FFF705BF5A0606D54B0604D52046BDE8CF
:101FE8007040FFF72ABF70BDB31A000870470000A1
:101FF80082B00E4B01930E4A00230093009B092BDD
:1020080001DD02B070470099DDED007A9DED017A9F
:10201800F8EEE77A67EE877AFCEEE77A17EE903A01
:1020280022F81130009B01330093E7E70080CC438E
:102038006801002010B590B001230A9310230B9378
:10204800002302240E9306A84FF4301306940D942F
:102058000F93FEF751FD00B1FEE70F2301930390A4
:102068004FF480630590214601A802940493FFF77A
:1020780013F8044600B1FEE74FF0E0424FF08061EC
:10208800FEF7B0FFFFF7B2F84FF47A73B0FBF3F046
:10209800FEF744F90420FEF757F9224621464FF08F
:1020A800FF30FEF7FBF810B010BD00002DE9F0433B
:1020B8009A4CA1B0FEF7A8F8FFF7BCFF63699848EF
:1020C80043F480036361636903F480030493049B0E
:1020D800636943F400336361636903F40033059370
:1020E800059B636943F480236361636903F4802378
:1020F80000220693082100250326069B0227FEF7E7
:10210800D7FB15A98748159716961795FEF716FB5E
:1021180040F6236315A94FF090401593169617952E
:10212800FEF70CFBF32315A97D4815931696179512
:102138004FF48076FEF702FB15A94FF090401697F2
:1021480017951895199515964FF48058FEF7F6FAD5
:1021580015A94FF09040012716951795CDF8548092
:10216800FEF7ECFA082315A96D48159317951895ED
:102178001697FEF7E3FA63693B43636163696A4C48
:102188003B402A46294603930D20039BFEF786F819
:102198000D20FEF7B7F8654B23602046FEF7E5F8FB
:1021A8002546024600B1FEE71C23169015A92046D5
:1021B8001593FEF76DF900B1FEE75D4C5D4B2061AC
:1021C8004FF0600E84E808404FF00C094FF480236C
:1021D800A062E0622046C4F80C906362FEF772FBCE
:1021E80000B1FEE72046FEF7E1FB00B1FEE7524BE7
:1021F800524998604FF41642D86018619861D861C6
:1022080018625862184683E80600C3F81490FFF76E
:10221800B4FD00B1FEE74A4C4A4B236040F61F0369
:102228006060A060E3602061606180232046A36154
:10223800FFF720F900B1FEE720A9204641F8588DA4
:10224800FFF742FA00B1FEE72046FFF72DF900B18B
:10225800FEE72023099007A920460793FFF7B2FB62
:1022680000B1FEE7302310901190129014900422D0
:102278000EA920460E930F971396FFF76BFB00B13C
:10228800FEE700234FF4005215A92D481593169325
:102298001793189319931A921B931F93FFF7B4FB84
:1022A800044600B1FEE7264800F00AF92246214616
:1022B8001820FDF7F3FF1820FEF724F822462146E0
:1022C8002620FDF7EBFF2620FEF71CF822462146C4
:1022D8003620FDF7E3FF3620FEF714F804211848EE
:1022E800FFF7D6FAFFF784FE2A681548136843F00B
:1022F80001031360FEF7B0FF009421460A23124A37
:102308000948074CFEF760F84FF49670FDF7A0FFF8
:1023180008212046FEF7D1FAF6E700BF0010024078
:1023280000040048001400486000002000740040C9
:102338002C0000203C000140F80000200044004030
:10234800740000200040014068010020FEE7000002
:10235800214B07B59A6942F001029A619A6902F025
:1023680001020092009ADA6942F08052DA61DB6970
:1023780003F0805301930320019BFDF77DFF0022AA
:1023880011466FF00B00FDF789FF002211466FF030
:102398000A00FDF783FF002211466FF00900FDF7E0
:1023A8007DFF002211466FF00400FDF777FF002241
:1023B80011466FF00300FDF771FF002211466FF020
:1023C8000100FDF76BFF002211464FF0FF30FDF7CB
:1023D80065FF03B05DF804FB00100240F0B5026829
:1023E8001D4B9A4287B0054634D103F5CE330026FB
:1023F800DA691A4C42F00052DA61DB69039603F09D
:1024080000530093009B102703234FF0904001A92D
:1024180002930197FEF792F9114BA66084E88800B1
:102428008023E3604FF4807323614FF4806363611A
:1024380020462023A361E661FEF7A6F818B17421AF
:102448000848FFF783FF084A136843F400531360F2
:10245800AC60656207B0F0BD00740040B4000020B5
:102468003000024014270008000001407FB50268D0
:10247800084B9A420AD1C02301930323029301A96E
:1024880000234FF090400393FEF758F907B05DF82A
:1024980004FB00BF3C0001400268084B9A4282B02E
:1024A8000AD103F550439A6942F480329A619B69D4
:1024B80003F480330193019B02B070470040014050
:1024C8007FB50268094B9A420DD108230193022374
:1024D800029300230393049301A909234FF090402A
:1024E8000593FEF72BF907B05DF804FB00400140A7
:1024F8007FB50268104B9A421AD103F5E63301A959
:10250800DA6942F40032DA61DB6903F400330093DC
:10251800009B48F2040301930223029300230393D0
:10252800032304934FF0904007230593FEF706F921
:1025380007B05DF804FB00BF004400407047FEE7A9
:10254800FEE7FEE7FEE770477047704708B5FDF7FE
:102558006DFEBDE80840FDF704BF00000E4B07B54F
:102568001A68D96B186C12680968022383400B42F9
:102578000BD0930709D50948FEF76EFE002100919C
:102588000A23074A0748FDF71FFF034803B05DF811
:1025980004EBFEF78AB800BFB400002074000020E6
:1025A80068010020600000200148FEF768BE00BFF7
:1025B800740000200148FFF783BC00BFF80000202A
:1025C8000148FDF7B0BF00BF600000201549D1F8F1
:1025D800883043F47003C1F88830134B1A6842F00E
:1025E80001021A605868114A02405A601A6822F0BB
:1025F800847222F480321A601A6822F480221A60E7
:102608005A6822F4FE025A60DA6A22F00F02DA628D
:10261800186B074A02401A6300229A604FF0006361
:102628008B60704700ED00E0001002400CC07FF89E
:10263800CCFC00FFDFF834D0002103E00C4B5B58E2
:10264800435004310B480C4B42189A42F6D30B4ABC
:1026580002E0002342F8043B094B9A42F9D3FFF702
:10266800B5FF00F011F8FFF721FDFEE7003000206C
:1026780050270008000000200C0000200C0000205B
:102688007C010020FEE7000070B50D4E0D4CA41B28
:10269800A4100025A54209D10B4E0C4C00F018F8E7
:1026A800A41BA4100025A54205D170BD56F82530FD
:1026B80098470135EEE756F8253098470135F2E797
:1026C8004827000848270008482700084C27000822
:1026D800F8B500BFF8BC08BC9E467047F8B500BF07
:0826E800F8BC08BC9E467047D7
:1026F00002030405060708090A0B0C0D0E0F101043
:102700000102030405060708090A0B0C0D0E0F1041
:10271000000408022E2E5C5372635C73746D3332B6
:10272000663378785F68616C5F6D73702E6300004C
:102730000000000000000001020304060708090071
:08274000000000010203040087
:04274800AD010008D7
:04274C0089010008F7
:0C275000010000001000000000127A00E0
:040000050800263D8C
:00000001FF
