:020000040800F2
:1000000000300020FD320008553200085732000849
:10001000593200085B3200085D3200080000000021
:100020000000000000000000000000005F32000837
:1000300061320008000000006332000865320008E9
:100040004D3300084D3300084D3300084D33000890
:100050004D3300084D3300084D3300084D33000880
:100060004D3300084D3300084D3300084D33000870
:100070004D3300084D3300084D3300084D33000860
:100080004D3300084D3300084D3300084D33000850
:100090004D3300084D3300084D3300084D33000840
:1000A0004D3300084D3300084D3300084D33000830
:1000B000713200084D330008000000004D33000885
:1000C0004D33000800000000000000004D33000820
:1000D000000000004D330008853200084D33000851
:1000E0004D3300084D330008000000000000000000
:1000F0000000000000000000000000000000000000
:1001000000000000000000000000000000000000EF
:1001100000000000000000004D3300084D330008CF
:1001200000000000000000000000000000000000CF
:1001300000000000000000000000000000000000BF
:100140004D3300084D33000800000000000000009F
:10015000000000000000000000000000000000009F
:10016000000000000000000000000000000000008F
:10017000000000000000000000000000000000007F
:08018000000000004D330008EF
:1001880010B5054C237833B9044B13B10448AFF3C9
:1001980000800123237010BD14000020000000001F
:1001A800A844000808B5034B1BB103490348AFF343
:1001B800008008BD0000000018000020A8440008C6
:1001C80081F0004102E000BF83F0004330B54FEA00
:1001D80041044FEA430594EA050F08BF90EA020F6D
:1001E8001FBF54EA000C55EA020C7FEA645C7FEA00
:1001F800655C00F0E2804FEA5454D4EB5555B8BF23
:100208006D420CDD2C4480EA020281EA030382EA93
:10021800000083EA010180EA020281EA0303362D25
:1002280088BF30BD11F0004F4FEA01314FF4801CF8
:100238004CEA113102D0404261EB410113F0004F0A
:100248004FEA03334CEA133302D0524263EB4303C1
:1002580094EA050F00F0A780A4F10104D5F1200E5F
:100268000DDB02FA0EFC22FA05F2801841F10001BA
:1002780003FA0EF2801843FA05F359410EE0A5F18E
:1002880020050EF1200E012A03FA0EFC28BF4CF0BF
:10029800020C43FA05F3C01851EBE37101F0004575
:1002A80007D54FF0000EDCF1000C7EEB00006EEB82
:1002B8000101B1F5801F1BD3B1F5001F0CD349080C
:1002C8005FEA30004FEA3C0C04F101044FEA445263
:1002D80012F5800F80F09A80BCF1004F08BF5FEAEA
:1002E800500C50F1000041EB045141EA050130BDCA
:1002F8005FEA4C0C404141EB010111F4801FA4F16D
:100308000104E9D191F0000F04BF01460020B1FAC1
:1003180081F308BF2033A3F10B03B3F120020CDAF9
:100328000C3208DD02F1140CC2F10C0201FA0CF0D7
:1003380021FA02F10CE002F11402D8BFC2F1200C3C
:1003480001FA02F120FA0CFCDCBF41EA0C019040F2
:10035800E41AA2BF01EB0451294330BD6FEA04043B
:100368001F3C1CDA0C340EDC04F11404C4F1200226
:1003780020FA04F001FA02F340EA030021FA04F338
:1003880045EA030130BDC4F10C04C4F1200220FA8F
:1003980002F001FA04F340EA0300294630BD21FACD
:1003A80004F0294630BD94F0000F83F4801306BF93
:1003B80081F480110134013D4EE77FEA645C18BF87
:1003C8007FEA655C29D094EA050F08BF90EA020F1E
:1003D80005D054EA000C04BF1946104630BD91EA16
:1003E800030F1EBF0021002030BD5FEA545C05D119
:1003F8004000494128BF41F0004130BD14F5800458
:100408003CBF01F5801130BD01F0004545F0FE41CB
:1004180041F470014FF0000030BD7FEA645C1ABF00
:10042800194610467FEA655C1CBF0B46024650EA37
:10043800013406BF52EA033591EA030F41F4002163
:1004480030BD00BF90F0000F04BF0021704730B5E9
:100458004FF4806404F132044FF000054FF00001BE
:1004680050E700BF90F0000F04BF0021704730B57F
:100478004FF4806404F1320410F0004548BF404254
:100488004FF000013EE700BF42004FEAE2014FEAA9
:1004980031014FEA02701FBF12F07F4393F07F4F84
:1004A80081F06051704792F0000F14BF93F07F4FB6
:1004B800704730B54FF4607401F0004521F00041F9
:1004C80020E700BF50EA010208BF704730B54FF07F
:1004D80000050AE050EA010208BF704730B511F084
:1004E800004502D5404261EB41014FF4806404F1BC
:1004F80032045FEA915C3FF4DCAE4FF003025FEA3E
:10050800DC0C18BF03325FEADC0C18BF033202EBC5
:10051800DC02C2F1200300FA03FC20FA02F001FA1F
:1005280003FE40EA0E0021FA02F11444C1E600BFBE
:1005380070B54FF0FF0C4CF4E06C1CEA11541DBF71
:100548001CEA135594EA0C0F95EA0C0F00F0DEF83C
:100558002C4481EA030621EA4C5123EA4C5350EA21
:10056800013518BF52EA033541F4801143F4801372
:1005780038D0A0FB02CE4FF00005E1FB02E506F003
:100588000042E0FB03E54FF00006E1FB03569CF058
:10059800000F18BF4EF0010EA4F1FF04B6F5007F5E
:1005A80064F5407404D25FEA4E0E6D4146EB0606D0
:1005B80042EAC62141EA55514FEAC52040EA5E5059
:1005C8004FEACE2EB4F1FD0C88BFBCF5E06F1ED803
:1005D800BEF1004F08BF5FEA500E50F1000041EB3A
:1005E800045170BD06F0004646EA010140EA0200E7
:1005F80081EA0301B4EB5C04C2BFD4EB0C0541EA09
:10060800045170BD41F480114FF0000E013C00F31D
:10061800AB8014F1360FDEBF002001F0004170BD41
:10062800C4F10004203C35DA0C341BDC04F114045A
:10063800C4F1200500FA05F320FA04F001FA05F2E6
:1006480040EA020001F0004221F0004110EBD370B3
:1006580021FA04F642EB06015EEA430E08BF20EADF
:10066800D37070BDC4F10C04C4F1200500FA04F382
:1006780020FA05F001FA04F240EA020001F0004114
:1006880010EBD37041F100015EEA430E08BF20EA87
:10069800D37070BDC4F1200500FA05F24EEA020ECF
:1006A80020FA04F301FA05F243EA020321FA04F0FE
:1006B80001F0004121FA04F220EA020000EBD370B5
:1006C8005EEA430E08BF20EAD37070BD94F0000FB5
:1006D8000FD101F00046400041EB010111F4801FE9
:1006E80008BF013CF7D041EA060195F0000F18BF9A
:1006F800704703F00046520043EB030313F4801FD6
:1007080008BF013DF7D043EA0603704794EA0C0F8F
:100718000CEA135518BF95EA0C0F0CD050EA4106A5
:1007280018BF52EA4306D1D181EA030101F0004122
:100738004FF0000070BD50EA410606BF104619464A
:1007480052EA430619D094EA0C0F02D150EA013656
:1007580013D195EA0C0F05D152EA03361CBF104697
:1007680019460AD181EA030101F0004141F0FE4136
:1007780041F470014FF0000070BD41F0FE4141F4BA
:10078800780170BD70B54FF0FF0C4CF4E06C1CEABA
:1007980011541DBF1CEA135594EA0C0F95EA0C0F6F
:1007A80000F0A7F8A4EB050481EA030E52EA03352A
:1007B8004FEA013100F088804FEA03334FF080554B
:1007C80045EA131343EA12634FEA022245EA111578
:1007D80045EA10654FEA00260EF000419D4208BF29
:1007E800964244F1FD0404F5407402D25B084FEAD6
:1007F8003202B61A65EB03055B084FEA32024FF482
:1008080080104FF4002CB6EB020E75EB030E22BFDE
:10081800B61A754640EA0C005B084FEA3202B6EB9E
:10082800020E75EB030E22BFB61A754640EA5C004D
:100838005B084FEA3202B6EB020E75EB030E22BFDD
:10084800B61A754640EA9C005B084FEA3202B6EBDE
:10085800020E75EB030E22BFB61A754640EADC009D
:1008680055EA060E18D04FEA051545EA16754FEAFF
:1008780006164FEAC30343EA52734FEAC2025FEA1D
:100888001C1CC0D111F4801F0BD141EA00014FF0AC
:1008980000004FF0004CB6E711F4801F04BF01437D
:1008A8000020B4F1FD0C88BFBCF5E06F3FF6AFAE99
:1008B800B5EB030C04BFB6EB020C5FEA500C50F129
:1008C800000041EB045170BD0EF0004E4EEA1131AC
:1008D80014EB5C04C2BFD4EB0C0541EA045170BDB3
:1008E80041F480114FF0000E013C90E645EA060EF7
:1008F8008DE60CEA135594EA0C0F08BF95EA0C0F25
:100908003FF43BAF94EA0C0F0AD150EA01347FF46C
:1009180034AF95EA0C0F7FF425AF104619462CE743
:1009280095EA0C0F06D152EA03353FF4FDAE1046A6
:10093800194622E750EA410618BF52EA43067FF4F7
:10094800C5AE50EA41047FF40DAF52EA43057FF487
:10095800EBAE12E74FF0FF3C06E000BF4FF0010C92
:1009680002E000BF4FF0010C4DF804CD4FEA410CF6
:100978007FEA6C5C4FEA430C18BF7FEA6C5C1BD0C3
:1009880001B050EA410C0CBF52EA430C91EA030F44
:1009980002BF90EA020F0020704710F1000F91EAA1
:1009A800030F58BF994208BF90422CBFD8176FEA6F
:1009B800E37040F0010070474FEA410C7FEA6C5C3D
:1009C80002D150EA013C07D14FEA430C7FEA6C5C44
:1009D800D6D152EA033CD3D05DF8040B704700BF70
:1009E8008446104662468C461946634600E000BFBE
:1009F80001B5FFF7B7FF002848BF10F1000F01BD90
:100A08004DF808EDFFF7F4FF0CBF012000205DF85A
:100A180008FB00BF4DF808EDFFF7EAFF34BF0120DF
:100A280000205DF808FB00BF4DF808EDFFF7E0FF78
:100A380094BF012000205DF808FB00BF4DF808EDC9
:100A4800FFF7CEFF94BF012000205DF808FB00BF30
:100A58004DF808EDFFF7C4FF34BF012000205DF812
:100A680008FB00BF4FEA410212F5001215D211D55A
:100A78006FF47873B3EB625212D94FEAC12343F093
:100A8800004343EA505311F0004F23FA02F018BF15
:100A9800404270474FF00000704750EA013005D1DE
:100AA80011F0004008BF6FF0004070474FF00000A1
:100AB800704700BF4FEA4102B2F1E04324BFB3F5EB
:100AC800001CDCF1FE5C0DD901F0004C4FEAC002BD
:100AD8004CEA5070B2F1004F40EB830008BF20F0A1
:100AE8000100704711F0804F21D113F13872BCBF5B
:100AF80001F00040704741F480114FEA5252C2F1B0
:100B08001802C2F1200C10FA0CF320FA02F018BFF8
:100B180040F001004FEAC1234FEAD32303FA0CFC4B
:100B280040EA0C0023FA02F34FEA4303CCE77FEADA
:100B3800625307D150EA01331EBF4FF0FE4040F424
:100B48004000704701F0004040F0FE4040F40000D3
:100B5800704700BF10B504460E4B18784FF47A73EF
:100B6800B3FBF0F30C4A1068B0FBF3F000F09EF80A
:100B780068B90F2C01D9012010BD002221464FF081
:100B8800FF3000F057F8054B1C60002010BD012015
:100B980010BD00BF0000002010000020040000204D
:100BA80008B5074A136843F010031360032000F0E8
:100BB8002FF80020FFF7CEFF02F078FA002008BDDA
:100BC80000200240034A1168034B1B780B44136052
:100BD800704700BF3800002000000020014B186853
:100BE800704700BF3800002038B50446FFF7F6FF0D
:100BF8000546B4F1FF3F02D0044B1B781C44FFF7B5
:100C0800EDFF401B8442FAD838BD00BF0000002029
:100C1800074AD36823F4E0631B041B0C43F0BF634B
:100C280043F40033000200F4E0600343D3607047EC
:100C380000ED00E030B4154BDC68C4F30224C4F1C5
:100C48000703042B28BF0423251D062D8CBFE51E92
:100C58000025012404FA03F3013B1940A940AC40E4
:100C6800013C22401143002809DB0901C9B200F107
:100C7800604000F5614080F8001330BC704700F018
:100C88000F000901C9B2024B1954F6E700ED00E064
:100C980014ED00E0420900F01F00012303FA00F000
:100CA800014B43F82200704700E100E00138B0F141
:100CB800807F0AD2064B5860F021064A82F823103A
:100CC8000020986007221A6070470120704700BF13
:100CD80010E000E000ED00E00428044A13680CBFAF
:100CE80043F0040323F004031360704710E000E0AE
:100CF800704708B5FFF7FCFF08BD70B110B5044692
:100D0800037933B102232371002020610123237169
:100D180010BD437102F012FAF4E70120704710B4D5
:100D280083B0002401940068019051B101991431F5
:100D38000A440192019A1360002003B05DF8044B45
:100D48007047019908310A440192F3E74379012B6E
:100D580029D010B401234371022202710268146879
:100D68008B402343136091B90268136803F03C0376
:100D78003C2B07D0012303710023437118465DF80B
:100D8800044B7047536843F001035360F2E702686D
:100D9800136803F47013B3F5701FEBD1536843F075
:100DA80002035360E6E70220704700004379012BF5
:100DB8002DD070B406680123437102230371336890
:100DC800144CA64219D040F6FE75954023EA050555
:100DD8000B6889680B4393402B433360046823688E
:100DE800C02101FA02F223EA020222600123037100
:100DF80000234371184670BC7047002AE3D123F4DE
:100E08007F6525F00E050C684B682343E3E7022055
:100E1800704700BF0074004008B590F82130022BDD
:100E280003D004238363012008BD0268136823F0FC
:100E38000E0313600268136823F001031360C16B8B
:100E48000122036C02FA03F34B6080F8212000238F
:100E580080F82030436B13B19847002008BD00206C
:100E680008BD00002DE9F04F83B00C68002C00F09D
:100E7800B78000264FF0010E4FF00309DFF870C16C
:100E88004FF00F0A584F53E0F20800EB8202146A41
:100E980006F007034FEA830B0AFA0BF324EA03046C
:100EA8000B6903FA0BF3234313624BE0836802EAEE
:100EB800030BCB68A34043EA0B038360436823EA30
:100EC800050B4B68C3F30015B54045EA0B054560B3
:100ED8004CE00022A2402A439A603B686FEA08046B
:100EE8004A6812F4803F0CBF234048EA03033B6082
:100EF8007A684B6813F4003F0CBF224048EA0202AC
:100F08007A60BA684B6813F4801F0CBF224048EA25
:100F18000202BA60FB684A6812F4001F0CBF234043
:100F280048EA0303FB6001360C6834FA06F357D02D
:100F38000EFA06F515EA0408F5D04B6823F01003FD
:100F4800022BA1D00368740009FA04F2D24303EA21
:100F5800020B4B6803F00303A34043EA0B0303604F
:100F68004B6823F01003013B012B9FD9C3681A403B
:100F78008B6803FA04F41443C4604B6813F0805F71
:100F8800D1D0DCF8183043F00103CCF81830DCF885
:100F9800183003F001030193019B26F0030303F1CA
:100FA800804303F580339D6806F0030294000AFA33
:100FB80004F225EA0205B0F1904F8AD00B4A90421C
:100FC8000AD002F58062904208D002F58062904211
:100FD8000CBF032205227DE772467BE7022279E7F0
:100FE80003B0BDE8F08F00BF0004014000040048D2
:100FF800001002400AB981627047816170470000A1
:10100800002861D010B582B0044690F83230DBB2C7
:10101800052B5BD090F83230DBB2022B58D02E4B28
:101028009A6942F001029A619B6903F001030193F6
:10103800019B90F832300BB980F83130204602F02D
:101048009FF8636823F02002402A24D022681168A0
:10105800A0680343E06803432069034360690343CE
:10106800A0690343E0690343206A0343606A0343BA
:10107800A06A43EAC043E06A43EA006317480840AD
:101088000343136094F8323023BB012384F83230D1
:10109800002002B010BD21680868E2681343226985
:1010A8001343A2691343E2691343226A1343626A32
:1010B8001343A26A43EAC243E26A43EA0263074A65
:1010C800024013430B60DDE7012070470120E0E791
:1010D8000120DEE70020DCE700100240113800E0C4
:1010E800A8B190F83230DBB2052B12D090F832302C
:1010F800DBB2012B01D00120704701680B6843F077
:1011080001030B60042380F832300020704701206F
:10111800704701207047002800F0B4802DE9F8439B
:10112800044690F83230DBB2052B00F0AD8090F821
:101138003230DBB2012B02D00120BDE8F88302680F
:10114800136843F0020313600268136843F48023B2
:1011580013600268136843F400631360026813683D
:1011680043F4405313600268136843F001031360AB
:101178000427082610254FF002082268136823F078
:10118800F85343EA056313604046FFF72DFD2368D3
:101198001A6812F0804F14BFAD19AD1B7608013FD5
:1011A800EBD11A6822F0F85242EA05621A6002206E
:1011B800FFF71AFD23681A6812F0804F06D0013530
:1011C8001A6822F0F85242EA05621A602268136827
:1011D80023F4405343F4805313604FF00408082766
:1011E80010264FF002092268136823F4780343EAB3
:1011F800C64313604846FFF7F7FC23681A6812F0E5
:10120800804F14BFF619F61B7F08B8F10108EAD120
:101218001A6822F4780242EAC6421A600220FFF7EE
:10122800E3FC23681A6812F0804F06D001361A686A
:1012380022F4780242EAC6421A602268136823F44C
:10124800006313602268136823F0010313602268A7
:10125800136823F002031360E562A6624FF480234B
:1012680063622268136823F4780343EAC64616606B
:101278002268136823F0F85343EA056515600020D7
:10128800BDE8F883012070470120BDE8F88300001D
:10129800002800F0E4822DE9F04383B00446036897
:1012A80013F0010F62D0B34B5B6803F00C03042BFF
:1012B80045D0B04B5B6803F00C03082B3AD0636849
:1012C800B3F5803F00F08D80002B40F0908003F153
:1012D800804303F504331A6822F480321A601A68CE
:1012E80022F480221A60A34AD36A23F00F03A1686C
:1012F8000B43D3626368002B00F09380FFF76EFC0A
:1013080080464FF400359B4F012695FAA5F33A68BD
:1013180095FAA5F3B3FA83F303F01F0306FA03F370
:10132800134223D1FFF75AFCA0EB08006428ECD93C
:1013380003209DE28F4B5B6813F4803FBFD04FF4CE
:10134800003393FAA3F38B4B19684FF4003393FAE5
:10135800A3F3B3FA83F303F01F03012202FA03F3A2
:101368000B4203D06368002B00F07B82236813F0E4
:10137800020F00F09A807F4B5B6813F00C0F71D05E
:101388007C4B5B6803F00C03082B66D02369002BA9
:1013980000F0C980012292FAA2F3B3FA83F303F1B1
:1013A800845303F584139B001A60FFF717FC8046EB
:1013B8000225704F012695FAA5F33A6895FAA5F328
:1013C800B3FA83F303F01F0306FA03F3134240F062
:1013D8009C80FFF703FCA0EB08000228EBD9032050
:1013E80046E2644A136843F4803313607BE7B3F53D
:1013F800A02F09D05F4B1A6822F480321A601A684D
:1014080022F480221A606EE703F18043A3F53C338F
:101418001A6842F480221A601A6842F480321A600C
:1014280061E7FFF7DBFB80464FF40035514F01269B
:1014380095FAA5F33A6895FAA5F3B3FA83F303F09E
:101448001F0306FA03F3134290D0FFF7C7FBA0EB84
:1014580008006428ECD903200AE2464B5B6813F4C1
:10146800803F93D1022393FAA3F3424B19680223D6
:1014780093FAA3F3B3FA83F303F01F03012202FAEA
:1014880003F30B4204D02369934201D00120EFE11A
:1014980038480168F82393FAA3F3B3FA83F263692F
:1014A800934021F0F80213430360236813F0080FF8
:1014B80000F08D80A369002B60D0012191FAA1F280
:1014C800B2FA82F22C4B13449B001960FFF786FB9B
:1014D80080460225274F012695FAA5F395FAA5F32C
:1014E80095FAA5F37A6A95FAA5F3B3FA83F303F0AC
:1014F8001F0306FA03F3134269D1FFF76FFBA0EB52
:1015080008000228E8D90320B2E11A480168F82344
:1015180093FAA3F3B3FA83F26369934021F0F802D4
:1015280013430360C1E7012393FAA3F3B3FA83F3E8
:1015380003F1845303F584139B0000221A60FFF71C
:101548004DFB804602250B4F012695FAA5F33A6814
:1015580095FAA5F3B3FA83F303F01F0306FA03F32E
:101568001342A2D0FFF73AFBA0EB08000228ECD9FF
:1015780003207DE10010024020819010012292FAA0
:10158800A2F2B2FA82F2BD4B13449B0000221A6009
:10159800FFF724FB80460225B94F012695FAA5F3EB
:1015A80095FAA5F395FAA5F37A6A95FAA5F3B3FA2D
:1015B80083F303F01F0306FA03F3134207D0FFF780
:1015C8000DFBA0EB08000228E8D9032050E12368AE
:1015D80013F0040F00F0AA80A94BDB6913F0805FB9
:1015E8002BD1A74BDA6942F08052DA61DB6903F04C
:1015F80080530193019B4FF00109A24B1B6813F420
:10160800807F1DD0E368012B2ED0002B32D103F14F
:10161800804303F504331A6A22F001021A621A6A37
:1016280022F004021A62E368002B57D0FFF7D6FABB
:1016380080460225924F012646E04FF00009DCE77C
:10164800904A136843F480731360FFF7C7FA06469D
:101658008C4D2B6813F4807FD4D1FFF7BFFA801B21
:101668006428F6D9032003E1854A136A43F001038D
:101678001362D8E7052B09D0814B1A6A22F00102C0
:101688001A621A6A22F004021A62CCE77C4B1A6AC0
:1016980042F004021A621A6A42F001021A62C2E7B0
:1016A8003A6A95FAA5F3B3FA83F303F01F0306FA2F
:1016B80003F3134237D1FFF791FAA0EB080041F288
:1016C8008833984200F2CF8095FAA5F395FAA5F3EE
:1016D800002BE5D195FAA5F37A6AE2E7FFF77EFADF
:1016E80080460225664F012613E03A6A95FAA5F36B
:1016F800B3FA83F303F01F0306FA03F3134212D07D
:10170800FFF76CFAA0EB080041F28833984200F228
:10171800AC8095FAA5F395FAA5F3002BE5D195FAD7
:10172800A5F37A6AE2E7B9F1000F34D1E369002B37
:1017380000F09D80524A526802F00C02082A00F01C
:101748009A80022B2DD04FF0807393FAA3F3B3FA4B
:1017580083F303F1845303F584139B0000221A607A
:10176800FFF73CFA07464FF00074454E012594FAFE
:10177800A4F3326894FAA4F3B3FA83F303F01F03D3
:1017880005FA03F3134268D0FFF728FAC01B0228B2
:10179800EDD903206CE03A4AD36923F08053D36132
:1017A800C4E74FF0807393FAA3F3B3FA83F303F11A
:1017B800845303F584139B0000221A60FFF70EFA86
:1017C80080464FF000752E4F012695FAA5F33A682A
:1017D80095FAA5F3B3FA83F303F01F0306FA03F3AC
:1017E800134207D0FFF7FAF9A0EB08000228ECD95A
:1017F80003203DE022494A68636A206A034322F4D1
:10180800741213434B604FF0807393FAA3F3B3FA47
:1018180083F303F1845303F584139B0001221A60B8
:10182800FFF7DCF907464FF00074154E012594FACE
:10183800A4F3326894FAA4F3B3FA83F303F01F0312
:1018480005FA03F3134206D1FFF7C8F9C01B0228B3
:10185800EDD903200CE000200AE0002008E0012078
:101868007047012004E0032002E0032000E000208C
:1018780003B0BDE8F0830120FAE700BF2081901093
:10188800001002400070004070B586B00D46164644
:101898000223029303230493002303934FF48072DB
:1018A800019205930B4C636943F4003363616369E8
:1018B80003F400330093009B01A94FF09040FFF719
:1018C800D1FA616821F0EE4131432943616006B0E5
:1018D80070BD00BF00100240144B5B6803F00C029F
:1018E800082A21D14FF4701292FAA2F2B2FA82F2C7
:1018F80003F4701121FA02F20D49885C0B4AD26A8E
:101908000F2191FAA1F1B1FA81F102F00F02CA4058
:1019180008498A5C13F4803F1ABF074BB3FBF2F304
:10192800064B03FB00F07047034870470010024065
:10193800C0440008D044000800127A0000093D00A5
:10194800002800F0C8802DE9F0410446644B1B686C
:1019580003F007038B420DD2614A136823F0070393
:101968000B431360136803F00703994202D0012068
:10197800BDE8F081236813F0020F06D0594A536876
:1019880023F0F003A068034353600D46236813F067
:10199800010F5ED06268012A2FD0022A43D00223A9
:1019A80093FAA3F34F4B1868022393FAA3F3B3FAFD
:1019B80083F303F01F03012101FA03F3034200F04C
:1019C8008C8048494B6823F0030313434B60FFF7AF
:1019D80005F98046434E41F28837736803F00C03DB
:1019E8006268B3EB820F34D0FFF7F8F8A0EB080079
:1019F800B842F2D90320BDE8F0814FF4003393FADE
:101A0800A3F3384B18684FF4003393FAA3F3B3FAEF
:101A180083F303F01F03012101FA03F30342D0D13A
:101A28000120BDE8F0814FF0007393FAA3F32D4B2A
:101A380018684FF0007393FAA3F3B3FA83F303F033
:101A48001F03012101FA03F30342BAD10120BDE8C3
:101A5800F081234B1B6803F007039D420DD2204AF7
:101A6800136823F007032B431360136803F007037D
:101A78009D4202D00120BDE8F081236813F0040FD5
:101A880006D0184A536823F4E063E1680B435360B7
:101A9800236813F0080F07D0124A5368216923F40A
:101AA800605343EAC1035360FFF716FF0D4B5B68B1
:101AB800F02292FAA2F2B2FA82F203F0F003D340D3
:101AC800094AD35CD840094B18600020FFF742F858
:101AD8000020BDE8F081012070470120BDE8F081B9
:101AE800002002400010024050480008100000206A
:101AF800014B1868704700BF10000020084B5B6856
:101B08004FF4E06292FAA2F2B2FA82F203F4E063CE
:101B1800D340044AD35C044A1068D840704700BFD9
:101B28000010024060480008100000200268D368D6
:101B380043F00103D3600268136843F001031360A4
:101B4800002070477047704770477047704770476C
:101B580010B5044603681A6912F0020F11D0DA684A
:101B680012F0020F0DD06FF002021A610123037701
:101B780003689B6913F0030F79D0FFF7E6FF002392
:101B8800237723681A6912F0040F12D0DA6812F06A
:101B9800040F0ED06FF004021A6102232377236822
:101BA8009B6913F4407F68D02046FFF7CEFF0023DF
:101BB800237723681A6912F0080F12D0DA6812F036
:101BC800080F0ED06FF008021A61042323772368E8
:101BD800DB6913F0030F57D02046FFF7B6FF002349
:101BE800237723681A6912F0100F12D0DA6812F0FE
:101BF800100F0ED06FF010021A61082323772368A4
:101C0800DB6913F4407F46D02046FFF79EFF002390
:101C1800237723681A6912F0010F03D0DA6812F0EB
:101C2800010F3FD123681A6912F0800F03D0DA68D8
:101C380012F0800F3DD123681A6912F4807F03D017
:101C4800DA6812F0800F3BD123681A6912F0400F4E
:101C580003D0DA6812F0400F39D123681A6912F0FC
:101C6800200F03D0DA6812F0200F37D110BDFFF72C
:101C78006BFF2046FFF76AFF81E72046FFF764FF06
:101C88002046FFF763FF92E72046FFF75DFF2046F7
:101C9800FFF75CFFA3E72046FFF756FF2046FFF754
:101CA80055FFB4E76FF001021A612046FFF74BFFBA
:101CB800B8E76FF080021A61204600F05AFBBAE7D5
:101CC8006FF480721A61204600F054FBBCE76FF095
:101CD80040021A612046FFF73AFFBEE76FF0200284
:101CE8001A61204600F044FBC0E7000003683C4A44
:101CF800904221D0B0F1804F3FD0A2F5943290426B
:101D080015D002F59E3290423CD002F58062904296
:101D18004AD002F58062904254D023F080034A6989
:101D2800134303608B68C3620B68836239E023F056
:101D380070034A68134303E023F070034A681343AF
:101D480023F44073CA68134323F080034A6913439A
:101D580003608B68C3620B688362214B98421ED074
:101D680003F5A05398421AD003F58063984216D021
:101D780003F58063984214D111E023F070034A6898
:101D88001343DDE723F44073CA68134323F0800349
:101D98004A69134303608B68C3620B6883620B69EB
:101DA800036301234361704723F44073CA681343F4
:101DB80023F080034A69134303608B68C3620B688E
:101DC8008362ECE723F44073CA68134323F080036B
:101DD8004A69134303608B68C3620B688362DEE75A
:101DE800002C0140A8B110B5044690F83D305BB115
:101DF800022384F83D30211D2068FFF777FF012377
:101E080084F83D30002010BD80F83C3001F0D0F956
:101E1800EEE701207047A8B110B5044690F83D30B0
:101E28005BB1022384F83D30211D2068FFF75EFF77
:101E3800012384F83D30002010BD80F83C30FFF7C6
:101E480081FEEEE70120704770B4036A23F00103B6
:101E58000362036A4468826922F4803222F07302C2
:101E68000D682A4323F002038D682B431B4DA842BB
:101E780012D005F5A055A8421BD005F58065A842EB
:101E88001ED005F58065A84221D0446082614A6869
:101E98004263036270BC704723F00803CD682B438C
:101EA80023F0040324F440744D698E6935432C43B0
:101EB800EBE723F00803CD682B4323F00403F1E795
:101EC80023F00803CD682B4323F00403EAE723F04B
:101ED8000803CD682B4323F00403E3E7002C0140FB
:101EE80070B4036A23F010030362036A44688269CA
:101EF80022F0807222F4E6420D6842EA052223F0BD
:101F080020038D6843EA0513114DA8420AD0114DEC
:101F1800A8420ED0104DA8420BD005F58065A84206
:101F28000ED106E023F08003CD6843EA051323F0C1
:101F3800400324F440644D698E69354344EA8504BE
:101F4800446082614A688263036270BC704700BF64
:101F5800002C0140004001400044014070B4036A75
:101F680023F480730362036A4468C26922F48032EE
:101F780022F073020D682A4323F400738D6843EA44
:101F88000523114DA8420AD0104DA8420ED0104D7D
:101F9800A8420BD005F58065A8420ED106E023F4CF
:101FA8000063CD6843EA052323F4806324F4405496
:101FB8004D698E69354344EA05144460C2614A6834
:101FC800C263036270BC7047002C014000400140AE
:101FD8000044014030B4036A23F480530362026A68
:101FE8004468C36923F0807323F4E6430D6843EA29
:101FF800052322F400528D6842EA05320D4DA842AD
:102008000BD005F5A055A84207D005F58065A84274
:1020180003D005F58065A84204D124F480444D69B5
:1020280044EA85144460C3614B680364026230BCAF
:10203800704700BF002C014010B4846824F47F442A
:102048000A4342EA0323234383605DF8044B704745
:1020580090F83C30012B00F0C08070B50446012395
:1020680080F83C30022380F83D30026890685C4B71
:10207800034093600B68402B00F0858021D9702BBA
:1020880057D036D8502B64D0602B4BD123684D687D
:10209800CE68186A20F01000186299691A6A21F44B
:1020A800704141EA063122F0A00242EA0512996124
:1020B8001A622268936823F0700343F06703936001
:1020C80030E0102B79D00BD9202B7ED0302B29D1A2
:1020D8002268936823F0700343F03703936021E08C
:1020E80003BB2268936823F0700343F007039360EF
:1020F80018E0B3F5805F0ED0B3F5005F12D1CB685E
:102108004A6889682068FFF797FF2268936843F454
:102118008043936006E02268936823F4803323F0B9
:1021280007039360012384F83D30002084F83C00C5
:1021380070BDCB684A6889682068FFF77DFF226810
:10214800936823F4803323F0770343F07703936095
:10215800E8E723684868CE68196A1D6A25F0010512
:102168001D629A6922F0F00242EA061221F00A0181
:1021780001439A6119622268936823F0700343F05F
:1021880057039360CEE723684868CE68196A1D6ACA
:1021980025F001051D629A6922F0F00242EA061252
:1021A80021F00A0101439A6119622268936823F0B9
:1021B800700343F047039360B4E72268936823F001
:1021C800700343F017039360ACE72268936823F029
:1021D800700343F027039360A4E70220704700BF11
:1021E8008800FEFF30B4036A23F480330362026A76
:1021F8004468436D23F4803323F070030D682B4348
:1022080022F400328D6842EA05420D4DA8420BD0F7
:1022180005F5A055A84207D005F58065A84203D06A
:1022280005F58065A84204D124F480344D6944EA58
:102238000524446043654B688365026230BC70477F
:10224800002C014030B4036A23F480130362026A4D
:102258004468436D23F0807323F4E0430D6843EA38
:10226800052322F400128D6842EA05520D4DA8425A
:102278000BD005F5A055A84207D005F58065A84202
:1022880003D005F58065A84204D124F480244D6963
:1022980044EA8524446043654B68C365026230BCE8
:1022A800704700BF002C014090F83C30012B34D01F
:1022B80010B50446012380F83C30022380F83D30F5
:1022C800142A0FD8DFE802F00B0E0E0E150E0E0EB4
:1022D800190E0E0E1D0E0E0E210E0E0E2500006894
:1022E800FFF7B2FD012384F83D30002084F83C005C
:1022F80010BD0068FFF7F4FDF4E70068FFF72EFE55
:10230800F0E70068FFF766FEECE70068FFF76AFF92
:10231800E8E70068FFF796FFE4E70220704700004F
:1023280090F83C30012B1FD030B4012380F83C30AA
:1023380004686368A2680D4DAC4210D023F07003A6
:102348000D682B4322F0800289680A4363600368A2
:102358009A60002380F83C30184630BC704723F45C
:1023680070034D682B43E9E702207047002C0140B9
:102378007047704770470268136823F490731360BE
:102388000268936823F001039360202380F86A3081
:10239800704770477047704708B5406A0023A0F837
:1023A8005A30A0F85230FFF7F6FF08BD38B504469A
:1023B80001680868A3682269134362691343E269E4
:1023C8001343584A024013430B602268536823F4AE
:1023D8004053E1680B43536021688A68A369206A07
:1023E800034322F4306213438B6025684E4B9D42B1
:1023F80014D04E4B9D426ED003F580639D426AD047
:10240800E369B3F5004F5ED10120002323F00F02EA
:102418002168C3F342031343CB6038BD03F5584327
:102428001B6B03F00303032B4FD8DFE803F00230E4
:102438003F1FE369B3F5004F51D1FFF75FFB6268B7
:10244800530803EB4003B3FBF2F39BB20020DDE734
:102458006268530803F5740303F51053B3FBF2F3F2
:102468009BB20020D2E701200023CFE7E369B3F550
:10247800004FEDD06268530803F5F40303F5905359
:10248800B3FBF2F39BB2284AD360002038BDE3695E
:10249800B3F5004F2ED1FFF71FFA6268530803EB1C
:1024A8004003B3FBF2F39BB20020AFE7E369B3F557
:1024B800004F2BD16268530803F58033B3FBF2F366
:1024C8009BB20020A2E7012038BDE369B3F5004FB5
:1024D800C9D0012038BDE369B3F5004FADD0FFF78F
:1024E8000DFB636800EB5300B0FBF3F080B2E860CB
:1024F800002038BDFFF7F0F9636800EB5300B0FB2C
:10250800F3F080B2084BD860002038BD62685308E9
:1025180003F50043B3FBF2F39BB2034AD3600020F8
:1025280038BD00BFF369FFEF0038014000440040A8
:10253800436A13F0010F06D00268536823F400338E
:10254800816A0B435360436A13F0020F06D0026896
:10255800536823F48033C16A0B435360436A13F012
:10256800040F06D00268536823F48023016B0B43E1
:102578005360436A13F0080F06D00268536823F4C7
:102588000043416B0B435360436A13F0100F06D0AE
:102598000268936823F48053816B0B439360436A0A
:1025A80013F0200F06D00268936823F40053C16B20
:1025B8000B439360436A13F0400F0AD002685368D4
:1025C80023F48013016C0B435360036CB3F5801F35
:1025D8000BD0436A13F0800F06D00268536823F4C7
:1025E8000023816C0B43536070470268536823F4DF
:1025F800C003416C0B435360EBE72DE9F0410746FC
:102608000E4615469846069C3A68D36936EA03038F
:102618000CBF01230023AB421ED1B4F1FF3FF4D01D
:102628002CB1FEF7DBFAA0EB08008442ECD23A6842
:10263800136823F4D07313603A68936823F0010396
:102648009360202387F8693087F86A30002387F879
:1026580068300320BDE8F0810020BDE8F08130B586
:1026680083B004460023C366FEF7B8FA054623681C
:102678001B6813F0080F0ED123681B6813F0040FB2
:1026880017D1202384F8693084F86A30002084F850
:10269800680003B030BD6FF07E430093034600220C
:1026A8004FF400112046FFF7A8FF0028E4D00320CC
:1026B800EFE76FF07E4300932B4600224FF4800132
:1026C8002046FFF79AFF0028DBD00320E1E778B324
:1026D80010B5044690F869300BB3242384F86930A8
:1026E8002268136823F0010313602046FFF75EFE9B
:1026F80001281FD0636ABBB92268536823F490434A
:1027080053602268936823F02A0393602268136851
:1027180043F0010313602046FFF7A1FF10BD80F8C6
:10272800683000F06BFDD8E72046FFF701FFE3E7CC
:102738000120704710BD90F86930DBB2212B01D021
:1027480002207047B0F852309BB28BB18368B3F562
:10275800805F19D00268C36C591CC1641B7813854B
:10276800B0F85230013B9BB2A0F8523000207047BD
:102778000268136823F0800313600268136843F04B
:1027880040031360002070470369002BE2D1026800
:10279800C36C1B88C3F308031385C36C0233C3647B
:1027A800DEE708B501680B6823F040030B602023BF
:1027B80080F86930FFF7EDFD002008BD90F86A3019
:1027C800DBB2222B06D00268936943F008039361B9
:1027D8000220704710B5B0F85C1003689B8C9BB260
:1027E8008268B2F5805F0DD0426D541C44650B4081
:1027F8001370B0F85A30013B9BB2A0F85A305BB165
:10280800002010BD0269002AEED1426D0B401380F2
:10281800436D02334365ECE70268136823F4907351
:1028280013600268936823F001039360202380F803
:102838006A30FFF7AFFD002010BD000038B5044630
:102848000268D369116813F00F0F48D113F0200FF5
:1028580002D011F0200F13D1906813F4801F02D01A
:1028680010F4800F27D113F0800F02D011F0800FE1
:102878002DD113F0400F02D011F0400F2BD138BDED
:10288800FFF79CFF38BD13F0040F4FD0002D4DD03B
:1028980045E02046FFF792FF5EE02046FFF77BFD0C
:1028A80038BD2046FFF777FD38BD2046FFF773FD9A
:1028B8000023E36638BD4FF480131362202384F8A5
:1028C800693084F86A30204600F06CF838BD20463C
:1028D800FFF731FF38BD2046FFF763FF38BD90682A
:1028E80010F0010502D111F4907FB6D013F0010F5A
:1028F80007D011F4807F04D001201062E26E0243F9
:10290800E26613F0020FBED085B122680220106281
:10291800E26E42F00402E26613F0040F06D0226869
:1029280004201062E26E42F00202E26613F0080F21
:1029380009D011F0200F00D12DB1226808201062B3
:10294800E26E0243E266E26E002A98D013F0200F8E
:1029580002D011F0200F9CD1E36E13F0080F04D1C0
:1029680023689B6813F0400F9FD02046FFF703FDB4
:1029780023689A6812F0400F93D09A6822F04002B8
:102988009A60636E002B88D0054A5A63606EFEF722
:1029980043FA00283FF473AF606E436B984738BD25
:1029A800A1230008704700000F4B18700F4B1970D7
:1029B80000230F4A136001210E4A11600E490B6073
:1029C8000E4A13600968136800EB800200EB4202AC
:1029D8001A440B4B53F820300A4850F8222013446D
:1029E8000B44094A13607047480000206802002021
:1029F80070020020740200207C0200203C000020AD
:102A08005C470008E0440008440000200023024A14
:102A18001360024A13607047400000206C020020D7
:102A28000022044B1A600123034A1360034A13600F
:102A3800704700BF78020020880200204000002074
:102A480010B5314B1A68314B1B689A4239D3304B59
:102A58001B78304A116803EB830203EB42020A44F5
:102A68002D4951F8222012B92C4B1A6010BD294C5F
:102A780020682B4A127802EB820102EB41022949B5
:102A88000A44115C284A1170226803EB830103EBA6
:102A980041031344254A52F82320254B1A60FFF7B7
:102AA800BFFF2168234B1A68194B1B7803EB83007F
:102AB80003EB40030B44204951F823301344134AD5
:102AC8001360114B1A681B4B1B689A421AD30022D9
:102AD8001A4B1A600E4B19780C4B1C680D4803688A
:102AE80001EB810201EB42021A44154B53F82130E5
:102AF800094951F82220134423440E4A13600368FD
:102B08000133036010BD00BF700200207C0200206A
:102B1800480000203C000020E04400087402002027
:102B280068020020EC47000884020020D84600080C
:102B38008002002044000020684700088802002026
:102B48005C4700081A4B1B689BB11A4B1A681A4B52
:102B58001B689A4202DB174A1360704717490878C6
:102B6800174951F8201093FBF1F31344114A1360ED
:102B78007047104B1B68002B0EDD104A10780E4A68
:102B88001268104951F8201092FBF1F29B1A094A79
:102B98001360002B00DD70470B4B1B68002BFAD02D
:102BA8000022044B1A600122084B1A60F3E700BFA9
:102BB80088020020780200208002002048000020BF
:102BC8005C47000864450008400000206C020020B3
:102BD8002DE9F84F2DED028B2B4DDFF8B8A005F548
:102BE800B47B0026294F4FF0000904E00AF13C0AA3
:102BF8004546C3453AD005F1280854461EA3D3E9F3
:102C08000023F5E80201FDF7BDFDFDF753FFFDF7D1
:102C18003BFC1BA3D3E90023FDF78AFC41EC180B0E
:102C280041EC100B00F0B4FB32463B4651EC100B64
:102C3800FDF77EFCFDF716FF2080C4F80490B0EE87
:102C4800480AF0EE680A00F0E7FB0022104B51EC4E
:102C5800100BFDF76DFC32463B46FDF769FCFDF7AE
:102C680001FFA0600C344545C8D1BFE7BDEC028B1D
:102C7800BDE8F88FAFF3008000000000006AD8407C
:102C88004AD8124DFB211940704500080000E04069
:102C9800000049404C00002008B5FFF7B7FEFFF7D9
:102CA80097FF08BDF8B5294BD3F800E000F10C01F7
:102CB800274D4830002451F808CC31F90C2CD31793
:102CC8006646F71702FB07F60CFB0363A2FB0C67CB
:102CD8001F44B30B43EA874351F8042C9B1A41F86D
:102CE80004CC41F8083C15F8012B0EFB02F2121235
:102CF80003FB02F304EB23240C318142DBD14FF6B2
:102D0800F07303EA2423134D03F500430422002142
:102D18002846FEF704F800212846FEF717F8002C8D
:102D280003DB0D4B1B68002B02DD0B4B1C60F8BD51
:102D38000A4B1B68002BF8D0094B1B68002BF4D1F9
:102D4800084A1360054A1360EFE700BF78020020C5
:102D580008000020C0020020300000206C02002083
:102D6800880200204000002008B5124B1B6833B9C8
:102D7800114A136801331360192B0AD008BD0F4B91
:102D88001878C0EB00100E4B03EB8000FFF78AFFAA
:102D9800EEE70C4B1B684BB90022074B1A600A4A36
:102DA800136801331360FFF7CDFEE7E7FFF748FE2E
:102DB800F2E700BF40000020340000208402002019
:102DC8004C000020740200207002002008B541F277
:102DD8008830FDF709FF06210020FFF7E5FD41F6E1
:102DE8005830FDF701FF06210020FFF7DDFD08BD83
:102DF80000B591B00223069301220A9210220B9289
:102E08000D9300230E934FF430130F9306A8FEF78B
:102E18003FFA40BB0F230193022102910023039341
:102E28004FF480620492059301A8FEF789FDD8B992
:102E38004FF0E0424FF080610020FEF725FDFEF7DD
:102E480057FE0A4BA3FB00308009FDF72FFF042033
:102E5800FDF742FF002211464FF0FF30FDF7EAFE72
:102E680011B05DF804FBFEE7FEE700BFD34D62102A
:102E780080B592B0FDF794FEFFF7BAFF814B5A690F
:102E880042F480025A615A6902F480020192019A5E
:102E98005A6942F400325A615A6902F400320292C5
:102EA800029A5A6942F480225A615B6903F48023CA
:102EB8000393039B744D002208212846FEF79AF8D5
:102EC80002270B9703260C9600240D940BA96F4834
:102ED800FDF7C8FF40F623630B930C960D940BA9DE
:102EE8004FF09040FDF7BEFFF3230B930C960D9423
:102EF8000BA92846FDF7B6FF4FF480730B930C9788
:102F08000D940E940F940BA94FF09040FDF7AAFF73
:102F18004FF480530B930C940D940BA94FF09040F1
:102F2800FDF7A0FF08230B9301230C930D940E9437
:102F38000BA92846FDF796FF5548564B0360FDF749
:102F4800DCFE002840F093803C230B9300220C9277
:102F58000BA94F48FDF72AFF002840F089804E480A
:102F68004E4B0360602343600C23C360002303615E
:102F78004FF4802242628362C362FEF741F8002860
:102F880077D14548FEF7C7F8002873D14448454B28
:102F980003604FF41643436000238360C3600361FA
:102FA8000C2242618361C36103624362FFF78FFBB6
:102FB800002860D13C484FF0804303600023436001
:102FC800836040F61F02C260036180238361FEF7BD
:102FD80009FF002850D112A94FF4805341F82C3D25
:102FE8003148FFF735F8002847D12F48FEF713FF7F
:102FF800002843D1202304930023069304A92A48D8
:10300800FFF78EF900283AD100220B920C920D920C
:103018000F920BA92448FFF747F988BB00221146F5
:103028001820FDF707FE1820FDF734FE0022114690
:103038002620FDF7FFFD2620FDF72CFE0022114675
:103048001C20FDF7F7FD1C20FDF724FE104B1A6825
:10305800136843F0010313600F48FEF741F8FFF7C8
:103068001BFE1148FEF762FDFFF7B0FEFCE7FEE726
:10307800FEE7FEE7FEE7FEE7FEE7FEE7FEE7FEE720
:10308800FEE700BF0010024000040048001400489A
:10309800C0020020007400408C0200203C00014067
:1030A80054030020004400401403002000B583B0FE
:1030B800214B9A6942F001029A619A6902F0010271
:1030C8000092009ADA6942F08052DA61DB6903F013
:1030D80080530193019B0320FDF79AFD00221146BE
:1030E8006FF00B00FDF7A6FD002211466FF00A00F5
:1030F800FDF7A0FD002211466FF00900FDF79AFDCB
:10310800002211466FF00400FDF794FD00221146DD
:103118006FF00300FDF78EFD002211466FF00100ED
:10312800FDF788FD002211464FF0FF30FDF782FDC4
:1031380003B05DF804FB00BF0010024002680F4BAB
:103148009A4200D0704700B587B003F5CE33DA69EC
:1031580042F00052DA61DB6903F000530093009BF0
:1031680010230193032302930023039301A94FF033
:103178009040FDF777FE07B05DF804FB007400404F
:1031880002680A4B9A4200D0704700B587B0C02346
:103198000193032302930023039301A94FF0904066
:1031A800FDF760FE07B05DF804FB00BF3C0001407E
:1031B80082B00368B3F1804F04D00E4A93420DD019
:1031C80002B0704703F50433DA6942F00102DA61AC
:1031D800DB6903F001030093009BF1E7064B9A6952
:1031E80042F480329A619B6903F480330193019B16
:1031F800E6E700BF00400140001002400268124BA1
:103208009A4200D0704700B587B003F5E633DA6913
:1032180042F40032DA61DB6903F400330093009B67
:1032280048F2040301930223029300230393032328
:1032380004930723059301A94FF09040FDF712FE70
:1032480007B05DF804FB00BF004400407047FEE78C
:10325800FEE7FEE7FEE770477047704708B5FDF7E1
:10326800B1FCFDF746FD08BD08B5FFF77DFD024836
:10327800FEF76EFC08BD00BF1403002008B5024825
:10328800FFF7DCFA08BD00BF540300201549D1F848
:10329800883043F47003C1F88830134B1A6842F041
:1032A80001021A605868114A02405A601A6822F0EE
:1032B800847222F480321A601A6822F480221A601A
:1032C8005A6822F4FE025A60DA6A22F00F02DA62C1
:1032D800186B074A02401A6300229A604FF0006395
:1032E8008B60704700ED00E0001002400CC07FF8D2
:1032F800CCFC00FFDFF834D0002103E00C4B5B5816
:10330800435004310B480C4B42189A42F6D30B4AEF
:1033180002E0002342F8043B094B9A42F9D3FFF735
:10332800B5FF00F011F8FFF7A3FDFEE7003000201D
:10333800484A000800000020140000201400002063
:10334800C4030020FEE7000070B50D4E0D4CA41B11
:10335800A4100025A54209D10B4E0C4C01F0A0F891
:10336800A41BA4100025A54205D170BD56F8253030
:1033780098470135EEE756F8253098470135F2E7CA
:10338800404A0008404A0008404A0008444A0008E9
:103398001FB551EC100B1E4A21F00043934206DC86
:1033A8009FED191B00F074FA51EC100B07E0194A55
:1033B800934209DD10EE102A0B46FCF705FF41EC9D
:1033C800100B05B05DF804FB684600F06DF800F0DE
:1033D800030001289DED021B9DED000B07D002287C
:1033E8000ED00028DED0012000F08AFEDCE700F0D5
:1033F80087FE53EC102B10EE100A03F10041DEE7B4
:1034080000F046FAF5E700BF0000000000000000E9
:10341800FB21E93FFFFFEF7F1FB551EC100B204A5E
:1034280021F00043934207DC9FED1B1B002000F0B6
:1034380067FE51EC100B07E01A4A934209DD10EEC3
:10344800102A0B46FCF7C0FE41EC100B05B05DF8E6
:1034580004FB684600F028F800F0030001289DED01
:10346800021B9DED000B04D0022805D070B9012085
:10347800DDE700F00DFADCE7012000F041FE53EC37
:10348800102B10EE100A03F10041DDE700F000FAFE
:10349800F5E700BFAFF30080000000000000000067
:1034A800FB21E93FFFFFEF7F2DE9F04F57EC106B51
:1034B800C34B8DB027F0004898450446049707DCB5
:1034C8000022002384ED000BC0E90223002527E039
:1034D800BC4B984575DC049BBB4D002B10EE100AC5
:1034E800A9A3D3E90023394636DDFCF76DFEA845CC
:1034F80006460F4618D0A6A3D3E90023FCF764FEBE
:1035080002460B46C4E9002330463946FCF75CFE08
:103518009FA3D3E90023FCF757FEC4E90201012564
:1035280028460DB0BDE8F08F9BA3D3E90023FCF734
:103538004BFE9BA3D3E9002306460F46FCF744FE47
:1035480002460B46C4E9002330463946FCF73CFEE8
:1035580093A3D3E90023DEE7FCF738FEA845064627
:103568000F4616D08AA3D3E90023FCF72FFE0246A4
:103578000B46C4E9002330463946FCF725FE84A3F0
:10358800D3E90023FCF722FE4FF0FF35C4E902011E
:10359800C6E781A3D3E90023FCF718FE80A3D3E98B
:1035A800002306460F46FCF711FE02460B46C4E907
:1035B800002330463946FCF707FE79A3D3E90023F8
:1035C800E0E7824B984500F3D08000F053FE57ECBB
:1035D800106B10EE100A74A3D3E900233946FCF7E8
:1035E800A7FF00227A4BFCF7F1FDFDF73BFA0546F1
:1035F800FCF738FF64A3D3E90023CDE90201FCF707
:1036080097FF02460B4630463946FCF7DDFD60A3BE
:10361800D3E9002382468B46DDE90201FCF788FFE7
:103628001F2D06460F462ADC6A1E6A4B53F82230C5
:10363800984524D032463B4650465946FCF7C4FDCF
:10364800C4E90001D4E90089504642464B46594630
:10365800FCF7BAFD3B463246FCF7B6FD049B002B4F
:10366800C4E90201BFF65CAF09F100436360C4F826
:103678000080A06001F10043E3606D4250E73246EC
:103688003B4650465946FCF79FFD4FEA2852C1F386
:103698000A53D31A102BC4E900010592D2DD3EA3C8
:1036A800D3E90023DDE90201FCF742FF06460F4695
:1036B80002460B4650465946FCF786FD02460B4625
:1036C8008046894650465946FCF77EFD32463B46C1
:1036D800FCF77AFD32A3D3E9002306460F46DDE95D
:1036E8000201FCF725FF32463B46FCF76DFD02461A
:1036F8000B4606460F4640464946FCF765FD059AC7
:10370800C1F30A53D31A312BC4E900012ADD28A3D7
:10371800D3E90023DDE90201FCF70AFF06460F465C
:1037280002460B4640464946FCF74EFD02460B460C
:1037380082468B4640464946FCF746FD32463B46A4
:10374800FCF742FD1CA3D3E9002306460F46DDE93A
:103758000201FCF7EDFE32463B46FCF735FD064616
:103768000F4667E7C246CB466CE71B4B984535DDED
:1037780010EE102A3B4630463946FCF725FDC4E9D1
:103788000201C4E90001A1E600004054FB21F93F11
:103798003163621A61B4D03D0000601A61B4D03D53
:1037A8007370032E8A19A33B83C8C96D305FE43F49
:1037B8000000002E8A19A33BC14920259A837B3932
:1037C800FB21E93F7BD90240FB21F93FFB2139412D
:1037D8000000E03F68480008FFFFEF7F4FEA2855E8
:1037E800A5F21645A8EB055130460F46FDF73AF904
:1037F800FCF738FE02460B4630463946CDE906232B
:10380800FCF7E2FC00221F4BFCF792FE0F4606462F
:10381800FDF728F9FCF726FE02460B4630463946E6
:10382800CDE90823FCF7D0FC0022164BFCF780FEFC
:10383800CDE90A010DF130094FF0030800260027F1
:1038480032463B4679E9020108F1FF3AFDF7D8F81C
:10385800B0B90D4B0193022300932A4643462146F3
:1038680006A800F0FDF8049B002B0546BFF658AEED
:10387800636803F100436360E36803F10043FBE618
:10388800D046DDE700007041E8480008000000006D
:103898002DE9F04F59EC108B29F0004785B0B7F1AE
:1038A800795F8DED001B07DA10EE100A4946FDF727
:1038B800D9F8002800F0AA8042464B4640464946BF
:1038C800FCF736FE59A3D3E9002304460D46FCF75E
:1038D8002FFE58A3D3E90023FCF778FC22462B4699
:1038E800FCF726FE55A3D3E90023FCF76DFC22461E
:1038F8002B46FCF71DFE53A3D3E90023FCF766FC17
:1039080022462B46FCF714FE50A3D3E90023FCF70C
:103918005BFC22462B46FCF70BFE4EA3D3E90023A3
:10392800FCF754FC2B462246FCF702FE3A4B9F421A
:1039380082468B462CDC0022384B20462946FCF771
:10394800F7FD524606460F465B4620462946FCF7D9
:10395800EFFDDDE9002304460D4640464946FCF7E5
:10396800E7FD02460B4620462946FCF72DFC024699
:103978000B4630463946FCF727FC0B4628490246D9
:103988000020FCF721FC41EC100B05B0BDE8F08FDE
:10399800244B23499F42D7BFA7F50013224F00228B
:1039A8001646D4BF1F46002632463B460020FCF789
:1039B8000BFC0022CDE90201184B20462946FCF7F2
:1039C800B7FD32463B46FCF7FFFB524606460F461C
:1039D8005B4620462946FCF7ABFDDDE9002304469B
:1039E8000D4640464946FCF7A3FD02460B462046D5
:1039F8002946FCF7E9FB02460B4630463946FCF7F8
:103A0800E3FB02460B46DDE90201BAE70020044960
:103A1800B9E700BFAFF300803233D33F0000E03F87
:103A28000000F03F0000E93F0000D23FD43888BED4
:103A3800E9FAA8BDC4B1B4BD9EEE213EAD529C804A
:103A48004F7E923E9015CB19A001FA3E7751C116D0
:103A58006CC1563F4C5555555555A53F00000000C3
:103A68002DE9F04F2DED028BADF5197DD41E06938F
:103A78000291C34BA499099053F821300093069BF7
:103A8800013B0493182394FBF3F46FF0170324EA23
:103A9800E47404FB033303EB020A009B049A9FEDD2
:103AA800B48B03EB0208A59BA71A20AE03EB87098A
:103AB8000025454513DD9FEDAE8B0DF5E07B002617
:103AC800009B9E4232DC099B0393069B9D1920AB09
:103AD80003EBC503089359EC188B00271FE0EF424E
:103AE80007D459F82500FCF7BDFCE6E802010135CA
:103AF800DFE751EC180BF8E70899039D71E90223F9
:103B08000891F5E802010395FCF712FD02460B4601
:103B180040464946FCF75AFB013780468946049BD4
:103B28009F42E9DDEBE802890136C9E7009B009F67
:103B38000CAA02EB83030B93A59B03EB84030A9364
:103B480098AB07F1005B03EBC7030BF1FF3B53E9AD
:103B580028894FEACB030893089A98AB1344A3F13A
:103B6800980B0026BB1B002B77DC49EC108B5046CA
:103B780000F00EFC55EC104B00224FF07F5310EE76
:103B8800100A2946FCF7D4FC41EC100B00F07CFB32
:103B9800002251EC100B7B4BFCF7CAFC02460B468B
:103BA80020462946FCF710FB0D460446FCF75AFF51
:103BB8000390FCF757FC02460B4620462946FCF7C3
:103BC80003FBBAF1000F804689466BDD7A1E0CAB09
:103BD800CAF1180153F82200039C40FA01F31C446F
:103BE8008B40C01A0CAB039443F82200CAF11703A8
:103BF80040FA03FBBBF1000F62DD039B0022013397
:103C0800039314466FF07F41974200F38980BAF11D
:103C1800000F07DDBAF1010F00F09680BAF1020F2C
:103C280000F09C80BBF1020F4AD142464B4600206F
:103C38005549FCF7C9FA80468946002C40D05046C1
:103C48009FED4D0B00F0A4FB4046494653EC102B6A
:103C5800FCF7BAFA8046894632E000224B4B4046D0
:103C68004946FCF765FCFCF7FDFEFCF7FBFB002270
:103C7800474B04460D46FCF75BFC02460B464046A4
:103C88004946FCF7A1FAFCF7EDFE0CAB294643F8D0
:103C980026007BE902232046FCF798FA0136804685
:103CA80089465FE706D17B1E0CAA52F823004FEA2B
:103CB800E05B9FE70022374BFCF7C0FE68BB8346FA
:103CC8000022002340464946FCF79AFE002800F0EF
:103CD800C1807C1E2346002200998B425CDA002AB0
:103CE80040F08B8001246FF0030202FB04F30B9970
:103CF800CB58002B56D0089B98AA1344A3F1900BDD
:103D0800069BDD1920AB03EBC505E3197E1C039365
:103D1800039B9E4248DD1F4612E74FF0020B6CE7FB
:103D28000CAB53F822304CB92BB10CA8C3F18073FB
:103D380040F82230012301321C4665E70CA8CB1A53
:103D480040F822302346F6E77A1E0CAB53F82230AF
:103D5800C3F316030CA941F8223063E77A1E0CABB3
:103D680053F82230C3F31503F4E700BFAFF3008024
:103D78000000000000000000000000000000F03F0C
:103D8800304A0008000020400000F03F0000703E6C
:103D9800000070410000E03F0CA951F82310013BDE
:103DA8000A4399E70134A0E70A9B53F82600FCF779
:103DB80059FBE5E80201099B08951C4600274FF0CE
:103DC80000084FF00009049B9F4203DDEBE80289DD
:103DD80001369DE7089971E902230891F4E8020188
:103DE800FCF7A6FB02460B4640464946FCF7EEF9AF
:103DF800013780468946E6E7013C0CABAAF1180A70
:103E080053F82430002BF7D050469FEDB50B00F047
:103E1800BFFAE50098AB03EB050957EC106BA9F165
:103E28009809A046B8F1000F4DDA9FEDAF8B0DF55C
:103E3800907A002304935746049BB4EB030976D485
:103E4800AB4B1E4670AB03EBC9098DED068B4FF0EB
:103E580000085EE0CAF1000049EC108B00F098FA07
:103E680055EC104B0022A34B10EE100A2946FCF724
:103E7800E5FDF8B10022A04B20462946FCF758FB87
:103E8800FCF7F0FD0646FCF7EDFA0022994BFCF72B
:103E98004FFB0B46024629462046FCF795F9FCF7EE
:103EA800E1FD7C1C0CAB0AF1180A43F8270043F823
:103EB8002460A9E720462946FCF7D4FD0CAB3C4614
:103EC80043F82700A0E70CAB53F82800FCF7CAFA20
:103ED80032463B46FCF72CFB002269E90201864B7F
:103EE80030463946FCF724FB08F1FF3806460F46F2
:103EF80098E7F9E80223F6E80201FCF719FB024605
:103F08000B46DDE90601FCF761F9CDE9060108F188
:103F18000108009B984502DC049B9845E9DD049B59
:103F28009DED067B0133AAEC027B049384E7A49BF6
:103F3800032B5DD8DFE803F04B26260298AB1D441F
:103F4800A5F59C752E46A246BAF1000F6EDC2E46EA
:103F5800A246BAF1010F00F38A8000200021012C4B
:103F680000F3A680BBF1000F40F0A880DDE94823EC
:103F7800029CC4E90023DDE94A23C4E90401C4E939
:103F8800022335E0083548AB1D44264600200021B1
:103F9800002E3CDABBF1000F3FD0024601F100438E
:103FA800029DC5E9002302460B46DDE94801FCF7FE
:103FB8000BF94AAE0125AC4232DABBF1000F02D050
:103FC80001F100431946029BC3E9020110E098ABD6
:103FD8001D44A5F59C7500200021002C11DABBF1C9
:103FE800000F02D001F100431946029BC3E900010A
:103FF800039B03F007000DF5197DBDEC028BBDE8AE
:10400800F08F75E90223FCF7E1F8013CE5E775E973
:104018000223FCF7DBF8013EBAE702460B46BFE78E
:10402800F6E80223FCF7D2F80135C4E716ED027B67
:1040380056E9048953EC172B404649468DED007B21
:10404800FCF7C4F8CDE9040102460B464046494650
:10405800FCF7BAF8DDE90023FCF7B8F89DED047B1E
:1040680066E902010AF1FF3A06ED027B6CE716EDFC
:10407800027B56E9048953EC172B404649468DEDDF
:10408800007BFCF7A3F8CDE9040102460B46404645
:104098004946FCF799F8DDE90023FCF797F89DED10
:1040A800047B66E902010AF1FF3A06ED027B50E75C
:1040B80075E90223FCF78AF8013C50E7029A3B684D
:1040C80013607B68106103F100435360BB68936021
:1040D800FB6803F10043D36001F10043536187E7B4
:1040E800000000000000F03F000000000000000099
:1040F800F0490008000070410000703E0000000018
:104108002DE9F04F55EC104B85B025F00043B3F185
:10411800795F8DED001B029006DA10EE100A294631
:10412800FCF7A0FC002851D022462B462046294601
:10413800FCF7FEF982468B4602460B462046294686
:10414800FCF7F6F941A3D3E9002380468946504697
:104158005946FCF7EDF93FA3D3E90023FCF734F8FF
:1041680052465B46FCF7E4F93CA3D3E90023FCF78D
:104178002DF852465B46FCF7DBF93AA3D3E9002356
:10418800FCF722F852465B46FCF7D2F937A3D3E98D
:104198000023FCF71BF8029B06460F46DBB90246D4
:1041A8000B4650465946FCF7C3F925A3D3E900232B
:1041B800FCF70AF842464B46FCF7BAF902460B46AA
:1041C80020462946FCF702F804460D4645EC104BFC
:1041D80005B0BDE8F08F00221B4BDDE90001FCF7BC
:1041E800A7F93246CDE902013B4640464946FCF76D
:1041F8009FF902460B46DDE90201FBF7E5FF52464F
:104208005B46FCF795F9DDE90023FBF7DDFF0CA31E
:10421800D3E9002306460F4640464946FCF788F98D
:1042280002460B4630463946FBF7D0FF02460B469E
:1042380020462946FBF7C8FFC6E700BFAFF300805A
:10424800495555555555C53F0000E03F7CD5CF5AD7
:104258003AD9E53DEB9C2B8AE6E55A3E7DFEB157FF
:10426800E31DC73ED561C119A0012A3FA6F8101168
:104278001111813F53EC102B23F0004343EC102B1A
:10428800704700000000000051EC100B2DE9F041D0
:10429800C1F30A57A7F2FF36132E10EE108A0C4608
:1042A80010EE105A35DC002E17DA35A3D3E90023B7
:1042B800FBF78CFF00220023FCF7CAFB50B1002C4F
:1042C8005ADA24F0004353EA08032F4B4FF0000555
:1042D80018BF1C462146284625E02C4F374101EAE5
:1042E800070303431FD026A3D3E90023FBF76EFF80
:1042F80000220023FCF7ACFB0028EBD0002CBEBF4B
:104308004FF4801343FA06F6A41924EA070400259B
:10431800E0E7332E0BDDB6F5806F04D110EE102ADE
:104328000B46FBF753FF41EC100BBDE8F081A7F2F9
:1043380013474FF0FF3323FA07F73842F3D010A39F
:10434800D3E90023FBF742FF00220023FCF780FBA0
:104358000028BFD0002C02DA142E03D1013425EA3C
:104368000705B7E70123C6F1340603FA06F6354414
:10437800A84588BFE418F2E700252C46AAE700BF45
:104388009C7500883CE4377E0000F0BFFFFF0F00FB
:1043980070B555EC104BC5F30A5206462B46B2B918
:1043A80025F0004323433CD00022334B294610EE2E
:1043B800100AFCF7BDF8314A964204460D460B46F2
:1043C80013DA29A3D3E90023FCF7B2F80AE040F294
:1043D800FF718A420CD110EE102A2B46204629463E
:1043E800FBF7F4FE04460D461BE0C1F30A52363AC9
:1043F800324440F2FE718A420BDD45EC114B9FEDD1
:104408001C0B00F03FF81AA3D3E9002351EC100B62
:10441800DAE7002A08DD23F0FF4323F4E00343EA48
:10442800025545EC104B70BD12F1350F0DDA4CF208
:1044380050339E4245EC114BE1DC9FED0B0B00F035
:1044480021F809A3D3E90023E0E723F0FF4336323C
:1044580023F4E00343EA0255204629460022084B8C
:10446800B2E700BFAFF3008059F3F8C21F6EA50191
:104478009C7500883CE4377E00005043B03CFFFF49
:104488000000903C53EC102B11EE900A23F00041F1
:1044980000F0004041EA000343EC102B7047000095
:1044A800F8B500BFF8BC08BC9E467047F8B500BF19
:0844B800F8BC08BC9E467047E9
:1044C00002030405060708090A0B0C0D0E0F101055
:1044D0000102030405060708090A0B0C0D0E0F1054
:1044E0009600000096000000960000009600000074
:1044F0009600000096000000960000009600000064
:10450000960000009600000000000000C8000000B7
:10451000C8000000C800000000000000000000000B
:10452000000000000000000000000000000000008B
:104530000000000000000000C8000000C8000000EB
:10454000C8000000000000000000000000000000A3
:10455000000000000000000000000000000000005B
:10456000000000001E0000008C0000008C00000015
:10457000622D3E0500807B400000000000808B40E3
:104580000000000000A094400000000000809B405C
:10459000000000000030A140C5E5780522DE7E4025
:1045A000AE47E17A14DE8E40C3F5285C8F26974033
:1045B0000000000000DE9E40CDCCCCCCCC4AA34015
:1045C000C9569753025A804000000000005A90409C
:1045D0001B2FDD240687984000000000005AA040F1
:1045E000000000008070A4404485EAE6A25A8240A0
:1045F000713D0AD7A35A9240295C8FC2F5879B4030
:10460000713D0AD7A35AA240CDCCCCCC4CF1A640E8
:104610002FFCE07C0A9A844000000000009A94403D
:104620000000000000E79E4000000000009AA44047
:104630000000000080C0A940D74CBED9A6D3854059
:10464000D9CEF753E3D39540F6285C8FC25EA040E5
:1046500048E17A14AED3A5409A9999999948AB400C
:1046600069FCC22BE91F874052B81E85EB1F97409B
:104670003D0AD7A3F057A14052B81E85EB1FA740B3
:1046800066666666E6E7AC4015527E52ED7F88406E
:1046900052B81E85EB7F98403D0AD7A3F05FA24039
:1046A00052B81E85EB7FA84066666666E69FAE4000
:1046B000A5F5B70400808B400000000000809B40FF
:1046C0000000000000A0A440000000000080AB40FB
:1046D000000000000030B140AA000000FF00000010
:1046E000FF000000FF000000FF000000FF000000CE
:1046F000FF000000FF000000FF000000FF000000BE
:1047000000000000AA000000FF000000FF00000001
:10471000FF0000000000000000000000000000009A
:104720000000000000000000000000000000000089
:10473000AA000000FF000000FF000000FF000000D2
:104740000000000000000000000000000000000069
:104750000000000000000000000000002D0000002C
:104760003C0000003C0000004B0000004B0000003B
:104770002C0100004B000000260200004B0000004E
:104780004B0000002C0100004B0000004B0000001B
:1047900000000000C8000000C8000000C8000000C1
:1047A0000000000000000000000000000000000009
:1047B00000000000000000000000000000000000F9
:1047C000C8000000C8000000C80000000000000091
:1047D00000000000000000000000000000000000D9
:1047E00000000000000000000000000000000000C9
:1047F0000000000000000000020505080002050599
:104800000800000400000400040000040000060387
:10481000060300060306030008070605030807064B
:104820000503000001020305000102030500080161
:10483000050801080105080100080000080008003B
:10484000000800000200000000020000000000005C
:104850000000000000000000010203040607080930
:104860000000000001020304FB21F93FFB21094085
:104870007CD91240FB2119407A6A1F407CD9224022
:10488000BBFD2540FB2129403A462C407A6A2F4047
:104890005C4731407CD932409C6B3440BBFD354095
:1048A000DB8F3740FB2139401BB43A403A463C404D
:1048B0005AD83D407A6A3F404C7E40405C47414078
:1048C0006C1042407CD942408CA243409C6B4440D7
:1048D000AC344540BBFD4540CBC64640DB8F47402E
:1048E000EB584840FB21494083F9A200444E6E003A
:1048F000FC291500D1572700DD34F50062DBC0002C
:104900003C999500419043006351FE00BBDEAB0033
:10491000B761C5003A6E2400D24D42004906E0005E
:1049200009EA2E001C92D100EB1DFE0029B11C00EB
:10493000E83EA700F535820044BB2E009CE98400C8
:10494000B4267000417E5F00D69139005383390050
:104950009CF439008B5F840028F9BD00F81F3B00F0
:10496000DEFF97000F980500112FEF000A5A8B0009
:104970006D1F6D00CF7E360009CB2700464FB70074
:104980009E663F002DEA5F00BA277500E5EBC70081
:104990003D7BF100F739070092528A00FB6BEA0079
:1049A0001FB15F00085D8D00300356007BFC4600A0
:1049B000F0AB6B0020BCCF0036F49A00E3A91D00D9
:1049C0005E619100081BE60085996500A0145F00F8
:1049D0008D40680080D8FF0027734D000606310027
:1049E000CA561500C9A873007BE260006B8CC0003A
:1049F00000000040FB21F93F000000002D44743E00
:104A0000000000809846F83C0000006051CC783BE4
:104A100000000080831BF0390000004020257A3818
:104A2000000000802282E336000000001DF369359B
:104A30000200000003000000040000000600000067
:044A4000AD010008BC
:044A440089010008DC
:104A48000100000010000000FFFFFFFFFF00000052
:044A580000127A00CE
:04000005080032FDC0
:00000001FF
