:020000040800F2
:10000000680700209D0100089F210008611C00086E
:100010009D21000859070008912A000800000000EF
:10002000000000000000000000000000C3210008E4
:100030005B07000800000000C1210008C52100087E
:10004000B7010008B7010008B7010008B7010008B0
:10005000B7010008B7010008B7010008B7010008A0
:10006000B7010008B7010008B7010008B701000890
:10007000B7010008B7010008B7010008B701000880
:10008000B7010008B7010008B7010008B701000870
:10009000B7010008B7010008B7010008B701000860
:1000A000B7010008B7010008B7010008B701000850
:1000B000A1220008B701000800000000B7010008F5
:1000C000B70100080000000000000000B7010008B0
:1000D00000000000B7010008852A0008B7010008E9
:1000E000B7010008B7010008000000000000000090
:1000F0000000000000000000000000000000000000
:1001000000000000000000000000000000000000EF
:100110000000000000000000B7010008B70100085F
:1001200000000000000000000000000000000000CF
:1001300000000000000000000000000000000000BF
:10014000B7010008B701000800000000000000002F
:10015000000000000000000000000000000000009F
:10016000000000000000000000000000000000008F
:10017000000000000000000000000000000000007F
:1001800000000000B7010008DFF80CD000F0ECF927
:1001900000480047C534000868070020064880472B
:1001A00006480047FEE7FEE7FEE7FEE7FEE7FEE75C
:1001B000FEE7FEE7FEE7FEE73922000889010008B6
:1001C000202A04DB203A21FA02F00021704721FAAC
:1001D00002F3D040C2F12002914008431946704713
:1001E0002DE9FE4F81EA030404F0004421F00041B0
:1001F00000944FF0000B23F0004350EA01045ED05E
:1002000052EA03045BD0C3F30A54C1F30A552C44E9
:10021000A4F2F3340194A0FB0254C1F3130141F49E
:100220008011C3F3130343F4801301FB024400FB6A
:10023000034E840A970A44EA815447EA8357A4FB91
:10024000076802958D0A05FB07854FEA932C04FB8E
:100250000C542705029D4FEA065847EA1637B5EBBE
:1002600008056EEB070C870E920E47EA811742EAEB
:100270008312A7FB0201B6EB0B0164EB00042B0D0C
:1002800043EA0C335E1844EB1C50DA465146E7FB58
:100290000201C5F313044FEA0B3343EA14534FEA48
:1002A0000432019C43EA0603A4F10C040294009C6E
:1002B000CDE900B400F009F903B0BDE8F08F0020EB
:1002C0000146F9E72DE9F04D81EA030404F0004B03
:1002D00021F0004514464FF0000A23F0004150EA97
:1002E000050220D054EA01021DD0C5F30A57024688
:1002F000C5F31303C1F31300C1F30A5640F480158C
:1003000043F48013A7EB0608101BD64608F2FD380D
:1003100073EB050002D308F1010801E092185B417C
:10032000B8F1000F03DA00200146BDE8F08D00208F
:100330004FF48011064684460EE0171B73EB050749
:1003400005D3121B63EB050306434CEA010C490875
:100350004FEA300092185B4150EA0107EDD152EAB2
:10036000030012D082EA040083EA0501084305D0A5
:10037000101BAB4106D20122002306E000224FF001
:10038000004302E06FF0010253101AEB06004CEB41
:10039000085110EB0A0041EB0B01BDE8F04D00F0F5
:1003A00085B870B5C1F30A5201F000450024C1F3CD
:1003B000130140F2FF3341F480119A4201DA002028
:1003C00070BD40F233439A42A2F2334203DC524200
:1003D000FFF7F6FE00E090402C43F1D0404270BDA4
:1003E00000F0004230F000400AD0C10D01F560710C
:1003F000C0F3160042EA0151C2084007114370479A
:1004000000200146704701F0004330B421F0004164
:1004100050EA010206D00A0DA2F56072C1F3130181
:10042000002A02DC30BC00207047440F44EAC104BB
:10043000C100E01830BC00EBC250AFF300800029CF
:10044000A8BF7047401C490008BF20F0010070475A
:1004500010B4B0FA80FC00FA0CF050EA010404BFBA
:1004600010BC704749B1CCF1200421FA04F411FA10
:100470000CF118BF012121430843A3EB0C01CB1D54
:100480004FEA00614FEA102042BF002010BC7047C5
:1004900000EBC35010440029A4BF10BC7047401C9F
:1004A000490008BF20F0010010BC704710B5141EB1
:1004B00073F1000408DA401C41F1000192185B411D
:1004C0001A4301D120F0010010BD2DE9F04D9246F4
:1004D0009B4611B1B1FA81F202E0B0FA80F220320B
:1004E000904600F053F804460F4640EA0A0041EAFD
:1004F0000B0153465A46084313D0114653EA0100F4
:1005000019D0C8F140025046FFF75AFE05460E4684
:1005100050465946424600F039F8084305D00120BC
:1005200004E020463946BDE8F08D0020054346EA48
:10053000E0762C4337430A986305E40AA0EB0800F1
:100540000022FD0A44EA47540A3002D50020014641
:10055000E9E7010510196941DDE90845001969411C
:10056000BDE8F04DA2E70000064C074D06E0E0684C
:1005700040F0010394E8070098471034AC42F6D3EA
:10058000FFF706FE303A0008503A0008202A04DB44
:10059000203A00FA02F1002070479140C2F1200396
:1005A00020FA03F31943904070472DE9FE4F80462F
:1005B00081EA0300C00F0C46009021F0004123F0B7
:1005C0000045B8EB0200A94105D2404621469046BD
:1005D0001C460B46024623F00040104347D0270D2F
:1005E000C7F30A00C3F30A510290401A0190402851
:1005F0006BDAC3F3130040F4801B0098924620B1DD
:100600000023D2EB030A63EB0B0B01985946C0F1B0
:1006100040025046FFF7BAFF06460D46504659467F
:10062000019A00F087F810EB08006141002487EA86
:10063000115284EAE7731A4340D0009A62B3019AD8
:10064000012A4FEA075215DC001B61EB02014FF053
:10065000004202EA0752CDE90042001C41F5801138
:1006600032462B46FFF731FF03B0BDE8F08F40461E
:100670002146F9E7001B61EB0201001C41F58013E4
:1006800000185B412018A2F5001747EB030140EA70
:10069000D570B6196D4111E06D084FEA360645EA8E
:1006A000C0754FEA0752001B61EB0201001C41F5C7
:1006B000801149084FEA30000019514132462B465B
:1006C00003B0BDE8F04FFFF7F1BE009801224000F3
:1006D0000023D0EB020263EBE073009821464FEA5F
:1006E000E074B8EB000061EB0401E9E783F000433C
:1006F0005BE781F0004158E70EB5C10F80EAE0707A
:100700000844CA07002140F233438DE80E000A4630
:100710000B46FFF7DAFE03B000BD0EB540F23341E1
:1007200002910021CDE900110A460B46FFF7CDFEEC
:1007300003B000BD202A06DBCB17203A41FA02F0B5
:1007400043EAE07306E041FA02F3D040C2F120022E
:100750009140084319467047FEE77047F0B543796A
:10076000134F0568012B1CD001264671022303712B
:100770002C6840F6FE73BD4200D1A2B193409C4369
:100780000B6889680B43934023432B6001680B6817
:10079000C0249440A3430B600671002141710846B8
:1007A000F0BD0220F0BD9C43D1E90031EAE7000032
:1007B0000074004070B5040003D02079002510B10A
:1007C00005E0012070BD6571204600F007F80220A9
:1007D0002071256101202071002070BD00B50068E6
:1007E0000C4987B0884213D10B48C16941F00051D0
:1007F000C161C069694600F000500590102000906A
:1008000003200190002002904FF0904000F074F817
:1008100007B000BD007400400010024018B5046825
:1008200000940068104421B114300090036000204F
:1008300018BD0830F9E730B54279012A12D00122FB
:1008400042710223037103681D6802FA01F4254313
:100850001D60002901680B6806D0C3F383430F2B8A
:100860000AD00DE0022030BDC3F383030F2B07D164
:100870004B6843F0010302E04B6843F002034B6016
:10088000027100214171084630BD10B590F8211069
:100890000024022903D004218163012418E00168A7
:1008A0000A6822F00E020A6001680A6822F001025A
:1008B0000A6090F84020C36B012101FA02F25A60ED
:1008C00080F82110002180F82010416B01B1884789
:1008D000204610BD70B5044600F0D4F80546601CF3
:1008E00002D004480078044400F0CCF8401BA04239
:1008F000FAD370BD3C0000202DE9F84FDFF860B15D
:1009000000234FF0010C4FF0030A4FF00F090BF1D9
:10091000040E9DE00CFA03F6344022007ED04C68B1
:10092000022C01D0122C0ED1DC0800EB8408D8F880
:1009300020405D07EF0E09FA07F5AC430D69BD4095
:100940002543C8F8205007685D0091F804800AFA32
:1009500005F408F00308A74308FA05F848EA070871
:10096000C0F800804F68012F05D0022F03D0112F4F
:1009700001D0122F11D18768D1F80C80A74308FA53
:1009800005F848EA0708C0F808804768B7430E79B9
:10099000C6F300169E403E434660C668A6438C6878
:1009A000AC403443C4604C68E40050D52D4CA5697C
:1009B00045F00105A561A46923F0030504F00104D5
:1009C0000094294C2E19B4689D072F0F09FA07F5DA
:1009D000AC43B0F1904F04D0244DA84203D101257F
:1009E0000CE000250AE0224DA84201D1022505E0D5
:1009F000204DA84201D1032500E00525BD40254337
:100A0000B560DBF800405D464E689443F60300D5C0
:100A100014432C607546DEF8004000E017E04E6895
:100A20009443B60300D514432C600D4D08352C6853
:100A30004E689443F60200D514432C60084D0C35E3
:100A40002C684E689443B60200D514432C605B1C9E
:100A50000A681446DA407FF45DAFBDE8F88F000005
:100A60000004014000100240000001400004004862
:100A700000080048000C00480AB18161704781629B
:100A80007047000001488068704700003C0000206B
:100A90000248816802781144816070473C00002060
:100AA000074810B5016841F010010160032000F013
:100AB00095F8002000F006F800F024F8002010BDA2
:100AC0000020024070B50D4D04464FF47A7128782D
:100AD000B1FBF0F00A490968B1FBF0F000F09FFDAE
:100AE00048B9102C07D200222146501E00F056F8BB
:100AF00000206C6070BD012070BD00003C00002033
:100B0000480000201E4808B5816941F0010181615B
:100B1000816901F001010091C16941F08051C16119
:100B2000C06900F080500090032000F057F80022C8
:100B300011466FF00B0000F031F8002211466FF003
:100B40000A0000F02BF8002211466FF0090000F0B7
:100B500025F800221146501F00F020F8002211460F
:100B6000101F00F01BF800221146901E00F016F82E
:100B70000022BDE808401146501E00F00FB80000EA
:100B80000010024000F01F02012191404009800046
:100B900000F1E020C0F8001170470000F0B40E4BE7
:100BA0001B680C46C3F30223C3F10705042D00D9CB
:100BB0000425191D072901D2002300E0DB1E0126B0
:100BC00006FA05F1491E214099409E40761E1640C6
:100BD0003143F0BC01F0E4BA0CED00E0064900F04E
:100BE000070208684FF6FF03184040EA0220034A54
:100BF00010430860704700000CED00E00000FA05AB
:100C000038B504004FF0000514D094F832000528E0
:100C100010D094F8320002280CD02348816941F0AA
:100C200001018161806900F00100009094F83200B8
:100C300010B104E0012038BD002084F831002046C6
:100C400000F036F860681949402821D060281FD08C
:100C5000A2681043D4E903231A4310436269104386
:100C6000A2691043E2691043226A1043626A10438A
:100C7000228D40EAC24094F82C2040EA02622068AB
:100C800003680B401A43026094F8320030B108E068
:100C9000E268A369104322691A43E2E7012084F85D
:100CA0003200284638BD000000100240113800E034
:100CB00000B50068084985B088420AD1C02000907C
:100CC000032001900020029069464FF09040FFF70A
:100CD00013FE05B000BD00003C0001402DE9F041CD
:100CE00004004FF0000807D094F83200052803D024
:100CF00094F83200012804D04FF001084046BDE8C6
:100D0000F0812068016841F00201016020680168FB
:100D100041F4802101602068016841F400610160B4
:100D20002068016841F4405101602068016841F089
:100D300001010160102608252068016821F0F851A2
:100D400041EA066101600220FFF7C4FD20680068E7
:100D5000400001D52E4400E0761B6D08ECD12068E0
:100D6000016821F0F85141EA066101600220FFF7B5
:100D7000B1FD20680168490006D50168761C21F0A4
:100D8000F85141EA066101602068016821F4405190
:100D900041F480510160102508272068016821F482
:100DA000780141EAC54101600220FFF793FD206808
:100DB0000068400001D53D4400E0ED1B7F08ECD108
:100DC0002068016821F4780141EAC54101600220F0
:100DD000FFF780FD20680168490006D501686D1C99
:100DE00021F4780141EAC54101602068016821F4DD
:100DF000006101602068016821F00101016054F880
:100E0000240B016821F0020101604FF4802084E886
:100E1000610054F8240D016821F4780141EAC541CC
:100E200001602068016821F0F85141EA0661016023
:100E300064E7002138B190F83220052A03D090F8F9
:100E40003220012A02D00121084670470268136847
:100E500043F001031360042280F83220F4E700001D
:100E60002DE9F0470F46050069D04A4E306800F082
:100E70000700B84209D2306820F0070038433060DC
:100E8000306800F00700B84259D12878424C8007FA
:100E900005D56068A96820F0F000084360602878F4
:100EA000C0073DD06968012001290DD0022923D057
:100EB0005FF0020393FAA3F2B2FA82F242F0200248
:100EC000520904D0226803E04FF40033F2E7626A6B
:100ED00093FAA3F3B3FA83F303F01F03984002429B
:100EE0002DD0606820F0030008436060FFF7CAFD62
:100EF000804641F288390CE04FF00073DAE700BF1A
:100F0000FFF7C0FDA0EB0801494502D90320BDE869
:100F1000F0876068696800F00C00B0EB810FEFD1DA
:100F2000306800F00700B8420BD9306820F00700A5
:100F300038433060306800F00700B84201D001202B
:100F4000E5E72878400705D56068E96820F4E060A7
:100F5000084360602878000706D56068296920F496
:100F6000605040EAC100606000F052F86168F02211
:100F700092FAA2F201F0F001B2FA82F2D140074AED
:100F8000515CC840064908600020FFF79BFD002027
:100F9000BDE700000020024000100240F8380008C1
:100FA0004800002001480068704700004800002009
:100FB00008480949006849684FF4E06292FAA2F2D1
:100FC00001F4E061B2FA82F2D140044A515CC840B7
:100FD0007047000048000020001002400839000857
:100FE00008480949006849684FF4605292FAA2F231
:100FF00001F46051B2FA82F2D140044A515CC84017
:101000007047000048000020001002400839000826
:10101000144B10B55A68144802F00C0104291DD075
:1010200008291BD14FF4701494FAA4F402F470113F
:10103000B4FA84F4E1400D4CDB6A615C0F2494FA4D
:10104000A4F403F00F03B4FA84F4E340074C103423
:10105000D203E35C03D5B0FBF3F0484310BD044872
:10106000484310BD0010024000127A00D838000832
:1010700000093D002DE9F84F040071D02078FB4DA8
:10108000C0074FF0010625D068687704C0F38100DF
:10109000012807D06868C0F3810002281BD1686866
:1010A000C00318D597FAA7F0B0FA80F040F02000FE
:1010B000400901D0286800E0686A97FAA7F1B1FA00
:1010C00081F101F01F0106FA01F1084265D0606864
:1010D0000028D2D061E06068B0F5803F0BD010B13D
:1010E000B0F5A02F17D0286820F480302860286839
:1010F00020F4802002E0286840F480302860E86A0C
:10110000A16820F00F000843E862606820B3FFF791
:10111000B9FC80460AE0286840F480202860EAE7AD
:10112000FFF7B0FCA0EB0800642872D897FAA7F08C
:10113000B0FA80F040F02000400901D0286800E0BB
:10114000686A97FAA7F1B1FA81F101F01F0106FA76
:1011500001F10842E4D020E0FFF794FC804607E06C
:10116000C7E000BFFFF78EFCA0EB08006428DCD8C6
:1011700097FAA7F0B0FA80F040F02000400901D0C3
:10118000286800E0686A97FAA7F1B1FA81F101F0E6
:101190001F0106FA01F10842E4D12078DFF8D0827D
:1011A00080074FF0000A4FF0020759D568684FF0EA
:1011B000F80B10F00C0F07D06868C0F3810002280C
:1011C0001BD16868C00318D497FAA7F0B0FA80F072
:1011D00040F02000400901D0286800E0686A97FAD2
:1011E000A7F1B1FA81F101F01F0106FA01F10842FD
:1011F0002BD0206901287CD127E0206988B396FA9A
:10120000A6F0B0FA80F048F82060FFF73BFC81467A
:1012100006E055E1FFF736FCA0EB0900022884D870
:1012200097FAA7F0B0FA80F040F02000400901D012
:10123000286800E0686A97FAA7F1B1FA81F101F035
:101240001F0106FA01F10842E4D028689BFAABF2CC
:101250006169B2FA82F220F0F800914008432860F8
:1012600025E0FFE796FAA6F1B1FA81F148F821A04E
:10127000FFF708FC814605E0FFF704FCA0EB09003E
:101280000228CCD897FAA7F0B0FA80F040F02000FE
:10129000400901D0286800E0686A97FAA7F1B1FA1E
:1012A00081F101F01F0106FA01F10842E4D1207832
:1012B00000076AD5A069A0B396FAA6F0B0FA80F04C
:1012C00008EB8000C0F88064FFF7DCFB814605E096
:1012D000FFF7D8FBA0EB09000228A0D897FAA7F0E7
:1012E000B0FA80F040F06000B6EB501F02D12868E1
:1012F0000CE077E197FAA7F0B0FA80F040F06000D8
:10130000B7EB501F01D1286A00E0686A97FAA7F18D
:10131000B1FA81F101F01F0106FA01F21042D7D0B3
:1013200033E0FFE796FAA6F0B0FA80F008EB800011
:10133000C0F880A4FFF7A6FB814605E0FFF7A2FBFB
:10134000A0EB090002289CD897FAA7F0B0FA80F029
:1013500040F06000B6EB501F01D128680BE097FA0F
:10136000A7F0B0FA80F040F06000B7EB501F01D159
:10137000286A00E0686A97FAA7F1B1FA81F101F0F2
:101380001F0106FA01F21042D8D12078400774D527
:10139000E8694FF00009C00009D4E86940F08050C6
:1013A000E861E8694FF0010900F080500090314891
:1013B0000168C90512D4016841F480710160FFF72A
:1013C00061FB834606E000BFFFF75CFBA0EB0B0070
:1013D000642875D827480068C005F5D5E06801285D
:1013E0000AD008B1052811D0286A20F0010028622F
:1013F000286A20F0040002E0286A40F00100286218
:10140000E068C8B3FFF73EFB83460DE0286A40F072
:1014100004002862F0E700BFFFF734FBA0EB0B01EC
:1014200041F2883081424BD897FAA7F0B0FA80F0A9
:1014300040F04000B6EB501F01D128680BE097FA4E
:10144000A7F0B0FA80F040F04000B7EB501F01D198
:10145000286A00E0686A97FAA7F1B1FA81F101F011
:101460001F0106FA01F21042D6D035E0001002400A
:10147000000042420070004000E034E0FFF702FB51
:10148000834607E0FFF7FEFAA0EB0B0141F288303C
:10149000814215D897FAA7F0B0FA80F040F04000EA
:1014A000B6EB501F01D128680CE097FAA7F0B0FA0C
:1014B00080F040F04000B7EB501F02D1286A01E0F5
:1014C00083E0686A97FAA7F1B1FA81F101F01F0190
:1014D00006FA01F21042D5D1B9F1000F03D0E86944
:1014E00020F08050E861E06980B36968C1F3810150
:1014F000022977D04FF080714F00022809D091FA6D
:10150000A1F0B0FA80F048F820A0FFF7BBFA04463B
:101510005EE050468A4691FAA1F1B1FA81F1C146E6
:1015200048F82100FFF7AEFA804605E0FFF7AAFA77
:10153000A0EB0800022848D897FAA7F0B0FA80F08C
:1015400040F02000400902D0286801E056E0686AB7
:1015500097FAA7F1B1FA81F101F01F0106FA01F142
:101560000842E3D1D4E908100843696821F47411F2
:10157000084368609AFAAAF0B0FA80F049F820604F
:10158000FFF780FA044604E0FFF77CFA001B02280C
:101590001BD897FAA7F0B0FA80F040F0200040097D
:1015A00001D0286800E0686A97FAA7F1B1FA81F1E2
:1015B00001F01F0106FA01F10842E5D01EE000BF6C
:1015C000FFF760FA001B022802D90320BDE8F88F5C
:1015D00097FAA7F0B0FA80F040F02000400902D05E
:1015E000286801E00CE0686A97FAA7F1B1FA81F186
:1015F00001F01F0106FA01F10842E1D10020E5E700
:101600000120E3E74FF0E0210428086903D020F02F
:1016100004000861704740F00400FAE7704710B515
:10162000401EB0F1807F01D3012010BD4FF0E024B7
:1016300060610F21601700F0B3FD0020A06107205A
:101640002061002010BD10B5FFF7E8FF10BD704706
:101650007047704730B590F83C20012A1CD0012219
:1016600080F83C2003685A689C680C4DAB4203D15B
:1016700022F470054A682A4322F070050A688968D6
:101680002A4324F0800421435A60026891600021BB
:1016900080F83C10084630BD022030BD002C0140CF
:1016A00010B5040003D094F83D0010B107E001200C
:1016B00010BD002084F83C00204600F00DF8022008
:1016C00084F83D00211D206800F0F4FD012084F81D
:1016D0003D00002010BD000008B501680B48B1F1C5
:1016E000804F0BD00A4A914207D1816941F4803181
:1016F0008161806900F48030009008BDC16941F0CB
:101700000101C161C06900F00100F5E7001002406D
:10171000004001400168CA6842F00102CA600068E6
:10172000016841F0010101600020704770B5044676
:1017300090F83C00012817D0012584F83C50022085
:1017400084F83D0022689068364E304020F47F4097
:1017500090600868502839D00DDC20285BD005DC6B
:1017600098B3102843D153E0022070BD302855D0E3
:1017700040283CD141E0602830D070280CD0B0F532
:10178000805F03D0B0F5005F31D112E0206881683E
:10179000244A7032114016E0CB68D1E9012120685B
:1017A00000F0CCFD21688868304040F07700886008
:1017B0001DE0CB68D1E90121206800F0BFFD206861
:1017C000816841F48041816011E01EE0CA68496887
:1017D000206800F025FF5021206806E0CA684968AB
:1017E000206800F02EFF6021206800F0B1FD84F831
:1017F0003D50002084F83C0070BDCA6849682068EC
:1018000000F00EFF40212068EFE700212068ECE7A0
:1018100010212068E9E720212068E6E730212068D0
:10182000E3E7000088FFFEFF704770B504460068DC
:1018300001694FF00005C943890715D4C168C94340
:10184000890711D4E91E0161012020772068806991
:101850008007204602D0FFF7E7FF04E000F0E0F841
:10186000204600F0FAF8257720680169C943490746
:1018700017D4C168C943490713D46FF0040101614B
:10188000022020772068806910F4407F204602D033
:10189000FFF7CAFF04E000F0C3F8204600F0DDF8CF
:1018A000257720680169C943090716D4C168C9436F
:1018B000090712D46FF00801016104202077206825
:1018C000C0698007204602D0FFF7AEFF04E000F0B9
:1018D000A7F8204600F0C1F8257720680169C943C0
:1018E000C90617D4C168C943C90613D46FF01001E3
:1018F0000161082020772068C06910F4407F2046ED
:1019000002D0FFF791FF04E000F08AF8204600F0D3
:10191000A4F8257720680169C943C90708D1C168BF
:10192000C943C90704D1891E0161204600F096F819
:1019300020680169C943090609D4C168C943090679
:1019400005D46FF0800101612046FFF781FE206819
:101950000169C943C90509D4C168C943090605D449
:101960006FF4807101612046FFF771FE2068016904
:10197000C943490609D4C168C943490605D46FF073
:1019800040010161204600F06AF820680169C943FE
:1019900089060BD4C168C943890607D46FF02001BA
:1019A00001612046BDE87040FFF753BE70BD70B5C1
:1019B000044690F83C0001280ED0012584F83C50E4
:1019C000022084F83D000C2A19D007DC5AB1042A01
:1019D0000DD0082A1ED10EE0022070BD102A12D0B0
:1019E000142A17D113E0206800F0BAFC12E0206836
:1019F00000F0FAFC0EE0206800F036FD0AE02068F6
:101A000000F072FD06E0206800F0A4FD02E020680E
:101A100000F0D2FD84F83D50002084F83C0070BDF9
:101A2000704710B5040003D094F83D0010B107E0F2
:101A3000012010BD002084F83C00204600F00CF886
:101A4000022084F83D00211D206800F033FC0120B5
:101A500084F83D00002010BD704770477047704704
:101A60007047704770B503680446D869196810F06C
:101A70000F0508D1820606D58A0604D52046BDE8A2
:101A8000704000F0BABE9A68002D66D002F00105E1
:101A900001F490762E4360D0C60707D0CE0505D559
:101AA00001261E62E36E43F00103E366830708D557
:101AB000D30706D0266802233362E36E43F00403A3
:101AC000E366430708D5D20706D0236804221A62CA
:101AD000E26E42F00202E26602070AD501F020023D
:101AE0002A4306D0236808221A62E26E42F00802F6
:101AF000E266E26E002A29D0800604D5880602D567
:101B0000204600F07AFEE06E000703D4206880686B
:101B100040061CD5204600F055FE20688168490625
:101B200011D5816821F040018160606E58B11C4977
:101B30004163606EFEF7A9FE002807D0606E416B1E
:101B4000BDE8704008472046FFF78BFF70BD204678
:101B5000FFF787FF0020E06670BDC5020ED5520278
:101B60000CD54FF480101862202084F8690084F8A6
:101B70006A002046BDE87040FFF772BF020606D536
:101B80000A0604D52046BDE8704000F017BF4006A5
:101B9000E2D54806E0D52046BDE8704000F020BE02
:101BA000B127000810B5040003D094F8690010B103
:101BB00007E0012010BD002084F86800204600F0F6
:101BC00027F8242084F869002068016821F00101C9
:101BD0000160204600F04CFE0128EBD0606A10B195
:101BE000204600F053FD2068416821F49041416097
:101BF0002068816821F02A0181602068016841F035
:101C0000010101602046BDE8104000F0A3BD0000C6
:101C100000B500680F4987B0884218D10E48C169E5
:101C200041F40031C161C069694600F4003005909B
:101C300048F204000090022001900020029003204E
:101C40000390072004904FF09040FEF755FE07B038
:101C500000BD000000440040001002407047704783
:101C6000FEE7000030B514480146446A4B788A6AA2
:101C7000096A5CB1914202DB1146026210E00F4D2D
:101C800055F8233092FBF3F2114408E000290BDDF4
:101C90000A4D0C3555F8233092FBF3F2891A016294
:101CA000002908DC002C06D1C16A002903D00021DC
:101CB00001620121016330BD000000205837000897
:101CC0002DE9F041204C00252A46236A04F1340610
:101CD000B0F90010476881FB07C14FEA814E4EEA18
:101CE0009C31D0F808C0B1EB0C01C0E90117B75C1A
:101CF00002F1010207FB03F74FEA272701FB07F177
:101D000005EB212500F10C00052AE1DB4FF6F07010
:101D100000EA2523042200210C4803F50043FEF7C6
:101D20007DFD00210948FEF786FD002D09DB606876
:101D3000002806DC206B20B1606A10B90020E06248
:101D400020636560BDE8F081000000206C02002087
:101D500002480021C16201637047000000000020BA
:101D60002DE9F05F00252DED0E8BAA46DFF8ECB0D3
:101D70009FED3BDB9FED3CEB9FED3DCB9FED3EBBF5
:101D80003F4805EB8502C5EB05110024B0EE4D8AF6
:101D9000F0EE6D8AB0EE4E9AF0EE6E9AB0EE4CAA6E
:101DA000F0EE6CAA0BEBC20900EB810609EBC4084C
:101DB00053EC182B98ED000B51EC100BFEF782FA48
:101DC000FEF721FBFEF70CFB53EC192BFEF708FA8C
:101DD00041EC100B00F078FE53EC1A2B51EC100B79
:101DE000FEF7FEF9FEF7DDFA04EB440106EB81078E
:101DF00026F82100C7F804A098ED000B53EC182B2F
:101E000051EC100BFEF75EFAFEF7FDFAFEF7E8FA6A
:101E100053EC192BFEF7E4F941EC100B00F0B8FE7F
:101E2000B0EE4B1AF0EE6B1A53EC112B51EC100B79
:101E3000FEF7D6F953EC1A2BFEF7D2F9FEF7B1FAFA
:101E4000641CE4B2B860052CB0D36D1CEDB2092D52
:101E500096D3BDEC0E8BBDE8F09F000070370008F4
:101E600000000000006AD8404AD8124DFB211940FA
:101E7000000000000000E0400000000000004940B9
:101E80005000002030B5294A106991690024284B80
:101E900088422ED35078D56900EB400101EBC00099
:101EA00003EB800151F82510E9B3117801EB4105EE
:101EB00005EBC101A3F164052944D569495D917021
:101EC00003F5847101EB8000D16950F82100906224
:101ED00000F078F8507800EB400101EBC0001449A5
:101EE000843101EB8000D16950F821005169084428
:101EF000906110695169884214D35462507800EBA4
:101F0000400101EBC00103EB8101D36951F82310BB
:101F1000084B53F820000844916908445061D06987
:101F2000401CD06130BDFFE7D460FBE7000000201B
:101F3000CC3500085837000810B50F4CE06A38B1AE
:101F4000A0780E49C0EB001001EB8000FFF7B8FE4F
:101F5000A068401CA06019280CD1E06808B1FFF708
:101F600091FF0020A0602069401C2061BDE8104066
:101F7000FFF778BE10BD00000000002050000020D8
:101F80000D4A50701170002111610123D3609161DD
:101F9000D16100EB4001094B01EBC00103EB810172
:101FA000D36951F82310064B53F820000844916977
:101FB000084450617047000000000020CC35000844
:101FC0005837000803480021016201214162C162C3
:101FD000704700000000002010B5FFF7B9FEBDE813
:101FE0001040FFF7BDBE00002DE9F0412E4886B03D
:101FF000416941F480014161416901F48001059129
:10200000416941F400314161416901F400310591B8
:10201000416941F4802141614069DFF8908000F41A
:1020200080200590002208214046FEF725FD02266B
:10203000032500240096CDE9015469461C48FEF7AB
:102040005BFC40F62360CDE900054FF09047694600
:1020500002943846FEF750FCF320CDE900056946AE
:1020600002944046FEF748FCF0010090CDE901647F
:102070000394694638460494FEF73EFCF002CDE92D
:102080000004694638460294FEF736FC08200090AA
:102090000120CDE90104694640460394FEF72CFC7B
:1020A00006B0BDE8F08100000010024000040048C6
:1020B000001400480D4810B50B49016060214160D3
:1020C0000C21C16000214FF480220161C0E9092187
:1020D000C162FEF795FD00B1FEE70448FEF7FEFD84
:1020E000002800D0FEE710BD3C0001408002002027
:1020F00010B51B488EB04FF080410024C0E9001499
:1021000040F61F01C0E90241802104618161FFF7AF
:10211000C7FA00B1FEE74FF480500A900AA91048B0
:10212000FFF704FB00B1FEE70D48FFF77AFC00B1B2
:10213000FEE72020079007A909940948FFF78AFACB
:1021400000B1FEE70094019402940022694604481D
:102150000494FFF72CFC002800D0FEE70EB010BD61
:10216000B40200200C4810B50A4901604FF4164132
:102170004160002181600C22C160C0E904128161CC
:10218000C16101624162FFF70DFD002800D0FEE74A
:1021900010BD000000440040F4020020FEE770473C
:1021A0000907090E002806DA00F00F0000F1E02010
:1021B00080F8141D704700F1E02080F8001470478B
:1021C0007047704710B5FEF763FCBDE81040FFF79D
:1021D0003ABA30B58FB00225012004900095102046
:1021E000059000244FF43010CDE90840079568466B
:1021F000FEF740FF00B1FEE70F20CDE90A054FF4DE
:102200008060CDE90C4002210AA80E94FEF728FE5A
:1022100000B1FEE7FEF7C6FE4FF47A71B0FBF1F0B5
:10222000FFF7FDF90420FFF7EDF900221146501EDB
:10223000FEF7B4FC0FB030BD1448016841F47001E2
:1022400001601348016841F0010101604168114AD1
:10225000114041600168104A11400160016821F499
:1022600080210160416821F4FE014160C16A21F0D2
:102270000F01C162016B094A1140016300218160B5
:102280000249C003803908607047000088ED00E013
:10229000001002400CC07FF8FFFFF6FECCFC00FFF0
:1022A00010B5FFF749FEBDE810400148FFF7BDBA81
:1022B000B4020020F0B502681B4B1C4F4FF0804C5D
:1022C000984203D0604501D0B84203D122F0700497
:1022D0004A682243164C174D174E984209D0604564
:1022E00007D0B84205D0A04203D0A84201D0B042E6
:1022F00003D122F44077CA683A434F6922F0800242
:102300003A4302608A68C2620A688262984205D0D3
:10231000A04203D0A84201D0B04201D109690163B3
:1023200001214161F0BD0000002C0140000400408B
:1023300000400140004401400048014010B584685D
:1023400042EA032224F47F440A432243826010BD00
:10235000826822F070020A4342F0070181607047F0
:10236000F0B5026A22F001020262056A43688269DE
:10237000184C25F0020522400C6822F00302144399
:102380008A68164E2A43144D154FDFF858C0A842EC
:1023900005D0B04203D0B84201D0604506D122F04A
:1023A000080ECA6842EA0E0222F00402A84205D0D2
:1023B000B04203D0B84201D0604505D14D6923F445
:1023C00040731D438B692B434360846149684163BB
:1023D0000262F0BD8FFFFEFF002C01400040014073
:1023E000004401400048014030B5026A22F010026A
:1023F0000262046A42688369164D2B400D6823F41B
:10240000407343EA052524F020038C6843EA041353
:10241000114CA04207D1CC6823F0800343EA041397
:1024200023F0400308E00D4CA04205D00C4CA04224
:1024300002D00C4CA04207D14C6922F4406242EA1F
:1024400084028C6942EA8402426085614968816342
:10245000036230BDFF8FFFFE002C014000400140B1
:10246000004401400048014030B5026A22F4807205
:102470000262046A4268C369164D2B400D6823F05E
:1024800003031D4324F400738C6843EA0423124CB5
:10249000A04207D1CC6823F4006343EA042323F469
:1024A000806308E00D4CA04205D00D4CA04202D044
:1024B0000C4CA04207D14C6922F4405242EA04126B
:1024C0008C6942EA04124260C5614968C1630362D3
:1024D00030BD00008FFFFEFF002C01400040014096
:1024E000004401400048014030B5026A22F48052A5
:1024F0000262046A4268C369114D24F400542B40FF
:102500000D6823F4407343EA05238D6844EA0534DB
:102510000C4DA84208D00C4DA84205D00B4DA84246
:1025200002D00B4DA84204D14D6922F4804242EA08
:1025300085124260C36149680164046230BD0000D5
:10254000FF8FFFFE002C014000400140004401408D
:102550000048014030B5026A22F480320262046A07
:102560004268436D0F4D2B400D681D4324F400332A
:102570000C8943EA04430C4CA04208D00B4CA04207
:1025800005D00B4CA04202D00A4CA04204D14C69A9
:1025900022F4803242EA042242604565496881653E
:1025A000036230BD8FFFFEFF002C01400040014060
:1025B000004401400048014030B5026A22F4801214
:1025C0000262046A4268436D104D24F400142B40EB
:1025D0000D6843EA05230D8944EA05540C4DA842D1
:1025E00008D00C4DA84205D00B4DA84202D00B4D8F
:1025F000A84204D14D6922F4802242EA8522426039
:1026000043654968C165046230BD0000FF8FFFFE6D
:10261000002C0140004001400044014000480140BE
:1026200010B5036A046A24F001040462846924F08A
:10263000F00444EA021423F00A020A4384610262AD
:1026400010BD10B5036A23F0100303628369046AA6
:1026500023F4704343EA023224F0A00343EA011159
:102660008261016210BD10B541F28830FEF732F987
:1026700006210020FFF784FC41F65830FEF72AF9C6
:102680000621BDE810400020FFF77ABC90F8241026
:10269000C90706D001684A68836A22F400321A43E7
:1026A0004A6090F82410890706D501684A68C36A11
:1026B00022F480321A434A6090F82410490706D564
:1026C00001684A68036B22F480221A434A6090F83A
:1026D0002410090706D501684A68436B22F40042BA
:1026E0001A434A6090F82410C90606D501688A6822
:1026F000836B22F480521A438A6090F82410890672
:1027000006D501688A68C36B22F400521A438A60B6
:1027100090F82410490611D501684A68036C22F428
:1027200080121A434A60016CB1F5801F06D101681E
:102730004A68436C22F4C0021A434A6090F824109D
:10274000090606D501684A68806C22F4002202431B
:102750004A607047F8B500260446C666FEF792F94F
:102760000546206800686FF07E47000708D52B46B5
:1027700000224FF400112046009700F051F960B993
:102780002068006840070AD52B4600224FF48001DC
:102790002046009700F044F908B10320F8BD20203E
:1027A00084F8690084F86A0084F868600020F8BD45
:1027B00010B5406A0021A0F85A10A0F85210FFF797
:1027C00050F910BD01680A6822F490720A6001682D
:1027D0008A6822F001028A60202180F86A1070471E
:1027E00010B501680A6822F040020A60202180F8D2
:1027F0006910FFF734FA002010BD10B5B0F85C2066
:1028000090F86A300168222B05D0886940F00800F2
:102810008861022010BD898C8368B3F5805F01D187
:1028200003696BB11140426D531C43651170B0F8E0
:102830005A10491E0904090CA0F85A1007D015E0D7
:10284000436D11401980416D891C4165EFE70168B6
:102850000A6822F490720A6001688A6822F0010214
:102860008A60202180F86A10FFF7F8F9002010BD77
:102870002DE9F041044610202369A268E6691A4355
:102880006369002133431A4323680D461E68444F91
:102890003E4016431E6022685368E66823F44053A6
:1028A00033435360236AA2691A4323689E6826F45F
:1028B000306616439E603B4B22689A4210D13A4BD9
:1028C0001B6B13F0030311D0012B05D0022B05D095
:1028D000032B0CD102200AE0042008E0082006E0C7
:1028E000324B9A4202D0324B9A4200D10020E66924
:1028F0004FF400439E4226D109281DD2DFE800F0A4
:102900000508121C151C1C1C1800FEF751FB01E0E9
:10291000FEF766FB4100606801EB5001B1FBF0F08F
:1029200081B20AE023496068F6E7FEF771FBF1E740
:102930004FF480316068EFE7012521F00F00C1F30B
:10294000420108431CE0092825D2DFE800F0050811
:102950000B24102424241C00FEF72AFB09E0FEF7B8
:102960003FFB06E01449606801EB50010EE0FEF702
:102970004FFB0146606801EB5001B1FBF0F080B203
:102980002168C86008E0606803EB5001B1FBF0F01B
:1029900080B2D06000E001252846BDE8F08100004B
:1029A000F369FFEF0038014000100240004400408E
:1029B000004800400024F40000127A0090F86910EA
:1029C000212901D002207047B0F8521021B181684E
:1029D000B1F5805F0BD00CE001680A6822F080023C
:1029E0000A600068016841F0400101600CE0016983
:1029F00061B1C16C4A1CC26402680978A2F828104F
:102A000030F8521F491E018000207047C16C0268D7
:102A10000988C1F308011185C16C891CC164EFE705
:102A20002DE9F041984617460E460446069D1DE0E6
:102A3000681C1BD02DB1FEF725F8A0EB0800A842BA
:102A400014D92068016821F4D07101602068816880
:102A500021F001018160202084F8690084F86A0077
:102A6000002084F868000320BDE8F0812068C06978
:102A700036EA000004D00020B842D9D00020F3E7A5
:102A80000120F9E70148FEF7EDBF0000F402002045
:102A9000FEE703B401984100009850EAC12018BF36
:102AA00004204A0D18BF40F0010040F2FF72B2EB63
:102AB000515F08BF40F00200012808BF052002B0A6
:102AC000704700000000000010B52F499FED2C1B3F
:102AD0002DED020B84B0059820F000408842D8BF4D
:102AE0009DED040B2DDD2949884209D1049840B998
:102AF0004FF0010000F0D4FC00F0A2FC06B010BDC5
:102B000005DB9DED040B00F08FFC06B010BD6846A0
:102B10009DED040B00F0A0F810F0030004BF9DED44
:102B2000021B9DED000B0CD001280ED09DED021B69
:102B30009DED000B022817D0012000F0DDFB06B050
:102B400010BD00F0A5FA06B010BD9DED021B9DED75
:102B5000000B012000F0D0FB51EC100B81F0004184
:102B600006B041EC100B10BD00F092FA51EC100BC6
:102B700081F0004106B041EC100B10BD00000000D8
:102B80000000000000000000FB21E93F0000F07F92
:102B900010B52F499FED2C1B2DED020B84B005982D
:102BA00020F000408842DCBF00209DED040B32DDA8
:102BB0002849884209D1049840B94FF0010000F03B
:102BC0006FFC00F03DFC06B010BD05DB9DED040B75
:102BD00000F02AFC06B010BD68469DED040B00F025
:102BE0003BF810F0030011D0012818D09DED021B16
:102BF0009DED000B02281AD000F04AFA51EC100BA0
:102C000081F0004106B041EC100B10BD9DED021BA0
:102C10009DED000B012000F06FFB06B010BD9DED97
:102C2000021B9DED000B00F033FA06B010BD012031
:102C300000F062FB51EC100B81F0004106B041EC5A
:102C4000100B10BD0000000000000000000000009C
:102C5000FB21E93F0000F07F2DE9F14F04462DED07
:102C6000020B2DED088B8AB09FEDE70B80ED020B78
:102C7000139EE74826F0004585420ADC9DED120BC5
:102C8000002084ED000B0AB0BDEC088B03B0BDE85A
:102C9000F08FE0489FEDE0AB9FEDE1BBA84247DD40
:102CA000E14F9FEDE39B9FEDE48B9DED120B53EC09
:102CB0001A2B51EC100B002E1CDDFDF717FD41EC1B
:102CC000100BBD4208D053EC1B2B51EC100BFDF741
:102CD0000DFDC4E900010BE053EC192B51EC100B76
:102CE000FDF704FD53EC182BFDF700FDC4E90001CE
:102CF0000120C8E7FDF759FC41EC100BBD4208D09C
:102D000053EC1B2B51EC100BFDF74FFCC4E90001F9
:102D10000BE053EC192B51EC100BFDF746FC53EC78
:102D2000182BFDF742FCC4E900014FF0FF30AAE781
:102D3000C348A84279DB9DED120B51EC100B00F05B
:102D4000B5FB41EC180B9FEDC00B53EC102BFDF7BE
:102D500047FA9FEDBF1B53EC112BFDF726FCFDF747
:102D600020FB0746FDF7C8FC41EC190B53EC1A2B6E
:102D7000FDF736FA53EC182BFDF7BBFC41EC180BB2
:102D800053EC1B2B51EC190BFDF72AFADFF8C8A204
:102D900041EC100B4FEA15580125FA4453EC102B67
:102DA00051EC180BFDF7A2FC032DC4E900013DD046
:102DB000C1F30A5005EB4511A8EB0000113981421F
:102DC00034DA0AEB051BB0EE48AA9BED000BF0EEDF
:102DD00068AA53EC102B51EC190BFDF701FA41ECEA
:102DE0001B0B51EC1A0B53EC1B2BFDF77FFC41EC3A
:102DF000180B51EC1A0B53EC182BFDF777FC53EC26
:102E00001B2BFDF773FC9BED020B41EC1A0B53ECF3
:102E1000102B51EC190BFDF7E3F953EC1A2BFDF7CE
:102E200065FC41EC100B6D1CB8E70EE0002EA8BF4E
:102E30003846BFF628AF94ED000B51EC100B81F033
:102E40000041C4E9000178421DE7C6F3130040F4D5
:102E5000801EC6F30A50A0F2F530471100F01F059E
:102E6000C5F12000DDF848B00890002006900790DA
:102E70000520EC467949002D07EB0002794408BF94
:102E800051F8221009D051F8223001EB8201AB40F9
:102E90004A68089922FA01F11943A1FB0E26A1FB09
:102EA0000B131A449A4234BF0123002303EB060894
:102EB0000CEB8003D3E901A60E448E4234BF0121FE
:102EC000002192448A4411B1924502D903E092450F
:102ED00001D2012100E00021C3E901A641444CF8E0
:102EE0002010011EA0F10100C4DC029800F1005086
:102EF000850F0298DDE903678000DDF81480FDF797
:102F0000FBFB41EC1A0B3046FDF707FC9FED541B11
:102F100053EC112BFDF764F941EC1B0B3846FDF720
:102F2000FCFB9FED511B53EC112BFDF759F941ECC4
:102F3000180B4046FDF7F1FB9FED4D1B53EC112B99
:102F4000FDF74EF941EC190B51EC180B53EC192B12
:102F5000FDF72BFB53EC1B2BFDF727FB53EC1A2B38
:102F6000FDF723FBCDE90801002008909DED080B3B
:102F700053EC1A2B51EC100BFDF7B8FB53EC1B2B49
:102F8000FDF7B4FB53EC182BFDF7B0FB53EC192BFA
:102F9000FDF7AFFB9FED381B53EC112BFDF720F92C
:102FA0009FED370B41EC180B53EC102B9DED080BEC
:102FB00051EC100BFDF714F953EC182BFDF7F5FA53
:102FC0009FED310B41EC180B53EC102B9DED080BD2
:102FD00051EC100BFDF704F953EC182BFDF7E5FA53
:102FE00041EC100B139810F0004F06D06D4251ECDD
:102FF000100B81F0004141EC100B284684ED000BD2
:1030000041E6000000000000000000000000000099
:10301000FB21E93F7CD9024000004054FB21F93FED
:103020003163621A61B4D03DFB21F93F000000001A
:103030000000601A61B4D03D7370032E8A19A33B5F
:10304000FB2139410000000083C8C96D305FE43FB7
:10305000000000000000E03FA20B0000F00A0000AA
:10306000000000000000103E000000000000103CC6
:10307000000000000000103A182D4454FB21F93DD7
:103080003326A611460B113C00000054FB21F93DEC
:1030900010B52DED040B2DED088B82B0B0EE419AEA
:1030A000F0EE619A0B9820F000449FED4BABB4F129
:1030B000795F11DA9DED0A0B51EC100BFDF771F9F8
:1030C000002801BFB0EE4A0AF0EE6A0A02B0BDEC79
:1030D000088B04BF04B010BD9DED0A0B53EC102B00
:1030E00051EC100BFDF77CF841EC180B3C48062125
:1030F000B0EE480AF0EE680A784400F081F853EC2C
:10310000182B51EC100BFDF76BF89DED0A0B41EC01
:103110001B0B53EC192B51EC100BFDF761F841EC34
:10312000190B53EC1B2B51EC180BFDF759F853EC12
:10313000192BFDF7DBFA9FED2C0B41EC190B53EC2F
:10314000102B51EC180BFDF74BF841EC100B2848F5
:10315000844210DA53EC192B51EC100BFDF7C6FA30
:1031600053EC1A2BFDF7C5FA41EC100B02B0BDEC85
:10317000088B04B010BD1F48A042BCBF9FED1E1BB2
:103180008DED001B06DBA4F50010019000200090DF
:103190009DED001B51EC100B53EC112BFDF7A6FA23
:1031A0009DED000B41EC180B53EC102B51EC1A0B5E
:1031B000FDF79CFA41EC1A0B53EC192B51EC180B50
:1031C000FDF794FA53EC1A2BFDF793FA41EC100B30
:1031D000CCE7000000000000000000000000F03F0D
:1031E0001408000000000000000000000000E03FA4
:1031F0003333D33F0000E93F000000000000D23F1E
:1032000070B504462DED028B4D1E00EBC500B0EEEF
:10321000408AF0EE608A90ED000B35F0060017D082
:1032200053EC182B51EC100BFCF7DAFF41EC100BB0
:103230006D1E04EBC50090ED001B51EC100B53EC20
:10324000112BFDF7B2F941EC100B35F00600E7D178
:10325000022D36D0042D1CD0062D1CBFBDEC028BD8
:1032600070BD53EC182B51EC100BFCF7B9FF94ED2B
:103270000A1B53EC112BFDF798F953EC182BFCF7B4
:10328000AFFF94ED081B53EC112BFDF78EF941ECC9
:10329000100B53EC182B51EC100BFCF7A1FF94ED25
:1032A000061B53EC112BFDF780F953EC182BFCF7A0
:1032B00097FF94ED040B53EC102BFDF776F941ECDE
:1032C000100B53EC182B51EC100BFCF789FF94ED0D
:1032D000021B53EC112BFDF768F953EC182BFCF78C
:1032E0007FFF94ED001B53EC112BFDF75EF9BDEC55
:1032F000028B41EC100B70BD31B504462DED040B73
:103300002DED0A8BB0EE41BAF0EE61BA0B989DED4F
:103310000A0B20F00040B0F1795F0DDA51EC100B90
:10332000FFF7B7FB042808BF00F09AF89DED0A0BE1
:10333000BDEC0A8B05B030BD53EC102B51EC100BDB
:10334000FCF74EFF41EC180B9DED0A0B53EC182BCC
:1033500051EC100BFCF744FF41EC190B2C48B0EE7C
:10336000480AF0EE680A05217844FFF749FF9FED0F
:103370002ACBB0EE40AAF0EE60AA9CB353EC1C2B13
:1033800051EC190BFCF72CFF41EC1C0B53EC1A2BE6
:1033900051EC190BFCF724FF9FED210B41EC190BAD
:1033A00053EC102B51EC1B0BFCF71AFF53EC192BB1
:1033B000FDF79CF953EC182BFCF712FF53EC1B2B79
:1033C000FDF794F953EC1C2BFDF790F99DED0A1BCA
:1033D00053EC112BFDF78DF9BDEC0A8B05B041ECD8
:1033E000100B30BDFFE753EC1A2B51EC180BFCF718
:1033F000F7FE53EC1C2BFDF7D8F853EC192BFCF718
:10340000EFFE9DED0A1B53EC112BFDF7CEF8E3E721
:103410009C06000000000000495555555555C5BF94
:10342000000000000000E03F10B553EC102B51EC01
:10343000100BFDF7BAF841EC100B10BD00000000B6
:103440009FED050B10B553EC102B51EC100BFCF756
:1034500039FF41EC100B10BD00000000000000001F
:103460009FED050B10B553EC102B51EC100BFCF736
:10347000B7FE41EC100B10BD000000000000001072
:1034800002E008C8121F08C1002AFAD1704770472D
:10349000002001E001C1121F002AFBD1704700008B
:1034A00001490860704700004C00002082B0CDE95F
:1034B000000121F0004001909DED000B02B051ECA5
:1034C000100B70470EB5FDF7EBFAFEF782FEFEF724
:1034D0008BFD234C214820602046FDF76BF900B19D
:1034E000FEE73C20009000200246019069461C48FF
:1034F000FDF734F900B1FEE7FEF7DCFDFEF732FE22
:10350000FEF7F6FD002211461820FDF747FB1820B4
:10351000FDF738FB002211462620FDF73FFB262051
:10352000FDF730FB002211461C20FDF737FB1C2065
:10353000FDF728FB2068016841F00101016008489F
:103540001430FDF776FCFEF747FD05484830FEF7DE
:10355000E1F800BFFFF787F8FCE7000000740040C7
:103560006C020020000000000000000000000000CD
:10357000000000000205050800020505080000041F
:103580000000040004000004000006030603000617
:1035900003060300080706050308070605030000E5
:1035A00001020305000102030500080105080108E6
:1035B00001050801000800000800080000080000DC
:1035C0000200000000020000000000009600000061
:1035D0009600000096000000960000009600000093
:1035E0009600000096000000960000009600000083
:1035F0009600000000000000C8000000C8000000A5
:10360000C8000000000000000000000000000000F2
:1036100000000000000000000000000000000000AA
:1036200000000000C8000000C8000000C800000042
:10363000000000000000000000000000000000008A
:10364000000000000000000000000000000000007A
:103650004B0000004B0000002C0100004B0000005C
:10366000260200004B0000004B0000002C0100006F
:103670004B0000004B00000000000000C8000000EC
:10368000C8000000C80000000000000000000000AA
:10369000000000000000000000000000000000002A
:1036A0000000000000000000C8000000C80000008A
:1036B000C800000000000000000000000000000042
:1036C00000000000000000000000000000000000FA
:1036D00000000000AA000000FF000000FF00000042
:1036E000FF000000FF000000FF000000FF000000DE
:1036F000FF000000FF000000FF00000000000000CD
:10370000AA000000FF000000FF0000000000000011
:1037100000000000000000000000000000000000A9
:10372000000000000000000000000000AA000000EF
:10373000FF000000FF00000000000000000000008B
:103740000000000000000000000000000000000079
:1037500000000000000000002D0000003C00000000
:103760003C0000001E0000008C0000008C000000E7
:10377000622D3E0500807B400000000000808B40F1
:103780000000000000A094400000000000809B406A
:10379000000000000030A140C5E5780522DE7E4033
:1037A000AE47E17A14DE8E40C3F5285C8F26974041
:1037B0000000000000DE9E40CDCCCCCCCC4AA34023
:1037C000C9569753025A804000000000005A9040AA
:1037D0001B2FDD240687984000000000005AA040FF
:1037E000000000008070A4404485EAE6A25A8240AE
:1037F000713D0AD7A35A9240295C8FC2F5879B403E
:10380000713D0AD7A35AA240CDCCCCCC4CF1A640F6
:103810002FFCE07C0A9A844000000000009A94404B
:103820000000000000E79E4000000000009AA44055
:103830000000000080C0A940D74CBED9A6D3854067
:10384000D9CEF753E3D39540F6285C8FC25EA040F3
:1038500048E17A14AED3A5409A9999999948AB401A
:1038600069FCC22BE91F874052B81E85EB1F9740A9
:103870003D0AD7A3F057A14052B81E85EB1FA740C1
:1038800066666666E6E7AC4015527E52ED7F88407C
:1038900052B81E85EB7F98403D0AD7A3F05FA24047
:1038A00052B81E85EB7FA84066666666E69FAE400E
:1038B000A5F5B70400808B400000000000809B400D
:1038C0000000000000A0A440000000000080AB4009
:1038D000000000000030B14002030405060708099B
:1038E0000A0B0C0D0E0F1010010203040506070849
:1038F000090A0B0C0D0E0F10000000000000000064
:103900000102030406070809000000000102030485
:103910004C5555555555A53F7751C1166CC156BFED
:103920009015CB19A001FA3EAD529C804F7E92BEFD
:10393000C4B1B4BD9EEE213ED43888BEE9FAA8BD1C
:1039400000004054FB21F93F3163621A61B4D03D5D
:103950000000601A61B4D03D7370032E8A19A33B36
:103960000000002E8A19A33BC14920259A837B3988
:1039700000000000000000006E83F9A22915444EEB
:10398000D15727FCC0DD34F5999562DB4190433C6B
:10399000AB6351FE61C5BBDE3A6E24B7E0D24D4247
:1039A000EA2E49061C92D1091CEB1DFE3EA729B147
:1039B000F53582E88444BB2E26709CE9417E5FB4D5
:1039C00039D69139F43953838B5F849C3B28F9BDF8
:1039D000FF97F81F0F9805DE8B112FEF1F6D0A5A06
:1039E000CF7E366DB709CB27663F464F2DEA5F9EE7
:1039F000C7BA27757BF1E5EBF739073DEA92528AA2
:103A0000B15FFB6B085D8D1FA6F810111111813F8E
:103A1000D561C119A0012ABF7DFEB157E31DC73E84
:103A2000EB9C2B8AE6E55ABE7CD5CF5A3AD9E53DC8
:103A3000503A0008000000205000000080340008C8
:103A4000A03A000850000020180700009034000839
:103A50000000000000000000000000000000000066
:103A60000000000000000000000000000000000056
:103A70000000000000000000000000000000000046
:103A800000000000FFFFFFFFFF000000010000003A
:103A9000100000000000000000127A00000000008A
:040000050800018965
:00000001FF
